S01300004E4F44453261746D6567612E737265634A
S113000071C000008EC000008CC00000F0C0000071
S113001088C0000086C0000084C0000082C00000C8
S113002080C000007EC000007CC000007AC00000D8
S113003078C0000076C0000074C0000072C00000E8
S113004070C000006EC000006CC000006AC00000F8
S113005068C0000066C0000064C0000062C0000008
S113006060C000005EC000005CC000005AC0000018
S113007058C0000056C0000054C0000052C0000028
S113008050C000004EC000004CC000004AC0000038
S113009048C0000046C0000044C0000042C0000048
S11300A040C000003EC000003CC000003AC0000058
S11300B038C0000036C0000034C0000032C0000068
S11300C030C000002EC000002CC000002AC0000078
S11300D028C0000026C0000024C0000022C0000088
S11300E020C0000011241FBECFEFD1E2DEBFCDBF80
S11300F000E00CBF13E0A0E0B2E0E0E7FDE000E0C8
S11301000BBF02C007900D92AC34B107D9F723E0BE
S1130110ACE4B3E001C01D92A136B207E1F7ACD064
S113012025C66ECFEAE7F0E0808187688083089572
S1130130ECE7F0E0808180668083EAE7F0E080818C
S113014080648083808186FDFDCF8091790008954D
S1130150CF93DF930DD148E660E680E622D141E0FB
S113016063E08BE21ED140E060EE8FE01AD18EE0B6
S1130170EDD01F928F93C6E0D2E0DF93CF93C4D12A
S11301808CE2E4D01F928F93DF93CF93BDD18DE2A5
S1130190DDD01F928F938BE192E09F938F93B4D124
S11301A08EE0D4D0807E2DB73EB7245F3F4F0FB68C
S11301B0F8943EBF0FBE2DBF882351F083E392E035
S11301C09F938F93A1D10F900F9081E090E002C094
S11301D080E090E0DF91CF91089540E061E08CE20F
S11301E0E0D081E080934C0380E090E008951F927A
S11301F00F920FB60F9211240BB60F922F933F93C9
S11302004F935F936F937F938F939F93AF93BF931A
S1130210EF93FF93E2DF8DE792E089D1FF91EF91B5
S1130220BF91AF919F918F917F916F915F914F910A
S11302303F912F910F900BBE0F900FBE0F901F9008
S1130240189576DFEDE4F3E08083938122812383A4
S113025030E0290F311D91819283290F311D818353
S1130260A901480F511DCA0199230CF403969595D1
S11302708795959587950895F8948098E9E6F0E038
S113028080818083EA9A529887E690E0E0D0A1D0FA
S11302906FD05EDF892B41F488E892E09F938F93BF
S11302A033D10F900F9007C089E992E09F938F9309
S11302B02BD10F900F9036DF7894CFEAD2E00F2E37
S11302C0F5ECEF2EF2E0FF2EF02D0FED12E0B9DF8A
S11302D0282F30E030935403209353031F928F93BD
S11302E0DF93CF9311D180915303909154030F90D6
S11302F00F900F900F902091510330915203821769
S1130300930729F3892B29F4FF92EF92FDD00F90E4
S11303100F908091530390915403909352038093D0
S113032051031F930F93F0D00F900F90D0CF80E024
S113033090E071D080EC69D08FE193E00197F1F700
S113034000C0000081E090E066C00895CF93C82FFC
S113035080E090E060D083E058D08C2F56D080E0CD
S113036054D0C82F81E090E056D08C2FCF910895BF
S113037030D0DDDF8DEF92E09F938F93C5D08EE078
S1130380E5DF807E0F900F90803849F087E093E09E
S11303909F938F93B9D00F900F9081E0089580E0E0
S11303A008951F93CF93DF93182FD62FC42F80E087
S11303B090E031D085E029D0812F27D08D2F25D012
S11303C08C2F23D081E090E026D0DF91CF911F9134
S11303D0089589E293E09F938F9396D084B18768C0
S11303E084B9239887E393E09F938F938DD081E51D
S11303F08CBD81E493E09F938F9386D00F900F90F0
S11304000F900F900F900F9008958EBD0DB407FEBE
S1130410FDCF8EB508958130910511F42F9A08957A
S1130420892B09F42F980895E0ECF0E0908195FF72
S1130430FDCF8093C60080E090E00895E0ECF0E00A
S113044080818823ECF78091C60090E00895909312
S1130450C5008093C40088E18093C100E2ECF0E021
S113046088E0808386E080836EE172E084E192E03C
S113047001C008950F931F93CF93DF93009731F436
S11304806115710519F480E090E039C08B01EC012D
S11304906EE070E081E090E077D2FC01892B99F363
S11304A080E883830115110571F01387028781E8C1
S11304B083838091570390915803892B21F4F093FF
S11304C05803E09357032097C9F0D187C0878381ED
S11304D0826083838091590390915A03892B71F42C
S11304E0F0935A03E093590380915B0390915C036A
S11304F0892B21F4F0935C03E0935B03CF01DF913C
S1130500CF911F910F910895CF93DF93CDB7DEB7AD
S1130510AE014A5F5F4FFA0161917191AF01809121
S1130520590390915A0333D0DF91CF9108950F93DB
S11305301F93CF93DF93E0915903F0915A032381E2
S113054021FF1BC08C01D0E0C0E0F80181918F0134
S11305506091590370915A03DB011896ED91FC9157
S11305601997882331F01995892B79F3DFEFCFEFB1
S1130570ECCF8AE01995892B19F08FEF9FEF02C019
S11305808D2F9C2FDF91CF911F910F9108952F9262
S11305903F924F925F926F927F928F929F92AF920F
S11305A0BF92CF92DF92EF92FF920F931F93CF935C
S11305B0DF93CDB7DEB72B970FB6F894DEBF0FBE2F
S11305C0CDBF6C017B018A01FC01178216828381F5
S11305D081FFBFC1CE0101963C01F6019381F70171
S11305E093FD859193FF81917F01882309F4ADC127
S11305F0853239F493FD859193FF81917F01853292
S113060021F4B60190E018D3E8CF912C212C312CA1
S1130610FFE1F315D8F08B3279F038F4803279F0B9
S11306208332A1F4232D20611DC08D3261F080330B
S113063069F4232D216016C0832D8260382EE32DAA
S1130640E4603E2E2AC0F32DF8601DC037FC2DC097
S113065020ED280F2A3040F08E32B9F436FC75C1F3
S1130660232D2064322E19C036FE06C08AE0989EDF
S1130670200D1124922E11C0EAE02E9E200D11248B
S1130680222EF32DF0623F2E08C08C3621F4832DE8
S11306908068382E02C0883641F4F70193FD8591B5
S11306A093FF81917F018111B3CF982F9F7D955442
S11306B0933028F40C5F1F4F9FE399830DC083365A
S11306C031F0833771F0833509F055C020C0F8014B
S11306D0808189830E5F1F4F88248394912C53015A
S11306E012C02801F2E04F0E511CF801A080B18025
S11306F036FE03C0692D70E002C06FEF7FEFC501C5
S113070090D24C018201F32DFF773F2E15C02801B2
S113071022E0420E511CF801A080B18036FE03C0D5
S1130720692D70E002C06FEF7FEFC50168D24C0104
S1130730F32DF0683F2E820133FC19C0822D90E026
S113074088169906A0F4B60180E290E075D22A9446
S1130750F5CFF50137FC859137FE81915F01B60134
S113076090E06AD221102A9421E0821A910881141F
S1130770910479F7E1C0843611F0893639F5F8012E
S113078037FE07C060817181828193810C5F1F4FA6
S113079008C060817181072E000C880B990B0E5FD5
S11307A01F4FF32DFF763F2E97FF09C0909580953C
S11307B0709561957F4F8F4F9F4FF0683F2E2AE0D1
S11307C030E0A30175D2882E861844C0853731F4F1
S11307D0232D2F7EB22E2AE030E025C0932D997F61
S11307E0B92E8F36C1F018F4883579F0AEC0803751
S11307F019F0883721F0A9C0E92FE061BE2EB4FEBC
S11308000DC0FB2DF460BF2E09C034FE0AC0292F91
S11308102660B22E06C028E030E005C020E130E0BA
S113082002C020E132E0F801B7FE07C060817181A7
S1130830828193810C5F1F4F06C06081718180E0CB
S113084090E00E5F1F4FA30133D2882E8618FB2D34
S1130850FF773F2E36FE0DC0232D2E7FA22E891446
S113086058F434FE0BC032FC09C0832D8E7EA82EB2
S113087005C0B82CA32C03C0B82C01C0B92CA4FE0D
S11308800FC0FE01E80DF11D8081803321F49A2D03
S1130890997EA92E09C0A2FE06C0B394B39404C0E5
S11308A08A2D867809F0B394A3FC10C0A0FE06C07C
S11308B0B21480F4280C922C9B180DC0B21458F476
S11308C0B60180E290E0B8D1B394F8CFB21418F432
S11308D02B1802C0982C212CA4FE0FC0B60180E373
S11308E090E0AAD1A2FE16C0A1FC03C088E790E064
S11308F002C088E590E0B6010CC08A2D867851F0DC
S1130900A1FE02C08BE201C080E2A7FC8DE2B60129
S113091090E092D1891430F4B60180E390E08CD158
S11309209A94F8CF8A94F301E80DF11D8081B60101
S113093090E082D18110F6CF222009F44ECEB60188
S113094080E290E079D12A94F7CFF60186819781ED
S113095002C08FEF9FEF2B960FB6F894DEBF0FBE49
S1130960CDBFDF91CF911F910F91FF90EF90DF905A
S1130970CF90BF90AF909F908F907F906F905F903B
S11309804F903F902F9008950F931F93CF93DF9331
S1130990869F8001879F100D969F100D1124C8011A
S11309A00DD0EC01009721F0A80160E070E032D195
S11309B0CE01DF91CF911F910F9108950F931F9353
S11309C0CF93DF938230910510F482E090E0E091C0
S11309D05F03F091600320E030E0A0E0B0E03097E6
S11309E019F1408151810281138148175907C8F0D8
S11309F08417950769F4109731F012960C931297A7
S1130A0013961C9327C000935F031093600322C0C6
S1130A102115310519F04217530718F49A01BD0145
S1130A20EF01DF01F801DBCF21153105F9F0281BB7
S1130A30390B2430310580F48A819B81611571055D
S1130A4021F0FB019383828304C09093600380931D
S1130A505F03FE01329644C0FE01E20FF31F81934F
S1130A60919322503109398328833AC020915D0340
S1130A7030915E03232B41F4209102023091030252
S1130A8030935E0320935D032091000230910102B4
S1130A902115310541F42DB73EB740910402509120
S1130AA00502241B350BE0915D03F0915E03E21710
S1130AB0F307A0F42E1B3F0B2817390778F0AC017D
S1130AC04E5F5F4F2417350748F04E0F5F1F50935A
S1130AD05E0340935D038193919302C0E0E0F0E0F4
S1130AE0CF01DF91CF911F910F910895CF93DF93A1
S1130AF0009709F481C0FC01329713821282A091FD
S1130B005F03B0916003109781F420813181820FDB
S1130B10931F20915D0330915E032817390751F527
S1130B20F0935E03E0935D0367C0ED0120E030E0E5
S1130B30CE17DF0740F44A815B819E0141155105C0
S1130B40F1F0EA01F5CFD383C28340815181840F50
S1130B50951FC817D90759F488819981840F951F67
S1130B600296918380838A819B819383828321155A
S1130B70310529F4F0936003E0935F033DC0E9017C
S1130B80FB83EA8349915991C40FD51FEC17FD07E4
S1130B9061F480819181840F951F0296E901998304
S1130BA08883828193819B838A83E0E0F0E01296BC
S1130BB08D919C911397009719F0FD01DC01F7CFFB
S1130BC08D919C9111979D012E5F3F4F820F931F32
S1130BD020915D0330915E032817390769F430973B
S1130BE029F41092600310925F0302C013821282F0
S1130BF0B0935E03A0935D03DF91CF910895FC0150
S1130C000590615070400110D8F7809590958E0F33
S1130C109F1F0895DC0101C06D9341505040E0F7DF
S1130C200895FC016150704001900110D8F780953F
S1130C3090958E0F9F1F08950F931F93CF93DF936B
S1130C40FB01238121FD03C08FEF9FEF2CC022FF06
S1130C5016C046815781248135814217530744F4D5
S1130C60A081B1819D012F5F3F4F318320838C93FD
S1130C70268137812F5F3F4F3783268314C08B0132
S1130C80EC01FB010084F185E02D1995892BE1F637
S1130C90D80116968D919C911797019617969C935F
S1130CA08E931697CE01DF91CF911F910F910895E6
S1130CB0FA01AA27283051F1203181F1E8946F9389
S1130CC06E7F6E5F7F4F8F4F9F4FAF4FB1E03ED02F
S1130CD0B4E03CD0670F781F891F9A1FA11D680FCD
S1130CE0791F8A1F911DA11D6A0F711D811D911D00
S1130CF0A11D20D009F468943F912AE0269F112475
S1130D003019305D3193DEF6CF010895462F4770D8
S1130D10405D4193B3E00FD0C9F7F6CF462F4F7033
S1130D20405D4A3318F0495D31FD4052419302D091
S1130D30A9F7EACFB4E0A695979587957795679537
S1130D40BA95C9F700976105710508959B01AC0137
S1130D500A2E06945795479537952795BA95C9F75E
S1130D60620F731F841F951FA01D0895F894FFCF71
S1130D7000006103200063616E20657220692025F4
S1130D80303278206D6F64650A0D0063616E2065F2
S1130D9072726F7220692025303278206D6F64651D
S1130DA00A0D004552524F522E2E4552524F522E8A
S1130DB02E2E4C4F4F504241434B204E4F54205700
S1130DC04F524B494E4700617364666173736466A6
S1130DD00A0D0052583A2025640A0D004C4553452B
S1130DE0520A0D006C656E2025640A0D00494E54AC
S1130DF04552525550540D0043414E204245205710
S1130E004F524B494E470A0D0043414E204E4F541A
S1130E1020424520574F524B494E47200A0D00743B
S1130E20696E672065722061762076657264692038
S1130E3025640A0D004C6976657320686176652027
S1130E406265656E20726564756365640A0D006C85
S1130E50697665732068617665206E6F74206265BB
S1130E60656E20726564756365640A0D006D637058
S1130E70207265736574004552524F522E2E4552AE
S1130E80524F522E2E2E434F4E464947204E4F541A
S1130E9020574F524B494E4700736773646773671B
S1130EA073646773646700706F727473207365741E
S10F0EB00073706920656E61626C65005F
S9030000FC
