S01300004E4F44453261746D6567612E737265634A
S113000071C000008EC000008CC0000094C10000CC
S113001088C0000086C0000084C0000082C00000C8
S113002080C000007EC000007CC000007AC00000D8
S113003078C0000076C0000074C0000072C00000E8
S113004070C000006EC000006CC000006AC00000F8
S113005068C0000066C0000064C0000062C0000008
S113006060C000005EC000005CC000005AC0000018
S113007058C0000056C0000054C0000052C0000028
S113008050C000004EC000004CC000004AC0000038
S113009048C0000046C0000044C0000042C0000048
S11300A040C000003EC000003CC000003AC0000058
S11300B038C0000036C0000034C0000032C0000068
S11300C030C000002EC000002CC000002AC0000078
S11300D028C0000026C0000024C0000022C0000088
S11300E020C0000011241FBECFEFD1E2DEBFCDBF80
S11300F000E00CBF13E0A0E0B2E0EEECFEE000E0B4
S11301000BBF02C007900D92A231B107D9F723E0CB
S1130110A2E1B3E001C01D92A032B207E1F732D1EF
S1130120D4C66ECFECD148E660E680E620D241E04A
S113013063E08BE21CD240E460EE8FE018D28EE0E4
S1130140CCD1807E803451F086E092E09F938F93EF
S1130150C1D20F900F9081E090E0089580E090E08C
S1130160089580E3BAD184FD05C085FD06C080E012
S113017090E008958FEF9FEF08958EEF9FEF08951D
S113018080E3ABD186958695869591E08927817029
S113019090E008950F931F93CF938C01F1DF892B87
S11301A009F438C0F8016081718176956795769578
S11301B067957695679581E3BBD1F801608171817C
S11301C0660F771F62957295707F7627607F76271A
S11301D082E3AED160E083E4ABD160E084E4A8D1F3
S11301E0F801628185E3A4D1F8018281882369F052
S11301F0C0E0F801EC0FF11D638186E38C0F98D108
S1130200CF5FF8018281C817A0F381E8A4D180E010
S113021090E006C0A6DF990F990B892F990F990BCF
S1130220CF911F910F91089540E061E08CE29FD13E
S113023081E08093120380E090E008959F92AF9252
S1130240BF92CF92DF92EF92FF920F931F93CF93BF
S1130250DF93CDB7DEB72B970FB6F894DEBF0FBE92
S1130260CDBF5C018AE292E09F938F9333D2FE016B
S113027031968BE0DF011D928A95E9F70F900F907C
S1130280809112038130B1F581E627D1C82E82E630
S113029024D1829586958770D12CCC0CDD1CCC0C96
S11302A0DD1CCC0CDD1CC82A85E617D1082F0F7085
S11302B01F920F9386E392E09F938F930BD20F903C
S11302C00F900F900F90002391F07E01B4E0EB0E9D
S11302D0F11C0F2EF6E69F2EF02D900E16E6812FC0
S11302E0FCD0F70181937F011F5F1911F8CF1092A1
S11302F0120303C000E0C12CD12CDA82C9820B8323
S11303008BE0FE013196D50101900D928A95E1F7BB
S1130310C5012B960FB6F894DEBF0FBECDBFDF919B
S1130320CF911F910F91FF90EF90DF90CF90BF90EE
S1130330AF909F9008951F920F920FB60F921124C1
S11303400BB60F922F933F934F935F936F937F93CB
S11303508F939F93AF93BF93EF93FF9365DFFF91C9
S1130360EF91BF91AF919F918F917F916F915F9129
S11303704F913F912F910F900BBE0F900FBE0F9096
S11303801F901895CF93DF93CDB7DEB766970FB65E
S1130390F894DEBF0FBECDBFF894E9E6F0E08081AB
S11303A08083EA9A529887E690E037D1BBDE892BA6
S11303B071F48FE392E09F938F938CD181E090E06E
S11303C09A83898388E08B830F900F9007C080E520
S11303D092E09F938F937ED10F900F9078946894BE
S11303E0552454F80F2EF6E68F2EF2E09F2EF02DB2
S11303F00F2EF6E7AF2EF2E0BF2EF02D0F2EF6E80B
S1130400CF2EF2E0DF2EF02D0F2EF6E9EF2EF2E0E4
S1130410FF2EF02D07EA12E00F2EF5EB6F2EF2E01F
S11304207F2EF02D5C82809113038F5F80931303E2
S11304308D83CE010196AEDECE010C96FFDE8F8554
S1130440809314038889809315038EE046D01F920D
S11304508F939F928F923ED18CE23FD01F928F93C5
S1130460BF92AF9237D181E038D01F928F93DF9241
S1130470CF9230D180E331D01F928F93FF92EF92CD
S113048029D1809114031F928F931F930F9322D12C
S1130490809115031F928F937F926F921BD12FEF40
S11304A084E39CE0215080409040E1F700C00000CC
S11304B00FB6F894DEBF0FBECDBFB4CF80E090E09E
S11304C090D080EC88D08FE193E00197F1F700C0E1
S11304D0000081E090E085C00895CF93C82F80E0AC
S11304E090E07FD083E077D08C2F75D080E073D0FC
S11304F0C82F81E090E075D08C2FCF9108954FD014
S1130500DDDF83EC92E09F938F93E4D08EE0E5DF10
S1130510807E0F900F90803849F08DEC92E09F938D
S11305208F93D8D00F900F9081E0089580E00895C4
S1130530CF93DF93D82FC62F80E090E052D082E093
S11305404AD08D2F48D08C2F46D081E090E049D0FE
S1130550DF91CF910895CF93C82F80E090E041D0F0
S11305608C2F39D081E090E03CD0CF9108951F9337
S1130570CF93DF93182FD62FC42F80E090E031D093
S113058085E029D0812F27D08D2F25D08C2F23D003
S113059081E090E026D0DF91CF911F9108958FEEF6
S11305A092E09F938F9396D084B1876884B92398FF
S11305B08DEF92E09F938F938DD081E58CBD87E082
S11305C093E09F938F9386D00F900F900F900F908E
S11305D00F900F9008958EBD0DB407FEFDCF8EB51C
S11305E008958130910511F42F9A0895892B09F407
S11305F02F980895E0ECF0E0908195FFFDCF809373
S1130600C60080E090E00895E0ECF0E0808188236B
S1130610ECF78091C60090E008959093C500809314
S1130620C40088E18093C100E2ECF0E088E08083BC
S113063086E0808364E073E08AEF92E001C008956D
S11306400F931F93CF93DF93009731F461157105D6
S113065019F480E090E039C08B01EC016EE070E0A9
S113066081E090E038D2FC01892B99F380E8838300
S11306700115110571F01387028781E88383809146
S1130680160390911703892B21F4F0931703E09339
S113069016032097C9F0D187C08783818260838342
S11306A08091180390911903892B71F4F093190325
S11306B0E093180380911A0390911B03892B21F472
S11306C0F0931B03E0931A03CF01DF91CF911F91A5
S11306D00F910895CF93DF93CDB7DEB7AE014A5F94
S11306E05F4FFA0161917191AF018091180390916C
S11306F0190303D0DF91CF9108952F923F924F9227
S11307005F926F927F928F929F92AF92BF92CF929D
S1130710DF92EF92FF920F931F93CF93DF93CDB7A6
S1130720DEB72C970FB6F894DEBF0FBECDBF7C01A9
S11307306B018A01FC0117821682838181FFB0C19B
S1130740CE0101964C01F7019381F60193FD859149
S113075093FF81916F01882309F49EC1853239F496
S113076093FD859193FF81916F01853221F4B70147
S113077090E015D3E8CF512C312C20E02032A0F4A6
S11307808B3269F030F4803259F0833269F420619D
S11307902CC08D3239F0803339F4216026C02260B8
S11307A0246023C0286021C027FD27C030ED380F06
S11307B03A3078F426FF06C0FAE05F9E300D11242B
S11307C0532E13C08AE0389E300D1124332E20623C
S11307D00CC08E3221F426FD5FC1206406C08C3625
S11307E011F4206802C0883641F4F60193FD859126
S11307F093FF81916F018111C1CF982F9F7D9554F3
S1130800933028F40C5F1F4FFFE3F9830DC0833648
S113081031F0833771F0833509F057C021C0F801F6
S1130820808189830E5F1F4F44244394512C5401CB
S113083014C03801F2E06F0E711CF801A080B18081
S113084026FF03C0652D70E002C06FEF7FEFC50186
S11308502C879AD22C0183012C852F77222E16C047
S11308603801F2E06F0E711CF801A080B18026FF00
S113087003C0652D70E002C06FEF7FEFC5012C87C8
S113088071D22C012C852068222E830123FC19C0EF
S1130890832D90E048165906A0F4B70180E290E059
S11308A07ED23A94F5CFF50127FC859127FE8191FC
S11308B05F01B70190E073D231103A94F1E04F1A1E
S11308C051084114510479F7DEC0843611F0893699
S11308D031F5F80127FF07C060817181828193811E
S11308E00C5F1F4F08C060817181072E000C880BBC
S11308F0990B0E5F1F4F2F76722E97FF09C09095AC
S11309008095709561957F4F8F4F9F4F2068722E11
S11309102AE030E0A4017BD2A82EA81843C0853772
S113092029F42F7EB22E2AE030E025C0F22FF97F81
S1130930BF2E8F36C1F018F4883579F0ADC08037FA
S113094019F0883721F0A8C02F2F2061B22EB4FEF1
S11309500DC08B2D8460B82E09C024FF0AC09F2FC0
S11309609660B92E06C028E030E005C020E130E0F2
S113097002C020E132E0F801B7FE07C06081718156
S1130980828193810C5F1F4F06C06081718180E07A
S113099090E00E5F1F4FA4013AD2A82EA818FB2D99
S11309A0FF777F2E76FE0BC0372D3E7FA51450F4C3
S11309B074FE0AC072FC08C0372D3E7E05C0BA2CF6
S11309C0372D03C0BA2C01C0B52C34FF0DC0FE0175
S11309D0EA0DF11D8081803311F4397E09C032FFA4
S11309E006C0B394B39404C0832F867809F0B394FB
S11309F033FD12C030FF06C05A2CB31418F4530C44
S1130A005B18B32CB31460F4B70180E290E03C8728
S1130A10C6D1B3943C85F6CFB31410F43B1801C08F
S1130A20312C34FF11C0B70180E390E03C87B7D18B
S1130A303C8532FF16C031FD03C088E790E002C058
S1130A4088E590E0B7010CC0832F867851F031FF20
S1130A5002C08BE201C080E237FD8DE2B70190E075
S1130A609ED1A51430F4B70180E390E098D15A9454
S1130A70F8CFAA94F401EA0DF11D8081B70190E04A
S1130A808ED1A110F6CF332009F45DCEB70180E2F8
S1130A9090E085D13A94F7CFF7018681978102C01F
S1130AA08FEF9FEF2C960FB6F894DEBF0FBECDBF2D
S1130AB0DF91CF911F910F91FF90EF90DF90CF9036
S1130AC0BF90AF909F908F907F906F905F904F906A
S1130AD03F902F9008950F931F93CF93DF93869F9A
S1130AE08001879F100D969F100D1124C8010DD011
S1130AF0EC01009721F0A80160E070E03ED1CE0146
S1130B00DF91CF911F910F910895CF93DF9382309E
S1130B10910510F482E090E0E0911E03F0911F0330
S1130B2020E030E0C0E0D0E0309711F14081518105
S1130B3048175907C0F04817590761F48281938117
S1130B40209719F09B838A832BC090931F03809373
S1130B501E0326C02115310519F04217530718F456
S1130B609A01BE01DF01EF010280F381E02DDCCFA9
S1130B702115310509F1281B390B2430310590F476
S1130B8012968D919C9113976115710521F0FB01CB
S1130B909383828304C090931F0380931E03FD01FB
S1130BA0329644C0FD01E20FF31F819391932250CA
S1130BB031092D933C933AC020911C0330911D03BD
S1130BC0232B41F4209102023091030230931D0340
S1130BD020931C032091000230910102211531055C
S1130BE041F42DB73EB74091040250910502241BF5
S1130BF0350BE0911C03F0911D03E217F307A0F4F9
S1130C002E1B3F0B2817390778F0AC014E5F5F4F5E
S1130C102417350748F04E0F5F1F50931D03409370
S1130C201C038193919302C0E0E0F0E0CF01DF91D7
S1130C30CF9108950F931F93CF93DF93009709F4F7
S1130C408CC0FC0132971382128200911E03109112
S1130C501F030115110581F420813181820F931F37
S1130C6020911C0330911D032817390779F5F0935F
S1130C701D03E0931C0371C0D80140E050E0AE179F
S1130C80BF0750F412962D913C911397AD01211595
S1130C90310509F1D901F3CF9D01DA0133832283B0
S1130CA060817181860F971F8217930769F4EC01A5
S1130CB028813981260F371F2E5F3F4F31832083D0
S1130CC08A819B8193838283452B29F4F0931F03AC
S1130CD0E0931E0342C01396FC93EE931297ED012A
S1130CE0499159919E01240F351FE217F30771F4BE
S1130CF080819181840F951F029611969C938E9307
S1130D008281938113969C938E931297E0E0F0E096
S1130D10D80112968D919C911397009719F0F801C0
S1130D208C01F6CF8D919C9198012E5F3F4F820FDD
S1130D30931F20911C0330911D032817390769F470
S1130D40309729F410921F0310921E0302C01382DD
S1130D50128210931D0300931C03DF91CF911F9106
S1130D600F910895FC010590615070400110D8F76F
S1130D70809590958E0F9F1F0895DC0101C06D939F
S1130D8041505040E0F70895FC01615070400190DB
S1130D900110D8F7809590958E0F9F1F08950F939B
S1130DA01F93CF93DF93FB01238121FD03C08FEFBA
S1130DB09FEF28C022FF16C04681578124813581C8
S1130DC04217530744F4A081B1819D012F5F3F4F27
S1130DD0318320838C93268137812F5F3F4F378364
S1130DE0268310C0EB01092F182F0084F185E02D14
S1130DF01995892BE1F68E819F8101969F838E83BD
S1130E00812F902FDF91CF911F910F910895FA01B7
S1130E10AA27283051F1203181F1E8946F936E7F35
S1130E206E5F7F4F8F4F9F4FAF4FB1E03ED0B4E026
S1130E303CD0670F781F891F9A1FA11D680F791F67
S1130E408A1F911DA11D6A0F711D811D911DA11D78
S1130E5020D009F468943F912AE0269F1124301988
S1130E60305D3193DEF6CF010895462F4770405D23
S1130E704193B3E00FD0C9F7F6CF462F4F70405DD2
S1130E804A3318F0495D31FD4052419302D0A9F72D
S1130E90EACFB4E0A6959795879577956795BA9527
S1130EA0C9F700976105710508959B01AC010A2EED
S1130EB006945795479537952795BA95C9F7620FC4
S1110EC0731F841F951FA01D0895F894FFCF83
S1130ECE0000200320004552524F522E2E455252FE
S1130EDE4F522E2E2E4C4F4F504241434B204E4FCD
S1130EEE5420574F524B494E4700617364666173E9
S1130EFE7364660A0D006C656E2025640A0D00434A
S1130F0E414E20424520574F524B494E470A0D0041
S1130F1E43414E204E4F5420424520574F524B4989
S1130F2E4E47200A0D0043414E535441543A202556
S1130F3E3032780A0D0043414E494E54463A20252C
S1130F4E3032780A0D0043414E544552463A20251C
S1130F5E3032780A0D00545862304354524C3A20C1
S1130F6E253032780A0D0079312065722025303211
S1130F7E78200A0D007932206572202530327820CF
S1130F8E0A0D006D637020726573657400455252CC
S1130F9E4F522E2E4552524F522E2E2E434F4E4608
S1130FAE4947204E4F5420574F524B494E470073DA
S1130FBE67736467736773646773646700706F72D3
S1130FCE7473207365740073706920656E61626C4E
S1050FDE6500A8
S9030000FC
