S01300004E4F44453261746D6567612E737265634A
S113000071C000008EC000008CC000009DC10000C3
S113001088C0000086C0000084C0000082C00000C8
S113002080C000007EC000007CC000007AC00000D8
S113003078C0000076C0000074C0000072C00000E8
S113004070C000006EC000006CC000006AC00000F8
S113005068C0000066C0000064C0000062C0000008
S113006060C000005EC000005CC000005AC0000018
S113007058C0000056C0000054C0000052C0000028
S113008050C000004EC000004CC000004AC0000038
S113009048C0000046C0000044C0000042C0000048
S11300A040C000003EC000003CC000003AC0000058
S11300B038C0000036C0000034C0000032C0000068
S11300C030C000002EC000002CC000002AC0000078
S11300D028C0000026C0000024C0000022C0000088
S11300E020C0000011241FBECFEFD1E2DEBFCDBF80
S11300F000E00CBF12E0A0E0B2E0E2E3FFE000E0C9
S11301000BBF02C007900D92AA3FB107D9F723E0B5
S1130110AAEFB2E001C01D92A830B207E1F73ED1C8
S113012006C76ECFEED148E660E680E622D241E013
S113013063E08BE21ED240E060EE8FE01AD28EE0E4
S1130140CED1807E51F086E092E09F938F93C4D20B
S11301500F900F9081E090E0089580E090E0089582
S113016080E3BDD184FD05C085FD06C080E090E03C
S113017008958FEF9FEF08958EEF9FEF089580E32A
S1130180AED186958695869591E08927817090E019
S113019008950F931F93CF938C01F1DF892B09F4FA
S11301A038C0F80160817181769567957695679579
S11301B07695679581E3BED1F80160817181660F00
S11301C0771F62957295707F7627607F762782E32A
S11301D0B1D160E083E4AED160E084E4ABD1F80156
S11301E0628185E3A7D1F8018281882369F0C0E0A8
S11301F0F801EC0FF11D638186E38C0F9BD1CF5F77
S1130200F8018281C817A0F381E8A7D180E090E0CB
S113021006C0A6DF990F990B892F990F990BCF91DF
S11302201F910F91089540E061E08CE2A2D181E03A
S11302308093FA0280E090E008959F92AF92BF927B
S1130240CF92DF92EF92FF920F931F93CF93DF939E
S1130250CDB7DEB72B970FB6F894DEBF0FBECDBF78
S11302606C012AE232E03F932F9336D29091FA0246
S11302701F929F9326E332E03F932F932DD29091C8
S1130280FA020F900F900F900F900F900F909130F3
S113029009F03CC08FE392E09F938F931DD281E6D7
S11302A01ED1A82E82E61BD1829586958770B12C2B
S11302B0AA0CBB1CAA0CBB1CAA0CBB1CA82A85E656
S11302C00ED1082F0F701F920F9387E492E09F9333
S11302D08F9302D20F900F900F900F900F900F906A
S11302E0002391F07E0184E0E80EF11C0F2EF6E667
S11302F09F2EF02D900E16E6812FF1D0F7018193F9
S11303007F011F5F1911F8CF1092FA02BA82A982F5
S11303100B838BE0FE013196D60101900D928A95F4
S1130320E1F7C6012B960FB6F894DEBF0FBECDBF22
S1130330DF91CF911F910F91FF90EF90DF90CF90BD
S1130340BF90AF909F9008951F920F920FB60F9297
S113035011240BB60F922F933F934F935F936F9398
S11303607F938F939F93AF93BF93EF93FF935BDF41
S113037080E592E0C4D1FF91EF91BF91AF919F913D
S11303808F917F916F915F914F913F912F910F903A
S11303900BBE0F900FBE0F901F901895CF93DF9355
S11303A0CDB7DEB7A1970FB6F894DEBF0FBECDBFB1
S11303B0F894E9E6F0E080818083EA9A529887E62F
S11303C090E02DD1EED09DD0ADDE892B71F48BE57C
S11303D092E09F938F9380D181E090E09A83898308
S11303E088E08B830F900F9007C08CE692E09F9378
S11303F08F9372D10F900F9078940F2EF2E8CF2E36
S1130400F2E0DF2EF02D6894AA24A4F80F2EFBE06E
S1130410BF2EF02D0F2EFFE8EF2EF2E0FF2EF02D71
S11304200DE912E0DF92CF9257D1AC828091FB02AA
S11304308F5F8093FB028D83CE010196AADE2FEF9E
S113044081EE94E0215080409040E1F700C000002C
S11304500F900F90CE010C96F0DE8F858093FC02F6
S113046088898093FD02CE014796E7DEFE017796E8
S1130470DE011C968B2D01900D928A95E1F78F85F4
S11304808093FC0298899093FD021F928F93FF92B0
S1130490EF9222D18091FD021F928F931F930F93AD
S11304A01BD12FEF8AED9AE1215080409040E1F773
S11304B000C000000FB6F894DEBF0FBECDBFB2CFB0
S11304C080E090E090D080EC88D08FE193E00197B9
S11304D0F1F700C0000081E090E085C00895CF935B
S11304E0C82F80E090E07FD083E077D08C2F75D048
S11304F080E073D0C82F81E090E075D08C2FCF912D
S113050008954FD0DDDF8BEA92E09F938F93E4D080
S11305108EE0E5DF807E0F900F90803849F085EB08
S113052092E09F938F93D8D00F900F9081E008951D
S113053080E00895CF93DF93D82FC62F80E090E01A
S113054052D082E04AD08D2F48D08C2F46D081E003
S113055090E049D0DF91CF910895CF93C82F80E0E8
S113056090E041D08C2F39D081E090E03CD0CF9105
S113057008951F93CF93DF93182FD62FC42F80E0B5
S113058090E031D085E029D0812F27D08D2F25D040
S11305908C2F23D081E090E026D0DF91CF911F9162
S11305A0089587ED92E09F938F9396D084B18768E6
S11305B084B9239885EE92E09F938F938DD081E543
S11305C08CBD8FEE92E09F938F9386D00F900F9007
S11305D00F900F900F900F9008958EBD0DB407FEED
S11305E0FDCF8EB508958130910511F42F9A0895A9
S11305F0892B09F42F980895E0ECF0E0908195FFA1
S1130600FDCF8093C60080E090E00895E0ECF0E038
S113061080818823ECF78091C60090E00895909340
S1130620C5008093C40088E18093C100E2ECF0E04F
S113063088E0808386E0808366E073E08CEF92E05C
S113064001C008950F931F93CF93DF93009731F464
S11306506115710519F480E090E039C08B01EC015B
S11306606EE070E081E090E068D2FC01892B99F3A0
S113067080E883830115110571F01387028781E8EF
S113068083838091FE029091FF02892B21F4F093E1
S1130690FF02E093FE022097C9F0D187C0878381CF
S11306A0826083838091000390910103892B71F40C
S11306B0F0930103E09300038091020390910303FC
S11306C0892B21F4F0930303E0930203CF01DF911C
S11306D0CF911F910F910895CF93DF93CDB7DEB7DC
S11306E0AE014A5F5F4FFA0161917191AF01809150
S11306F000039091010333D0DF91CF9108950F93BC
S11307001F93CF93DF93E0910003F09101032381C2
S113071021FF1BC08C01D0E0C0E0F80181918F0162
S11307206091000370910103DB011896ED91FC9137
S11307301997882331F01995892B79F3DFEFCFEFDF
S1130740ECCF8AE01995892B19F08FEF9FEF02C047
S11307508D2F9C2FDF91CF911F910F9108952F9290
S11307603F924F925F926F927F928F929F92AF923D
S1130770BF92CF92DF92EF92FF920F931F93CF938A
S1130780DF93CDB7DEB72C970FB6F894DEBF0FBE5C
S1130790CDBF7C016B018A01FC0117821682838123
S11307A081FFB0C1CE0101964C01F7019381F6019E
S11307B093FD859193FF81916F01882309F49EC174
S11307C0853239F493FD859193FF81916F018532D0
S11307D021F4B70190E015D3E8CF512C312C20E05F
S11307E02032A0F48B3269F030F4803259F0833235
S11307F069F420612CC08D3239F0803339F42160E2
S113080026C02260246023C0286021C027FD27C0A1
S113081030ED380F3A3078F426FF06C0FAE05F9ED8
S1130820300D1124532E13C08AE0389E300D11244C
S1130830332E20620CC08E3221F426FD5FC1206469
S113084006C08C3611F4206802C0883641F4F601E3
S113085093FD859193FF81916F018111C1CF982FF1
S11308609F7D9554933028F40C5F1F4FFFE3F98369
S11308700DC0833631F0833771F0833509F057C0EA
S113088021C0F801808189830E5F1F4F4424439463
S1130890512C540114C03801F2E06F0E711CF801A0
S11308A0A080B18026FF03C0652D70E002C06FEF09
S11308B07FEFC5012C879AD22C0183012C852F77D9
S11308C0222E16C03801F2E06F0E711CF801A080D0
S11308D0B18026FF03C0652D70E002C06FEF7FEF8B
S11308E0C5012C8771D22C012C852068222E83010E
S11308F023FC19C0832D90E048165906A0F4B701D3
S113090080E290E07ED23A94F5CFF50127FC859100
S113091027FE81915F01B70190E073D231103A94C0
S1130920F1E04F1A51084114510479F7DEC08436BE
S113093011F0893631F5F80127FF07C06081718114
S1130940828193810C5F1F4F08C060817181072EE3
S1130950000C880B990B0E5F1F4F2F76722E97FF9A
S113096009C090958095709561957F4F8F4F9F4FEB
S11309702068722E2AE030E0A4017BD2A82EA818A9
S113098043C0853729F42F7EB22E2AE030E025C0FB
S1130990F22FF97FBF2E8F36C1F018F4883579F025
S11309A0ADC0803719F0883721F0A8C02F2F2061FF
S11309B0B22EB4FE0DC08B2D8460B82E09C024FF66
S11309C00AC09F2F9660B92E06C028E030E005C00B
S11309D020E130E002C020E132E0F801B7FE07C0B8
S11309E060817181828193810C5F1F4F06C0608199
S11309F0718180E090E00E5F1F4FA4013AD2A82ECF
S1130A00A818FB2DFF777F2E76FE0BC0372D3E7F77
S1130A10A51450F474FE0AC072FC08C0372D3E7E43
S1130A2005C0BA2C372D03C0BA2C01C0B52C34FF35
S1130A300DC0FE01EA0DF11D8081803311F4397E71
S1130A4009C032FF06C0B394B39404C0832F8678E0
S1130A5009F0B39433FD12C030FF06C05A2CB3140E
S1130A6018F4530C5B18B32CB31460F4B70180E290
S1130A7090E03C87C6D1B3943C85F6CFB31410F410
S1130A803B1801C0312C34FF11C0B70180E390E062
S1130A903C87B7D13C8532FF16C031FD03C088E7DF
S1130AA090E002C088E590E0B7010CC0832F8678FF
S1130AB051F031FF02C08BE201C080E237FD8DE2CC
S1130AC0B70190E09ED1A51430F4B70180E390E023
S1130AD098D15A94F8CFAA94F401EA0DF11D8081BB
S1130AE0B70190E08ED1A110F6CF332009F45DCE8A
S1130AF0B70180E290E085D13A94F7CFF70186817F
S1130B00978102C08FEF9FEF2C960FB6F894DEBF4B
S1130B100FBECDBFDF91CF911F910F91FF90EF904A
S1130B20DF90CF90BF90AF909F908F907F906F9009
S1130B305F904F903F902F9008950F931F93CF9302
S1130B40DF93869F8001879F100D969F100D1124BF
S1130B50C8010DD0EC01009721F0A80160E070E01D
S1130B603ED1CE01DF91CF911F910F910895CF9384
S1130B70DF938230910510F482E090E0E091060367
S1130B80F091070320E030E0C0E0D0E0309711F1AD
S1130B904081518148175907C0F04817590761F43B
S1130BA082819381209719F09B838A832BC0909331
S1130BB007038093060326C02115310519F0421757
S1130BC0530718F49A01BE01DF01EF010280F3819B
S1130BD0E02DDCCF2115310509F1281B390B243018
S1130BE0310590F412968D919C91139761157105BE
S1130BF021F0FB019383828304C0909307038093C5
S1130C000603FD01329644C0FD01E20FF31F8193F8
S1130C109193225031092D933C933AC020910403BF
S1130C2030910503232B41F42091020230910302F9
S1130C3030930503209304032091000230910102B4
S1130C402115310541F42DB73EB74091040250916E
S1130C500502241B350BE0910403F0910503E21710
S1130C60F307A0F42E1B3F0B2817390778F0AC01CB
S1130C704E5F5F4F2417350748F04E0F5F1F5093A8
S1130C800503409304038193919302C0E0E0F0E0F4
S1130C90CF01DF91CF9108950F931F93CF93DF93EB
S1130CA0009709F48CC0FC013297138212820091E0
S1130CB00603109107030115110581F42081318188
S1130CC0820F931F209104033091050328173907DD
S1130CD079F5F0930503E093040371C0D80140E073
S1130CE050E0AE17BF0750F412962D913C91139724
S1130CF0AD012115310509F1D901F3CF9D01DA01C7
S1130D003383228360817181860F971F8217930733
S1130D1069F4EC0128813981260F371F2E5F3F4F7C
S1130D20318320838A819B8193838283452B29F499
S1130D30F0930703E093060342C01396FC93EE93EB
S1130D401297ED01499159919E01240F351FE21725
S1130D50F30771F480819181840F951F0296119697
S1130D609C938E938281938113969C938E93129776
S1130D70E0E0F0E0D80112968D919C9113970097D2
S1130D8019F0F8018C01F6CF8D919C9198012E5F9A
S1130D903F4F820F931F20910403309105032817BE
S1130DA0390769F4309729F4109207031092060367
S1130DB002C0138212821093050300930403DF918F
S1130DC0CF911F910F910895FC01059061507040DF
S1130DD00110D8F7809590958E0F9F1F0895DC0120
S1130DE001C06D9341505040E0F70895FC016150FB
S1130DF0704001900110D8F7809590958E0F9F1F39
S1130E0008950F931F93CF93DF93FB01238121FD5B
S1130E1003C08FEF9FEF28C022FF16C04681578181
S1130E20248135814217530744F4A081B1819D0187
S1130E302F5F3F4F318320838C93268137812F5F2F
S1130E403F4F3783268310C0EB01092F182F0084EE
S1130E50F185E02D1995892BE1F68E819F8101960C
S1130E609F838E83812F902FDF91CF911F910F91BC
S1130E700895FA01AA27283051F1203181F1E8942C
S1130E806F936E7F6E5F7F4F8F4F9F4FAF4FB1E079
S1130E903ED0B4E03CD0670F781F891F9A1FA11D74
S1130EA0680F791F8A1F911DA11D6A0F711D811D75
S1130EB0911DA11D20D009F468943F912AE0269F3A
S1130EC011243019305D3193DEF6CF010895462F99
S1130ED04770405D4193B3E00FD0C9F7F6CF462F7A
S1130EE04F70405D4A3318F0495D31FD40524193E3
S1130EF002D0A9F7EACFB4E0A695979587957795A0
S1130F006795BA95C9F700976105710508959B0126
S1130F10AC010A2E06945795479537952795BA95AF
S1130F20C9F7620F731F841F951FA01D0895F894BD
S1050F30FFCFED
S1130F320000080320004552524F522E2E455252B1
S1130F424F522E2E2E4C4F4F504241434B204E4F68
S1130F525420574F524B494E470061736466617384
S1130F627364660A0D0052583A2025640A0D004C37
S1130F72455345520A0D006C656E2025640A0D0026
S1130F82494E544552525550540D0043414E20424D
S1130F924520574F524B494E470A0D0043414E20BC
S1130FA24E4F5420424520574F524B494E47200A38
S1130FB20D006C6F6F70796C6F6F70200A0D007981
S1130FC2312065722025303278200A0D00793220D2
S1130FD265722025303278200A0D006D637020720C
S1130FE265736574004552524F522E2E4552524F2C
S1130FF2522E2E2E434F4E464947204E4F542057D1
S11310024F524B494E470073677364677367736447
S11310126773646700706F7274732073657400730E
S10D1022706920656E61626C650060
S9030000FC
