S01300004E4F44453261746D6567612E737265634A
S1130000C2C00000DFC00000DDC00000B2C10000BB
S1130010D9C00000D7C00000D5C00000D3C0000084
S1130020D1C00000CFC00000CDC00000CBC0000094
S1130030C9C00000C7C00000C5C00000C3C00000A4
S1130040C1C00000BFC00000BDC00000BBC00000B4
S1130050B9C00000B7C00000B5C00000B3C00000C4
S1130060B1C00000AFC00000ADC00000ABC00000D4
S1130070A9C00000A7C00000A5C00000A3C00000E4
S1130080A1C000009FC000009DC000009BC00000F4
S113009099C0000097C0000095C000004AC300004A
S11300A091C000008FC000008DC000008BC0000014
S11300B089C0000087C0000085C0000083C0000024
S11300C081C000007FC000007DC000007BC0000034
S11300D079C0000077C0000075C0000073C0000044
S11300E071C00000B70309040904090409040904E0
S11300F009040904B70309040904090409040904E7
S113010009040904B90309040904090409040904D4
S11301100904090409040904090409040904090473
S113012009040904B90309040904090409040904B4
S11301300904090409040904090409040904090453
S11301400904090405040904090409040904090447
S113015009040904E203090409040904090409045B
S11301600904090409040904090409040904090423
S113017009040904D6030904090409040904090447
S113018009040904F40311241FBECFEFD1E2DEBF3A
S1130190CDBF00E00CBF13E0A0E0B2E0E6E3F1E184
S11301A000E00BBF02C007900D92A831B107D9F748
S11301B023E0A8E1B3E001C01D92AF32B207E1F73A
S11301C02AD1B7C71DCFCF93DF93A9D148E660E604
S11301D080E6BED141E063E08BE2BAD140E060EE5C
S11301E08FE0B6D18EE089D11F928F93C7E0D2E021
S11301F0DF93CF939CD38CE280D11F928F93DF93B4
S1130200CF9395D38DE279D11F928F938CE192E0B5
S11302109F938F938CD38EE070D1807E2DB73EB7A1
S1130220245F3F4F0FB6F8943EBF0FBE2DBF882307
S113023051F084E392E09F938F9379D30F900F90C2
S113024081E090E002C080E090E0DF91CF910895DA
S113025040E061E08CE27CD181E08093180380E08F
S113026090E008959F92AF92BF92CF92DF92EF9267
S1130270FF920F931F93CF93DF93CDB7DEB72B97E6
S11302800FB6F894DEBF0FBECDBF6C0188E592E0D7
S11302909F938F934CD3809118031F928F9384E67E
S11302A092E09F938F9343D3809118030F900F9004
S11302B00F900F900F900F90813009F03CC08DE6A5
S11302C092E09F938F9333D381E617D1A82E82E6D1
S11302D014D1B12CAA0CBB1CAA0CBB1CAA0CBB1CB1
S11302E0829586958770A82A85E607D1082F0F7016
S11302F01F920F9385E792E09F938F9318D30F90EB
S11303000F900F900F900F900F90002391F07E01AB
S113031084E0E80EF11C0F2EF6E69F2EF02D900ED1
S113032016E6812FEAD0F70181937F011F5F19112F
S1130330F8CF10921803BA82A9820B838BE0FE01D6
S11303403196D60101900D928A95E1F7C6012B965C
S11303500FB6F894DEBF0FBECDBFDF91CF911F91D2
S11303600F91FF90EF90DF90CF90BF90AF909F9050
S113037008951F920F920FB60F9211240BB60F928D
S11303802F933F934F935F936F937F938F939F9399
S1130390AF93BF93EF93FF935BDF8CE2AED080FF0C
S11303A008C081E08093180340E061E08CE2D0D083
S11303B009C081FF07C081E08093180340E062E038
S11303C08CE2C6D0FF91EF91BF91AF919F918F9135
S11303D07F916F915F914F913F912F910F900BBE41
S11303E00F900FBE0F901F901895789476C10895C2
S11303F0CF93DF9300D0CDB7DEB79EE599831A8201
S11304008B8363E0CE01019672D10F900F900F9011
S1130410DF91CF910895CF93DF93CDB7DEB72B97BC
S11304200FB6F894DEBF0FBECDBFF8948098E9E60E
S1130430F0E080818083EA9AEFE6F0E080818160D9
S11304408083529887E690E00DD21CD168D0BBDE41
S1130450892B41F48EE792E09F938F9368D20F909B
S11304600F9007C08FE892E09F938F9360D20F9014
S11304700F9085EA92E09F938F9359D2B6DFE9D02B
S11304802FEF82E597E0215080409040E1F700C0D3
S1130490000081E095D00F900F9008EB12E0CE01A0
S11304A00196E0DE8E81809323039C819093220346
S11304B09D81909324031F928F931F930F9337D2A0
S11304C02FEF89E698E1215080409040E1F700C089
S11304D000000F900F900F900F90E1CF80E090E01C
S11304E0F3D080ECEBD08FE193E00197F1F700C0FB
S11304F0000081E090E0E8C00895CF93C82F80E029
S113050090E0E2D083E0DAD08C2FD8D080E0D6D04F
S1130510C82F81E090E0D8D08C2FCF910895B2D02D
S1130520DDDF88EC92E09F938F9301D28EE0E5DFCC
S1130530807E0F900F90803849F082ED92E09F9377
S11305408F93F5D10F900F9081E0089580E0089586
S11305501F93CF93DF93182FD62FC42F80E090E002
S1130560B3D085E0ABD0812FA9D08D2FA7D08C2F0D
S1130570A5D081E090E0A8D0DF91CF911F9108959C
S1130580E2E0F1E080818F7B80838FE193E001974B
S1130590F1F700C00000808180648083089588237F
S11305A019F0813039F00895E2E0F1E080818D7F27
S11305B080830895E2E0F1E0808182608083089581
S11305C0CF93DF93E2E0F1E090819F7D908390816F
S11305D098609083AFEEB0E01197F1F700C000008F
S11305E0A6E0B1E0CC919081977F9083EFEEF0E0AC
S11305F03197F1F700C00000DC918111C1DFE2E026
S1130600F1E08081806280838C2F90E09D2BDF91CC
S1130610CF910895CF93DF9380E0C1DF84E6E8DED5
S113062080E0CEDFEC0101C0EC012FEF81EE94E01D
S1130630215080409040E1F700C0000080E0C0DF1E
S11306408C179D0789F79CDF80E0D2DEDF91CF9184
S11306500895E1E0F1E0808180618083A2E0B1E06F
S11306608C9180618C9380818260808380818062A0
S1130670808380818860808380818064808380DF40
S1130680C9CF089584EF92E09F938F9350D184B1A2
S1130690876884B9239882E093E09F938F9347D12E
S11306A081E58CBD8CE093E09F938F9340D10F90B4
S11306B00F900F900F900F900F9008958EBD0DB472
S11306C007FEFDCF8EB508958130910511F42F9A60
S11306D00895892B09F42F9808958CE08093B8002D
S11306E08FEF8093BB0084E08093BC000895DC010D
S11306F0ECEBF0E0908190FDFDCF60931B038C91B7
S113070080931C0380FD0CC0623050F0FD013196D3
S1130710ADE1B3E081E091919D938F5F6813FBCFCE
S113072010921A0388EF8093060285EA8093BC0036
S113073008951F920F920FB60F9211240BB60F92C9
S11307402F933F938F939F93AF93BF93EF93FF9315
S1130750E091B9008E2F90E0FC013897E135F10566
S113076008F057C08827EE58FF4F8F4F8EC0109265
S11307701903E091190380911B03E81770F481E0D9
S11307808E0F80931903F0E0E45EFC4F8081809328
S1130790BB0085E88093BC0043C080911A0381604C
S11307A080931A0384E98093BC003AC0E091190352
S11307B081E08E0F809319038091BB00F0E0E45E2A
S11307C0FC4F80832091190330E080911B0390E05B
S11307D001972817390724F485EC8093BC0020C0C6
S11307E085E88093BC001CC08091BB00E091190394
S11307F0F0E0E45EFC4F808380911A038160809373
S11308001A0384E98093BC000BC085EA8093BC0082
S113081007C08091B9008093060284E08093BC00F5
S1130820FF91EF91BF91AF919F918F913F912F9144
S11308300F900BBE0F900FBE0F901F901895E0EC19
S1130840F0E0908195FFFDCF8093C60080E090E0BA
S11308500895E0ECF0E080818823ECF78091C600F5
S113086090E008959093C5008093C40088E180933C
S1130870C100E2ECF0E088E0808386E0808369E2F6
S113088074E08FE194E009C00895EE0FFF1F881F04
S11308908BBF0790F691E02D19940F931F93CF937C
S11308A0DF93009731F46115710519F480E090E04D
S11308B039C08B01EC016EE070E081E090E047D23A
S11308C0FC01892B99F380E883830115110571F0EC
S11308D01387028781E883838091250390912603FF
S11308E0892B21F4F0932603E09325032097C9F084
S11308F0D187C0878381826083838091270390910D
S11309002803892B71F4F0932803E0932703809143
S1130910290390912A03892B21F4F0932A03E0936D
S11309202903CF01DF91CF911F910F910895CF93A8
S1130930DF93CDB7DEB7AE014A5F5F4FFA01619135
S11309407191AF01809127039091280303D0DF9127
S1130950CF9108952F923F924F925F926F927F9220
S11309608F929F92AF92BF92CF92DF92EF92FF92BB
S11309700F931F93CF93DF93CDB7DEB72B970FB6AB
S1130980F894DEBF0FBECDBF6C017B018A01FC0170
S113099017821682838181FFBFC1CE0101963C017B
S11309A0F6019381F70193FD859193FF81917F0176
S11309B0882309F4ADC1853239F493FD859193FF01
S11309C081917F01853221F4B60190E018D3E8CFFC
S11309D0912C212C312CFFE1F315D8F08B3279F0D6
S11309E038F4803279F08332A1F4232D20611DC0C4
S11309F08D3261F0803369F4232D216016C0832D7C
S1130A008260382EE32DE4603E2E2AC0F32DF86078
S1130A101DC037FC2DC020ED280F2A3040F08E3247
S1130A20B9F436FC75C1232D2064322E19C036FE6C
S1130A3006C08AE0989E200D1124922E11C0EAE08F
S1130A402E9E200D1124222EF32DF0623F2E08C07D
S1130A508C3621F4832D8068382E02C0883641F408
S1130A60F70193FD859193FF81917F018111B3CFAC
S1130A70982F9F7D9554933028F40C5F1F4F9FE36C
S1130A8099830DC0833631F0833771F0833509F0D3
S1130A9055C020C0F801808189830E5F1F4F8824D0
S1130AA08394912C530112C02801F2E04F0E511C83
S1130AB0F801A080B18036FE03C0692D70E002C049
S1130AC06FEF7FEFC50190D24C018201F32DFF77C8
S1130AD03F2E15C0280122E0420E511CF801A080CF
S1130AE0B18036FE03C0692D70E002C06FEF7FEF66
S1130AF0C50168D24C01F32DF0683F2E820133FC0E
S1130B0019C0822D90E088169906A0F4B60180E2FF
S1130B1090E075D22A94F5CFF50137FC859137FE24
S1130B2081915F01B60190E06AD221102A9421E0FC
S1130B30821A91088114910479F7E1C0843611F086
S1130B40893639F5F80137FE07C0608171818281E9
S1130B5093810C5F1F4F08C060817181072E000CC8
S1130B60880B990B0E5F1F4FF32DFF763F2E97FFD7
S1130B7009C090958095709561957F4F8F4F9F4FD9
S1130B80F0683F2E2AE030E0A30175D2882E861843
S1130B9044C0853731F4232D2F7EB22E2AE030E075
S1130BA025C0932D997FB92E8F36C1F018F488355E
S1130BB079F0AEC0803719F0883721F0A9C0E92F49
S1130BC0E061BE2EB4FE0DC0FB2DF460BF2E09C043
S1130BD034FE0AC0292F2660B22E06C028E030E079
S1130BE005C020E130E002C020E132E0F801B7FEA8
S1130BF007C060817181828193810C5F1F4F06C0A1
S1130C006081718180E090E00E5F1F4FA30133D2B9
S1130C10882E8618FB2DFF773F2E36FE0DC0232D20
S1130C202E7FA22E891458F434FE0BC032FC09C066
S1130C30832D8E7EA82E05C0B82CA32C03C0B82CFF
S1130C4001C0B92CA4FE0FC0FE01E80DF11D808186
S1130C50803321F49A2D997EA92E09C0A2FE06C0E4
S1130C60B394B39404C08A2D867809F0B394A3FC9A
S1130C7010C0A0FE06C0B21480F4280C922C9B185D
S1130C800DC0B21458F4B60180E290E0B8D1B39428
S1130C90F8CFB21418F42B1802C0982C212CA4FEFF
S1130CA00FC0B60180E390E0AAD1A2FE16C0A1FC59
S1130CB003C088E790E002C088E590E0B6010CC06C
S1130CC08A2D867851F0A1FE02C08BE201C080E239
S1130CD0A7FC8DE2B60190E092D1891430F4B601FC
S1130CE080E390E08CD19A94F8CF8A94F301E80DD4
S1130CF0F11D8081B60190E082D18110F6CF2220CF
S1130D0009F44ECEB60180E290E079D12A94F7CF6F
S1130D10F6018681978102C08FEF9FEF2B960FB665
S1130D20F894DEBF0FBECDBFDF91CF911F910F911D
S1130D30FF90EF90DF90CF90BF90AF909F908F90F7
S1130D407F906F905F904F903F902F9008950F93F6
S1130D501F93CF93DF93869F8001879F100D969FEB
S1130D60100D1124C8010DD0EC01009721F0A80149
S1130D7060E070E032D1CE01DF91CF911F910F91ED
S1130D8008950F931F93CF93DF938230910510F44E
S1130D9082E090E0E0912D03F0912E0320E030E01A
S1130DA0A0E0B0E0309719F14081518102811381B4
S1130DB048175907C8F08417950769F4109731F05C
S1130DC012960C93129713961C9327C000932D032D
S1130DD010932E0322C02115310519F04217530731
S1130DE018F49A01BD01EF01DF01F801DBCF2115F1
S1130DF03105F9F0281B390B2430310580F48A8140
S1130E009B816115710521F0FB019383828304C0EA
S1130E1090932E0380932D03FE01329644C0FE016D
S1130E20E20FF31F81939193225031093983288370
S1130E303AC020912B0330912C03232B41F42091B1
S1130E4002023091030230932C0320932B03209150
S1130E500002309101022115310541F42DB73EB74E
S1130E604091040250910502241B350BE0912B03A1
S1130E70F0912C03E217F307A0F42E1B3F0B281765
S1130E80390778F0AC014E5F5F4F2417350748F0FF
S1130E904E0F5F1F50932C0340932B038193919328
S1130EA002C0E0E0F0E0CF01DF91CF911F910F91FC
S1130EB00895CF93DF93009709F481C0FC01329722
S1130EC013821282A0912D03B0912E03109781F406
S1130ED020813181820F931F20912B0330912C03A9
S1130EE02817390751F5F0932C03E0932B0367C0BF
S1130EF0ED0120E030E0CE17DF0740F44A815B814A
S1130F009E0141155105F1F0EA01F5CFD383C28367
S1130F1040815181840F951FC817D90759F48881DE
S1130F209981840F951F0296918380838A819B8186
S1130F30938382832115310529F4F0932E03E093E2
S1130F402D033DC0E901FB83EA8349915991C40F04
S1130F50D51FEC17FD0761F480819181840F951FE3
S1130F600296E90199838883828193819B838A8392
S1130F70E0E0F0E012968D919C911397009719F0A0
S1130F80FD01DC01F7CF8D919C9111979D012E5F9E
S1130F903F4F820F931F20912B0330912C0328176E
S1130FA0390769F4309729F410922E0310922D0317
S1130FB002C013821282B0932C03A0932B03DF91FF
S1130FC0CF910895FC010590615070400110D8F74D
S1130FD0809590958E0F9F1F0895DC0101C06D933D
S1130FE041505040E0F70895FC0161507040019079
S1130FF00110D8F7809590958E0F9F1F08950F9339
S11310001F93CF93DF93FB01238121FD03C08FEF57
S11310109FEF2CC022FF16C0468157812481358161
S11310204217530744F4A081B1819D012F5F3F4FC4
S1131030318320838C93268137812F5F3F4F378301
S1131040268314C08B01EC01FB010084F185E02DA3
S11310501995892BE1F6D80116968D919C911797D5
S1131060019617969C938E931697CE01DF91CF919C
S11310701F910F910895FA01AA27283051F12031C8
S113108081F1E8946F936E7F6E5F7F4F8F4F9F4F18
S1131090AF4FB1E03ED0B4E03CD0670F781F891F5A
S11310A09A1FA11D680F791F8A1F911DA11D6A0F28
S11310B0711D811D911DA11D20D009F468943F91DB
S11310C02AE0269F11243019305D3193DEF6CF01DA
S11310D00895462F4770405D4193B3E00FD0C9F7A0
S11310E0F6CF462F4F70405D4A3318F0495D31FD0D
S11310F04052419302D0A9F7EACFB4E0A695979560
S1131100879577956795BA95C9F700976105710535
S113111008959B01AC010A2E06945795479537957F
S11311202795BA95C9F7620F731F841F951FA01DD9
S10911300895F894FFCFBE
S113113600002F032000F863616E20657220692089
S113114625303278206D6F64650A0D0063616E2068
S11311566572726F7220692025303278206D6F6453
S1131166650A0D004552524F522E2E4552524F5289
S11311762E2E2E4C4F4F504241434B204E4F54205F
S1131186574F524B494E47006173646661737364EB
S1131196660A0D0052583A2025640A0D004C455340
S11311A645520A0D006C656E2025640A0D00434104
S11311B64E20424520574F524B494E470A0D004395
S11311C6414E204E4F5420424520574F524B494ED4
S11311D647200A0D004B6F6D6D65722064656E20A5
S11311E66869743F200A0D006C6F6F70796C6F6FBD
S11311F670202564200A0D006D6370207265736586
S113120674004552524F522E2E4552524F522E2E94
S11312162E434F4E464947204E4F5420574F524B6C
S1131226494E4700736773646773677364677364CF
S11312366700706F7274732073657400737069202D
S10B1246656E61626C65000035
S9030000FC
