S01300004E4F44453261746D6567612E737265634A
S1130000C2C00000DFC00000DDC000003BC1000032
S1130010D9C00000D7C00000D5C00000D3C0000084
S1130020D1C00000CFC00000CDC00000CBC0000094
S1130030C9C00000C7C00000C5C00000C3C00000A4
S1130040C1C00000BFC00000BDC00000BBC00000B4
S1130050B9C00000B7C00000B5C00000B3C00000C4
S1130060B1C00000AFC00000ADC00000ABC00000D4
S1130070A9C00000A7C00000A5C00000A3C00000E4
S1130080A1C000009FC000009DC000009BC00000F4
S113009099C0000097C0000095C00000EAC20000AB
S11300A091C000008FC000008DC000008BC0000014
S11300B089C0000087C0000085C0000083C0000024
S11300C081C000007FC000007DC000007BC0000034
S11300D079C0000077C0000075C0000073C0000044
S11300E071C000005703A903A903A903A903A90325
S11300F0A903A9035703A903A903A903A903A903EE
S1130100A903A9035903A903A903A903A903A903DB
S1130110A903A903A903A903A903A903A903A9037B
S1130120A903A9035903A903A903A903A903A903BB
S1130130A903A903A903A903A903A903A903A9035B
S1130140A903A903A503A903A903A903A903A9034F
S1130150A903A9038203A903A903A903A903A90362
S1130160A903A903A903A903A903A903A903A9032B
S1130170A903A9037603A903A903A903A903A9034E
S1130180A903A903940311241FBECFEFD1E2DEBF5C
S1130190CDBF00E00CBF13E0A0E0B2E0E6EDF0E17B
S11301A000E00BBF02C007900D92AC35B107D9F740
S11301B023E0ACE5B3E001C01D92A837B207E1F734
S11301C0BCD087C71DCFECE7F0E0808180668083D8
S11301D0EAE7F0E0808180648083808186FDFDCF42
S11301E0809179000895CF93DF931FD148E660E6AC
S11301F080E634D141E063E08BE230D140E060EE50
S11302008FE02CD18EE0FFD01F928F93C7E0D2E015
S1130210DF93CF932CD38CE2F6D01F928F93DF938E
S1130220CF9325D38DE2EFD01F928F938CE192E090
S11302309F938F931CD38EE0E6D0807E2DB73EB77C
S1130240245F3F4F0FB6F8943EBF0FBE2DBF8823E7
S113025051F084E392E09F938F9309D30F900F9012
S113026081E090E002C080E090E0DF91CF910895BA
S113027040E061E08CE2F2D081E080935C0380E0B6
S113028090E008951F920F920FB60F9211240BB6AF
S11302900F922F933F934F935F936F937F938F931B
S11302A09F93AF93BF93EF93FF93E2DF8EE792E0C8
S11302B0F1D2FF91EF91BF91AF919F918F917F9177
S11302C06F915F914F913F912F910F900BBE0F90C3
S11302D00FBE0F901F90189578949FC10895CF93E7
S11302E0DF9300D0CDB7DEB790E599831A828B8374
S11302F063E0CE0101969BD10F900F900F90DF9198
S1130300CF91089560DFEDE5F3E08083938122814E
S1130310238330E0290F311D91819283290F311DF0
S11303208183A901480F511DCA0199230CF4039636
S113033095958795959587950895F8948098E9E61D
S1130340F0E080818083EA9A529887E690E02AD28E
S113035039D16BD048DF892B41F489E892E09F932F
S11303608F9385D20F900F9007C08AE992E09F93F4
S11303708F937DD20F900F9080EB92E09F938F9399
S113038076D2AADFECD083EC92E09F938F936FD266
S11303900F900F900F900F9005ED12E0CFEED2E08A
S11303A08FEF9DDFAFDF90E090936B0380936A0340
S11303B020916103309162038217930789F3892B9B
S11303C029F41F930F9353D20F900F9080916A03D7
S11303D090916B039093620380936103DF93CF93B7
S11303E046D20F900F90DCCF80E090E00DD180ECEE
S11303F005D18FE193E00197F1F700C0000081E09F
S113040090E002C10895CF93C82F80E090E0FCD023
S113041083E0F4D08C2FF2D080E0F0D0C82F81E0BC
S113042090E0F2D08C2FCF910895CCD0DDDF8DE019
S113043093E09F938F931BD28EE0E5DF807E0F9035
S11304400F90803849F087E193E09F938F930FD208
S11304500F900F9081E0089580E008951F93CF934B
S1130460DF93182FD62FC42F80E090E0CDD085E005
S1130470C5D0812FC3D08D2FC1D08C2FBFD081E0A8
S113048090E0C2D0DF91CF911F910895E2E0F1E0B6
S113049080818F7B80838FE193E00197F1F700C027
S11304A000008081806480830895882319F081305E
S11304B039F00895E2E0F1E080818D7F8083089532
S11304C0E2E0F1E08081826080830895CF93DF933E
S11304D0E2E0F1E090819F7D908390819860908329
S11304E0AFEEB0E01197F1F700C00000A6E0B1E074
S11304F0CC919081977F9083EFEEF0E03197F1F704
S113050000C00000DC918111C1DFE2E0F1E08081F4
S1130510806280838C2F90E09D2BDF91CF91089592
S1130520CF93DF9380E0C1DF84E6D9DE80E0CEDFC5
S1130530EC0101C0EC012FEF83EF91E021508040EA
S11305409040E1F700C0000080E0C0DF8C179D07F9
S113055089F79CDF80E0C3DEDF91CF910895E1E06D
S1130560F1E0808180618083A2E0B1E08C918061C0
S11305708C9380818260808380818062808380818B
S11305808860808380818064808380DFE7E0F1E09D
S113059080818E7F808380818D7F808380818B7F2B
S11305A080838081877F808380818F7E8083808128
S11305B08F7D808380818F7B808380818F77808310
S11305C0AFCF089589E393E09F938F9350D184B183
S11305D0876884B9239887E493E09F938F9347D1E6
S11305E081E58CBD81E593E09F938F9340D10F907B
S11305F00F900F900F900F900F9008958EBD0DB433
S113060007FEFDCF8EB508958130910511F42F9A20
S11306100895892B09F42F9808958CE08093B800ED
S11306208FEF8093BB0084E08093BC000895DC01CD
S1130630ECEBF0E0908190FDFDCF609365038C912D
S11306408093660380FD0CC0623050F0FD0131964A
S1130650A7E6B3E081E091919D938F5F6813FBCF90
S11306601092640388EF8093060285EA8093BC00AD
S113067008951F920F920FB60F9211240BB60F928A
S11306802F933F938F939F93AF93BF93EF93FF93D6
S1130690E091B9008E2F90E0FC013897E135F10527
S11306A008F057C08827EE58FF4F8F4F8EC0109226
S11306B06303E091630380916503E81770F481E0BC
S11306C08E0F80936303F0E0EA59FC4F808180939E
S11306D0BB0085E88093BC0043C0809164038160C3
S11306E08093640384E98093BC003AC0E09163037F
S11306F081E08E0F809363038091BB00F0E0EA59A0
S1130700FC4F80832091630330E08091650390E087
S113071001972817390724F485EC8093BC0020C086
S113072085E88093BC001CC08091BB00E09163030A
S1130730F0E0EA59FC4F80838091640381608093E8
S1130740640384E98093BC000BC085EA8093BC00F9
S113075007C08091B9008093060284E08093BC00B6
S1130760FF91EF91BF91AF919F918F913F912F9105
S11307700F900BBE0F900FBE0F901F901895E0ECDA
S1130780F0E0908195FFFDCF8093C60080E090E07B
S11307900895E0ECF0E080818823ECF78091C600B6
S11307A090E008959093C5008093C40088E18093FD
S11307B0C100E2ECF0E088E0808386E0808369ECAD
S11307C073E08FEB93E009C00895EE0FFF1F881FBD
S11307D08BBF0790F691E02D19940F931F93CF933D
S11307E0DF93009731F46115710519F480E090E00E
S11307F039C08B01EC016EE070E081E090E077D2CB
S1130800FC01892B99F380E883830115110571F0AC
S11308101387028781E8838380916E0390916F032D
S1130820892B21F4F0936F03E0936E032097C9F0B2
S1130830D187C08783818260838380917003909184
S11308407103892B71F4F0937103E0937003809129
S1130850720390917303892B21F4F0937303E09353
S11308607203CF01DF91CF911F910F910895CF9320
S1130870DF93CDB7DEB7AE014A5F5F4FFA016191F6
S11308807191AF01809170039091710333D0DF9126
S1130890CF9108950F931F93CF93DF93E09170034B
S11308A0F0917103238121FF1BC08C01D0E0C0E0D3
S11308B0F80181918F016091700370917103DB01E4
S11308C01896ED91FC911997882331F01995892B8D
S11308D079F3DFEFCFEFECCF8AE01995892B19F08C
S11308E08FEF9FEF02C08D2F9C2FDF91CF911F912F
S11308F00F9108952F923F924F925F926F927F9241
S11309008F929F92AF92BF92CF92DF92EF92FF921B
S11309100F931F93CF93DF93CDB7DEB72B970FB60B
S1130920F894DEBF0FBECDBF6C017B018A01FC01D0
S113093017821682838181FFBFC1CE0101963C01DB
S1130940F6019381F70193FD859193FF81917F01D6
S1130950882309F4ADC1853239F493FD859193FF61
S113096081917F01853221F4B60190E018D3E8CF5C
S1130970912C212C312CFFE1F315D8F08B3279F036
S113098038F4803279F08332A1F4232D20611DC024
S11309908D3261F0803369F4232D216016C0832DDC
S11309A08260382EE32DE4603E2E2AC0F32DF860D9
S11309B01DC037FC2DC020ED280F2A3040F08E32A8
S11309C0B9F436FC75C1232D2064322E19C036FECD
S11309D006C08AE0989E200D1124922E11C0EAE0F0
S11309E02E9E200D1124222EF32DF0623F2E08C0DE
S11309F08C3621F4832D8068382E02C0883641F469
S1130A00F70193FD859193FF81917F018111B3CF0C
S1130A10982F9F7D9554933028F40C5F1F4F9FE3CC
S1130A2099830DC0833631F0833771F0833509F033
S1130A3055C020C0F801808189830E5F1F4F882430
S1130A408394912C530112C02801F2E04F0E511CE3
S1130A50F801A080B18036FE03C0692D70E002C0A9
S1130A606FEF7FEFC50190D24C018201F32DFF7728
S1130A703F2E15C0280122E0420E511CF801A0802F
S1130A80B18036FE03C0692D70E002C06FEF7FEFC6
S1130A90C50168D24C01F32DF0683F2E820133FC6E
S1130AA019C0822D90E088169906A0F4B60180E260
S1130AB090E075D22A94F5CFF50137FC859137FE85
S1130AC081915F01B60190E06AD221102A9421E05D
S1130AD0821A91088114910479F7E1C0843611F0E7
S1130AE0893639F5F80137FE07C06081718182814A
S1130AF093810C5F1F4F08C060817181072E000C29
S1130B00880B990B0E5F1F4FF32DFF763F2E97FF37
S1130B1009C090958095709561957F4F8F4F9F4F39
S1130B20F0683F2E2AE030E0A30175D2882E8618A3
S1130B3044C0853731F4232D2F7EB22E2AE030E0D5
S1130B4025C0932D997FB92E8F36C1F018F48835BE
S1130B5079F0AEC0803719F0883721F0A9C0E92FA9
S1130B60E061BE2EB4FE0DC0FB2DF460BF2E09C0A3
S1130B7034FE0AC0292F2660B22E06C028E030E0D9
S1130B8005C020E130E002C020E132E0F801B7FE08
S1130B9007C060817181828193810C5F1F4F06C001
S1130BA06081718180E090E00E5F1F4FA30133D21A
S1130BB0882E8618FB2DFF773F2E36FE0DC0232D81
S1130BC02E7FA22E891458F434FE0BC032FC09C0C7
S1130BD0832D8E7EA82E05C0B82CA32C03C0B82C60
S1130BE001C0B92CA4FE0FC0FE01E80DF11D8081E7
S1130BF0803321F49A2D997EA92E09C0A2FE06C045
S1130C00B394B39404C08A2D867809F0B394A3FCFA
S1130C1010C0A0FE06C0B21480F4280C922C9B18BD
S1130C200DC0B21458F4B60180E290E0B8D1B39488
S1130C30F8CFB21418F42B1802C0982C212CA4FE5F
S1130C400FC0B60180E390E0AAD1A2FE16C0A1FCB9
S1130C5003C088E790E002C088E590E0B6010CC0CC
S1130C608A2D867851F0A1FE02C08BE201C080E299
S1130C70A7FC8DE2B60190E092D1891430F4B6015C
S1130C8080E390E08CD19A94F8CF8A94F301E80D34
S1130C90F11D8081B60190E082D18110F6CF22202F
S1130CA009F44ECEB60180E290E079D12A94F7CFD0
S1130CB0F6018681978102C08FEF9FEF2B960FB6C6
S1130CC0F894DEBF0FBECDBFDF91CF911F910F917E
S1130CD0FF90EF90DF90CF90BF90AF909F908F9058
S1130CE07F906F905F904F903F902F9008950F9357
S1130CF01F93CF93DF93869F8001879F100D969F4C
S1130D00100D1124C8010DD0EC01009721F0A801A9
S1130D1060E070E032D1CE01DF91CF911F910F914D
S1130D2008950F931F93CF93DF938230910510F4AE
S1130D3082E090E0E0917603F091770320E030E0E8
S1130D40A0E0B0E0309719F1408151810281138114
S1130D5048175907C8F08417950769F4109731F0BC
S1130D6012960C93129713961C9327C00093760344
S1130D701093770322C02115310519F04217530748
S1130D8018F49A01BD01EF01DF01F801DBCF211551
S1130D903105F9F0281B390B2430310580F48A81A0
S1130DA09B816115710521F0FB019383828304C04B
S1130DB09093770380937603FE01329644C0FE013C
S1130DC0E20FF31F819391932250310939832883D1
S1130DD03AC02091740330917503232B41F4209180
S1130DE0020230910302309375032093740320911F
S1130DF00002309101022115310541F42DB73EB7AF
S1130E004091040250910502241B350BE0917403B8
S1130E10F0917503E217F307A0F42E1B3F0B28177C
S1130E20390778F0AC014E5F5F4F2417350748F05F
S1130E304E0F5F1F509375034093740381939193F6
S1130E4002C0E0E0F0E0CF01DF91CF911F910F915C
S1130E500895CF93DF93009709F481C0FC01329782
S1130E6013821282A0917603B0917703109781F4D4
S1130E7020813181820F931F209174033091750377
S1130E802817390751F5F0937503E093740367C08D
S1130E90ED0120E030E0CE17DF0740F44A815B81AA
S1130EA09E0141155105F1F0EA01F5CFD383C283C8
S1130EB040815181840F951FC817D90759F488813F
S1130EC09981840F951F0296918380838A819B81E7
S1130ED0938382832115310529F4F0937703E093FA
S1130EE076033DC0E901FB83EA8349915991C40F1C
S1130EF0D51FEC17FD0761F480819181840F951F44
S1130F000296E90199838883828193819B838A83F2
S1130F10E0E0F0E012968D919C911397009719F000
S1130F20FD01DC01F7CF8D919C9111979D012E5FFE
S1130F303F4F820F931F209174033091750328173C
S1130F40390769F4309729F41092770310927603E5
S1130F5002C013821282B0937503A0937403DF91CD
S1130F60CF910895FC010590615070400110D8F7AD
S1130F70809590958E0F9F1F0895DC0101C06D939D
S1130F8041505040E0F70895FC01615070400190D9
S1130F900110D8F7809590958E0F9F1F08950F9399
S1130FA01F93CF93DF93FB01238121FD03C08FEFB8
S1130FB09FEF2CC022FF16C04681578124813581C2
S1130FC04217530744F4A081B1819D012F5F3F4F25
S1130FD0318320838C93268137812F5F3F4F378362
S1130FE0268314C08B01EC01FB010084F185E02D04
S1130FF01995892BE1F6D80116968D919C91179736
S1131000019617969C938E931697CE01DF91CF91FC
S11310101F910F910895FA01AA27283051F1203128
S113102081F1E8946F936E7F6E5F7F4F8F4F9F4F78
S1131030AF4FB1E03ED0B4E03CD0670F781F891FBA
S11310409A1FA11D680F791F8A1F911DA11D6A0F88
S1131050711D811D911DA11D20D009F468943F913B
S11310602AE0269F11243019305D3193DEF6CF013A
S11310700895462F4770405D4193B3E00FD0C9F700
S1131080F6CF462F4F70405D4A3318F0495D31FD6D
S11310904052419302D0A9F7EACFB4E0A6959795C0
S11310A0879577956795BA95C9F700976105710596
S11310B008959B01AC010A2E0694579547953795E0
S11310C02795BA95C9F7620F731F841F951FA01D3A
S10910D00895F894FFCF1F
S11310D6000078032000F863616E206572206920A1
S11310E625303278206D6F64650A0D0063616E20C9
S11310F66572726F7220692025303278206D6F64B4
S1131106650A0D004552524F522E2E4552524F52E9
S11311162E2E2E4C4F4F504241434B204E4F5420BF
S1131126574F524B494E470061736466617373644B
S1131136660A0D0052583A2025640A0D004C4553A0
S113114645520A0D006C656E2025640A0D00494E51
S1131156544552525550540D0043414E20424520A9
S1131166574F524B494E470A0D0043414E204E4FAE
S11311765420424520574F524B494E47200A0D00F2
S11311864B6F6D6D65722064656E206869743F20CF
S11311960A0D004B6F6D6D65722064656E2068697B
S11311A6743F0A0D004C6976657320686176652084
S11311B66265656E20726564756365640A0D006C0C
S11311C6697665732068617665206E6F7420626542
S11311D6656E20726564756365640A0D006D6370DF
S11311E6207265736574004552524F522E2E455235
S11311F6524F522E2E2E434F4E464947204E4F54A1
S113120620574F524B494E470073677364677367A1
S113121673646773646700706F72747320736574A4
S10F12260073706920656E61626C6500E5
S9030000FC
