S00D00004E6F6465312E7372656360
S11300000C94B4010C94D1010C94D1010C94D10141
S11300100C94D1010C94D1010C94D1010C94D10114
S11300200C94D1010C94D1010C94D1010C94D10104
S11300300C94D1010C94D1010C94D1010C94D101F4
S11300400C94D1010C94D1010C94D1010C94D101E4
S11300500C94D1010C94D1010C94D1010C94D101D4
S11300600C94D1010C94D1010C94D1010C94D101C4
S1130070000000000000000000065F5F06000000B2
S11300800007070007070000147F7F147F7F140018
S1130090242E6B6B3A120000466630180C66620020
S11300A0307A4F5D377A48000407030000000000EF
S11300B0001C3E63410000000041633E1C00000040
S11300C0082A3E1C1C3E2A0808083E3E0808000078
S11300D000A0E0600000000008080808080800000C
S11300E000006060000000006030180C060301008E
S11300F03E7F594D7F3E000042427F7F40400000DA
S1130100627359496F660000226349497F360000D3
S1130110181C16137F7F1000276745457D390000A2
S11301203C7E4B4979300000036371190F070000CE
S1130130367F49497F360000064F49693F1E00005B
S113014000006C6C0000000000A0EC6C00000000DB
S1130150081C366341000000141414141414000025
S1130160004163361C080000020351590F060000C9
S11301703E7F415D5D1F1E007C7E13137E7C00006C
S1130180417F7F49497F36001C3E63414163220021
S1130190417F7F41637F1C00417F7F495D41630054
S11301A0417F7F491D0103001C3E6341517372006E
S11301B07F7F08087F7F000000417F7F41000000AF
S11301C0307040417F3F0100417F7F081C7763000E
S11301D0417F7F41406070007F7F060C067F7F0077
S11301E07F7F060C187F7F001C3E6341633E1C002A
S11301F0417F7F49090F06001E3F21717F5E000089
S1130200417F7F19396F460026674D597B320000C4
S113021003417F7F410300007F7F40407F7F0000D8
S11302201F3F60603F1F00007F7F3018307F7F00DA
S113023063771C081C776300074F78784F0700002A
S11302406773594D47637100007F7F41410000008F
S11302500103060C183060000041417F7F0000005C
S1130260080C0603060C0800808080808080808053
S11302700000030704000000207454543C7840003C
S1130280413F7F44447C3800387C44446C2800005F
S1130290307848493F7F4000387C54545C18000053
S11302A0487E7F490302000098BCA4A4F87C0400A3
S11302B0417F7F08047C780000447D7D400000007D
S11302C040C484FD7D000000417F7F10386C4400F1
S11302D000417F7F400000007C7C0C180C7C78007F
S11302E07C7C04047C780000387C44447C38000026
S11302F084FCF8A4243C1800183C24A4F8FC8400D2
S1130300447C78441C180000485C54547424000055
S113031000043E7F442400003C7C40403C7C400080
S11303201C3C60603C1C00003C7C6030607C3C00F9
S1130330446C3810386C44009CBCA0A0FC7C0000C9
S11303404C64745C4C64000008083E774141000032
S113035000000077770000004141773E0808000064
S1130360020301030203010011241FBECFEFD4E0F6
S1130370DEBFCDBF12E0A0E0B1E0EAEDF4E102C0DF
S113038005900D92A830B107D9F722E0A8E0B2E0B9
S113039001C01D92A631B207E1F70E9488020C94B5
S11303A06B0A0C94000085B7806885BF80B78062B3
S11303B080BF80E090E00895843048F48460E0E0F9
S11303C0F4E1808384EA8A95F1F78081089580E0DE
S11303D0089580E00E94DC018093090281E00E947C
S11303E0DC018093080280E090E008950E94D3012C
S11303F087B3887F87BB88B3876088BB0E94E90185
S113040080E090E00895CF9381E00E94DC01C82F42
S113041080E00E94DC01E82F409109024C1798F417
S113042050E02C2F30E0241B350B64E6629FC001A2
S1130430639F900D11246FEF70E0641B750B0E9495
S1130440D605462F13C0C41780F4642F70E02C2FF8
S113045030E0261B370B44E6429FC001439F900DBA
S113046011240E94D605462F01C040E020910802C5
S11304702E1790F430E0F0E0E21BF30B54E65E9F9D
S1130480C0015F9F900D11246FEF70E0621B730B2E
S11304900E94D605762F13C0E21780F4622F70E015
S11304A02E2F30E0261B370B54E6529FC001539F7A
S11304B0900D11240E94D605762F01C070E0642FA0
S11304C080E090E0CF9108950E940302E72F282F47
S11304D0392F613F2CF060312CF020E131E002C073
S11304E02BE031E0E13F2CF0E0312CF02BE131E066
S11304F002C026E131E08EE0860F8D3130F48EE0CB
S1130500870F8D3110F42EE131E0822F932F08955F
S11305108EE190E00E94C9050E94D3010E94F60179
S11305200E94B5050E94E3040E940A030E94E901A7
S113053086E291E09F938F930E9449060E94F60100
S11305400F900F90892B49F48AE391E09F938F9346
S11305500E9449060F900F9008C085E591E09F9393
S11305608F930E9449060F900F900E94D70465E074
S113057081E00E94AA0480E791E00E94A40565E05E
S113058082E00E94AA0480E791E00E94A40564E04E
S113059083E00E94AA048AE791E00E94A40565E032
S11305A084E00E94AA0487E891E00E94A4050F2E2B
S11305B0F0E9EF2EF1E0FF2EF02D08E911E0C0EA9A
S11305C0D1E00E946402D82EC92E0E940A0381E061
S11305D00E94DC011F928F93FF92EF920E944906C2
S11305E080E00E94DC011F928F931F930F930E945F
S11305F04906CF92DF92DF93CF930E9449060E946F
S11306000A038DB79EB70C960FB6F8949EBF0FBE23
S11306108DBFD7CF0F931F93CF93DF930E94F60123
S11306200E946402082F192F20910601223309F435
S113063055C018F4213341F02CC1233309F497C079
S1130640243309F4DEC025C10E94D70464E081E0AC
S11306500E94AA048FEA91E00E94A40564E083E06A
S11306600E94AA048CEB91E00E94A40564E085E05A
S11306700E94AA0489EC91E00E94A40564E087E04A
S11306800E94AA0483ED91E00E94A4052DE58FE762
S113069094E0215080409040E1F700C00000C02F5A
S11306A0D12F17C00E94640221E08631920731F4F1
S11306B082E380930601C6E1D1E011C0EC0181E040
S11306C0CB31D80731F481E380930601CBE1D1E04B
S11306D006C080910601813329F301C0EC010E9418
S11306E0D70464E081E00E94AA048BED91E00E94AB
S11306F0A40564E083E00E94AA0488EE91E00E94CD
S1130700A40564E085E00E94AA0489EC91E00E94BB
S1130710A40564E087E00E94AA0483ED91E00E94AE
S1130720A4059DE52FE784E0915020408040E1F747
S113073000C0000017C00E94640221E086319207C5
S113074031F483E380930601C6E1D1E012C0EC01E9
S113075081E0CB31D80731F481E380930601CBE10A
S1130760D1E007C080910601823329F302C0C82F6B
S1130770D92F0E94D70464E081E00E94AA048BED83
S113078091E00E94A40564E083E00E94AA048CEB3B
S113079091E00E94A40564E085E00E94AA0485EF2C
S11307A091E00E94A40564E087E00E94AA0483ED1E
S11307B091E00E94A4059DE52FE784E0915020403C
S11307C08040E1F700C0000017C00E94640221E0ED
S11307D08631920731F484E380930601C6E1D1E0C7
S11307E012C0EC0181E0CB31D80731F482E380936D
S11307F00601CBE1D1E007C080910601833329F3E0
S113080002C0C82FD92F0E94D70464E081E00E945F
S1130810AA048BED91E00E94A40564E083E00E94A9
S1130820AA048CEB91E00E94A40564E085E00E9498
S1130830AA0489EC91E00E94A40564E087E00E9488
S1130840AA048FEF91E00E94A4059DE52FE784E0C0
S1130850915020408040E1F700C0000015C00E9484
S1130860640221E08631920721F484E38093060137
S113087015C0EC0181E0CB31D80731F483E38093D8
S11308800601CBE1D1E007C080910601843339F33E
S113089002C0C02FD12FC651D14029F40E94D704E1
S11308A081E380930601DF91CF911F910F91089509
S11308B010920B0210920A02E0910901F0910A01D0
S11308C083ED8083E0910901F0910A0188EC808333
S11308D0E0910901F0910A0181E28083E09109012C
S11308E0F0910A011082E0910901F0910A018FE769
S11308F08083E0910901F0910A0182E28083E09112
S11309000901F0910A011082E0910901F0910A01B4
S113091087E0808380E090E00895CF93C82F0E9401
S11309205804C83098F4C0930B02E0910901F09187
S11309300A011082E0910901F0910A0180E18083AB
S1130940E0910901F0910A01C06BC08380E090E05E
S1130950CF910895CF93C62F0E948D04C03198F48F
S11309608C2F880F880F880F80930A02E091090169
S1130970F0910A018F708083E0910901F0910A01DE
S1130980C062C695C08380E090E0CF9108950E9434
S11309908D0480E890E0E0910701F0910801108255
S11309A00197C9F70E94580480E090E00895CF931E
S11309B0C0E08C2F0E94C704CF5FC830D1F780E01D
S11309C090E0CF91089585B7806885BF80B7806235
S11309D080BFE0910901F0910A018EEA8083E091E1
S11309E00901F0910A0181EA8083E0910901F09103
S11309F00A018AED8083E0910901F0910A0182E104
S1130A008083E0910901F0910A0188EC8083E091F0
S1130A100901F0910A0188EA8083E0910901F091CB
S1130A200A018FE38083E0910901F0910A0185EDC9
S1130A308083E0910901F0910A0180E88083E091CC
S1130A400901F0910A0181E88083E0910901F091A4
S1130A500A0180E58083E0910901F0910A0189EDA2
S1130A608083E0910901F0910A0181E28083E091A1
S1130A700901F0910A0180E28083E0910901F0917B
S1130A800A0182E08083E0910901F0910A018BED73
S1130A908083E0910901F0910A0180E38083E09171
S1130AA00901F0910A018DEA8083E0910901F09136
S1130AB00A011082E0910901F0910A0184EA80831D
S1130AC0E0910901F0910A0186EA8083E09109012D
S1130AD0F0910A018FEA8083E0910901F0910A0103
S1130AE080EB8083E0910901F0910A011082E0918A
S1130AF00901F0910A0180E180830E94D7040E94D9
S1130B00580480E090E00895282F30E0F901EE0FBA
S1130B10FF1FEE0FFF1FEE0FFF1FE059F040220FE3
S1130B20331F220F331F220F331F28583040A09148
S1130B300701B091080194919C933196E217F30751
S1130B40B1F780E090E00895CF93DF93EC018881C2
S1130B50882331F021960E94840589918111FBCF6D
S1130B6080E090E0DF91CF91089585B7806885BFDC
S1130B7080B7806280BF80E090E008955D9BFECFE7
S1130B808CB980E090E008955F9BFECF8CB190E03B
S1130B90089590BD89B988E18AB98EE880BD64EC76
S1130BA075E08EEB95E00E94FE05089597FB072EF5
S1130BB016F4009407D077FD09D00E94EA0507FCDB
S1130BC005D03EF4909581959F4F08957095619559
S1130BD07F4F0895AA1BBB1B51E107C0AA1FBB1F6F
S1130BE0A617B70710F0A61BB70B881F991F5A95B5
S1130BF0A9F780959095BC01CD0108950F931F939B
S1130C00CF93DF93009731F46115710519F480E0F7
S1130C1090E03AC08B01EC016EE070E081E090E07E
S1130C200E944008FC01892B91F380E8838301151D
S1130C30110571F01387028781E8838380910C0288
S1130C4090910D02892B21F4F0930D02E0930C0294
S1130C502097C9F0D187C087838182608383809184
S1130C600E0290910F02892B71F4F0930F02E0931E
S1130C700E028091100290911102892B21F4F093BD
S1130C801102E0931002CF01DF91CF911F910F91D8
S1130C900895A0E0B0E0EFE4F6E00C94440AAE015D
S1130CA04B5F5F4FFA0161917191AF0180910E0228
S1130CB090910F020E945F06E2E00C94600AABE0A0
S1130CC0B0E0E5E6F6E00C94340A6C017B018A019D
S1130CD0FC0117821682838181FFCCC1CE0101966B
S1130CE03C01F6019381F70193FD859193FF819176
S1130CF07F01882309F4BAC1853239F493FD8591C3
S1130D0093FF81917F01853229F4B60190E00E941E
S1130D109A09E7CF912C212C312CFFE1F315D8F05F
S1130D208B3279F038F4803279F08332A1F4232DB8
S1130D3020611DC08D3261F0803369F4232D216060
S1130D4016C0832D8260382EE32DE4603E2E2AC027
S1130D50F32DF8601DC037FC2DC020ED280F2A307C
S1130D6040F08E32B9F436FC81C1232D2064322E3A
S1130D7019C036FE06C08AE0989E200D1124922EDA
S1130D8011C0EAE02E9E200D1124222EF32DF062D4
S1130D903F2E08C08C3621F4832D8068382E02C083
S1130DA0883641F4F70193FD859193FF81917F018A
S1130DB08111B3CF982F9F7D9554933028F40C5F05
S1130DC01F4F9FE399830DC0833631F0833771F051
S1130DD0833509F059C021C0F801808189830E5FF1
S1130DE01F4F88248394912C530113C02801F2E0EF
S1130DF04F0E511CF801A080B18036FE03C0692D4E
S1130E0070E002C06FEF7FEFC5010E948F094C01B3
S1130E108201F32DFF773F2E16C0280122E0420EF7
S1130E20511CF801A080B18036FE03C0692D70E02A
S1130E3002C06FEF7FEFC5010E947D094C01F32DC5
S1130E40F0683F2E820133FC1BC0822D90E088168F
S1130E509906B0F4B60180E290E00E949A092A94BF
S1130E60F4CFF50137FC859137FE81915F01B6011E
S1130E7090E00E949A0921102A9421E0821A910894
S1130E808114910471F7E8C0843611F0893641F574
S1130E90F80137FE07C060817181828193810C5F04
S1130EA01F4F08C060817181072E000C880B990BBD
S1130EB00E5F1F4FF32DFF763F2E97FF09C09095CD
S1130EC08095709561957F4F8F4F9F4FF0683F2EAF
S1130ED02AE030E0A3010E94D609882E861845C076
S1130EE0853731F4232D2F7EB22E2AE030E025C041
S1130EF0932D997FB92E8F36C1F018F4883579F087
S1130F00B5C0803719F0883721F0B0C0E92FE0610F
S1130F10BE2EB4FE0DC0FB2DF460BF2E09C034FEFE
S1130F200AC0292F2660B22E06C028E030E005C092
S1130F3020E130E002C020E132E0F801B7FE07C052
S1130F4060817181828193810C5F1F4F06C0608133
S1130F50718180E090E00E5F1F4FA3010E94D609CB
S1130F60882E8618FB2DFF773F2E36FE0DC0232DCD
S1130F702E7FA22E891458F434FE0BC032FC09C013
S1130F80832D8E7EA82E05C0B82CA32C03C0B82CAC
S1130F9001C0B92CA4FE0FC0FE01E80DF11D808133
S1130FA0803321F49A2D997EA92E09C0A2FE06C091
S1130FB0B394B39404C08A2D867809F0B394A3FC47
S1130FC011C0A0FE06C0B21488F4280C922C9B1801
S1130FD00EC0B21460F4B60180E290E00E949A0957
S1130FE0B394F7CFB21418F42B1802C0982C212C08
S1130FF0A4FE10C0B60180E390E00E949A09A2FE0C
S113100017C0A1FC03C088E790E002C088E590E027
S1131010B6010CC08A2D867859F0A1FE02C08BE27D
S113102001C080E2A7FC8DE2B60190E00E949A091B
S1131030891438F4B60180E390E00E949A099A94E6
S1131040F7CF8A94F301E80DF11D8081B60190E099
S11310500E949A098110F5CF222009F442CEB601EC
S113106080E290E00E949A092A94F6CFF6018681E4
S1131070978102C08FEF9FEF2B96E2E10C94500A08
S11310800F931F93CF93DF93869F8001879F100D4B
S1131090969F100D1124C8010E945C08EC01009772
S11310A029F0A80160E070E00E948809CE01DF9178
S11310B0CF911F910F9108950F931F93CF93DF93B7
S11310C08230910510F482E090E0E0911402F091F6
S11310D0150220E030E0A0E0B0E0309719F1408143
S11310E051810281138148175907C8F08417950765
S11310F069F4109731F012960C93129713961C937F
S113110027C0009314021093150222C02115310543
S113111019F04217530718F49A01BD01EF01DF01DA
S1131120F801DBCF21153105F9F0281B390B2430E8
S1131130310580F48A819B816115710521F0FB01E1
S11311409383828304C09093150280931402FE015A
S1131150329644C0FE01E20FF31F81939193225013
S11311603109398328833AC0209112023091130245
S1131170232B41F420910201309103013093130297
S113118020931202209100013091010121153105B3
S113119041F42DB73EB74091040150910501241B41
S11311A0350BE0911202F0911302E217F307A0F459
S11311B02E1B3F0B2817390778F0AC014E5F5F4FA9
S11311C02417350748F04E0F5F1F509313024093C6
S11311D012028193919302C0E0E0F0E0CF01DF912D
S11311E0CF911F910F910895CF93DF93009709F446
S11311F081C0FC01329713821282A0911402B09133
S11312001502109781F420813181820F931F209160
S11312101202309113022817390751F5F093130283
S1131220E093120267C0ED0120E030E0CE17DF0743
S113123040F44A815B819E0141155105F1F0EA01B8
S1131240F5CFD383C28340815181840F951FC81782
S1131250D90759F488819981840F951F0296918347
S113126080838A819B81938382832115310529F4AC
S1131270F0931502E09314023DC0E901FB83EA8375
S113128049915991C40FD51FEC17FD0761F4808172
S11312909181840F951F0296E90199838883828145
S11312A093819B838A83E0E0F0E012968D919C9178
S11312B01397009719F0FD01DC01F7CF8D919C91F4
S11312C011979D012E5F3F4F820F931F20911202B1
S11312D0309113022817390769F4309729F41092D2
S11312E015021092140202C013821282B0931302E8
S11312F0A0931202DF91CF910895FC0105906150F3
S113130070400110D8F7809590958E0F9F1F089517
S1131310DC0101C06D9341505040E0F70895FC0199
S11313206150704001900110D8F7809590958E0F10
S11313309F1F08950F931F93CF93DF93FB01238186
S113134021FD03C08FEF9FEF2CC022FF16C0468102
S11313505781248135814217530744F4A081B18118
S11313609D012F5F3F4F318320838C9326813781EA
S11313702F5F3F4F3783268314C08B01EC01FB01A1
S11313800084F185E02D0995892BE1F6D8011696A4
S11313908D919C911797019617969C938E9316970F
S11313A0CE01DF91CF911F910F910895FA01AA27E1
S11313B0283051F1203181F1E8946F936E7F6E5F94
S11313C07F4F8F4F9F4FAF4FB1E03ED0B4E03CD042
S11313D0670F781F891F9A1FA11D680F791F8A1F25
S11313E0911DA11D6A0F711D811D911DA11D20D08C
S11313F009F468943F912AE0269F11243019305D46
S11314003193DEF6CF010895462F4770405D419336
S1131410B3E00FD0C9F7F6CF462F4F70405D4A3383
S113142018F0495D31FD4052419302D0A9F7EACF4B
S1131430B4E0A6959795879577956795BA95C9F77A
S113144000976105710508959B01AC010A2E06946D
S11314505795479537952795BA95C9F7620F731F26
S1131460841F951FA01D08952F923F924F925F9263
S11314706F927F928F929F92AF92BF92CF92DF92A0
S1131480EF92FF920F931F93CF93DF93CDB7DEB705
S1131490CA1BDB0B0FB6F894DEBF0FBECDBF099499
S11314A02A88398848885F846E847D848C849B84F0
S11314B0AA84B984C884DF80EE80FD800C811B81FE
S11314C0AA81B981CE0FD11D0FB6F894DEBF0FBE2D
S10D14D0CDBFED010895F894FFCF9D
S11314DA00001602200030001200104C4546540049
S11314EA524947485400444F574E005550004E4500
S11314FA555452414C002D2D2D2D54494E4720460A
S113150A554E4B2D2D2D2D0A0D002D2D2D2D4A6FA7
S113151A79737469636B20776F726B696E672D2DAB
S113152A2D2D0A0D002D2D2D2D4A6F7973746963A3
S113153A6B206572726F7221212D2D2D2D0A0D00DB
S113154A50696E6720506F6E67005072657373201E
S113155A427574746F6E00746F20737461727400D0
S113156A783B2025640A0D00793B2025640A0D0086
S113157A726574746E696E673A2025730A0D002ABF
S113158A2053746172742067616D65002020446978
S113159A66666963756C74790020204F7074696F8C
S11315AA6E730020204D75736963002020537461A3
S11315BA72742067616D65002A20446966666963EE
S11315CA756C7479002A204F7074696F6E73002ADF
S10B15DA204D757369630000E4
S9030000FC
