:100000000C94B4010C94EA020C94D1010C94D1012B
:100010000C94D1010C94D1010C94D1010C94D10118
:100020000C94D1010C94D1010C94D1010C94D10108
:100030000C94D1010C94D1010C94D1010C94D101F8
:100040000C94D1010C94D1010C94D1010C94D101E8
:100050000C94D1010C94D1010C94D1010C94D101D8
:100060000C94D1010C94D1010C94D1010C94D101C8
:10007000000000000000000000065F5F06000000B6
:100080000007070007070000147F7F147F7F14001C
:10009000242E6B6B3A120000466630180C66620024
:1000A000307A4F5D377A48000407030000000000F3
:1000B000001C3E63410000000041633E1C00000044
:1000C000082A3E1C1C3E2A0808083E3E080800007C
:1000D00000A0E06000000000080808080808000010
:1000E00000006060000000006030180C0603010092
:1000F0003E7F594D7F3E000042427F7F40400000DE
:10010000627359496F660000226349497F360000D7
:10011000181C16137F7F1000276745457D390000A6
:100120003C7E4B4979300000036371190F070000D2
:10013000367F49497F360000064F49693F1E00005F
:1001400000006C6C0000000000A0EC6C00000000DF
:10015000081C366341000000141414141414000029
:10016000004163361C080000020351590F060000CD
:100170003E7F415D5D1F1E007C7E13137E7C000070
:10018000417F7F49497F36001C3E63414163220025
:10019000417F7F41637F1C00417F7F495D41630058
:1001A000417F7F491D0103001C3E63415173720072
:1001B0007F7F08087F7F000000417F7F41000000B3
:1001C000307040417F3F0100417F7F081C77630012
:1001D000417F7F41406070007F7F060C067F7F007B
:1001E0007F7F060C187F7F001C3E6341633E1C002E
:1001F000417F7F49090F06001E3F21717F5E00008D
:10020000417F7F19396F460026674D597B320000C8
:1002100003417F7F410300007F7F40407F7F0000DC
:100220001F3F60603F1F00007F7F3018307F7F00DE
:1002300063771C081C776300074F78784F0700002E
:100240006773594D47637100007F7F414100000093
:100250000103060C183060000041417F7F00000060
:10026000080C0603060C0800808080808080808057
:100270000000030704000000207454543C78400040
:10028000413F7F44447C3800387C44446C28000063
:10029000307848493F7F4000387C54545C18000057
:1002A000487E7F490302000098BCA4A4F87C0400A7
:1002B000417F7F08047C780000447D7D4000000081
:1002C00040C484FD7D000000417F7F10386C4400F5
:1002D00000417F7F400000007C7C0C180C7C780083
:1002E0007C7C04047C780000387C44447C3800002A
:1002F00084FCF8A4243C1800183C24A4F8FC8400D6
:10030000447C78441C180000485C54547424000059
:1003100000043E7F442400003C7C40403C7C400084
:100320001C3C60603C1C00003C7C6030607C3C00FD
:10033000446C3810386C44009CBCA0A0FC7C0000CD
:100340004C64745C4C64000008083E774141000036
:1003500000000077770000004141773E0808000068
:10036000020301030203010011241FBECFEFD4E0FA
:10037000DEBFCDBF12E0A0E0B1E0EEE6F5E102C0E5
:1003800005900D92AC30B107D9F722E0ACE0B2E0B5
:1003900001C01D92AF31B207E1F70E9401040C9435
:1003A000B50A0C94000085B7806885BF80B780626D
:1003B00080BFBA9880E090E00895843048F484606B
:1003C000E0E0F4E1808384EA8A95F1F78081089582
:1003D00080E008950E94DB0448E660E680E60E9423
:1003E000180541E063E08BE20E94180540E060EEF2
:1003F0008FE00E9418058EE00E94C404807E59F0B0
:100400008AE091E09F938F930E949A060F900F903D
:1004100081E090E0089580E090E0089580E30E94FC
:10042000C40484FD05C085FD06C080E090E0089509
:100430008FEF9FEF08958EEF9FEF089580E30E9466
:10044000C40486958695869591E08927817090E011
:1004500008950F931F93CF938C010E941E02892B46
:1004600009F43FC0F80160817181769567957695B2
:1004700067957695679581E30E94F104F8016081A4
:100480007181660F771F62957295707F7627607F06
:10049000762782E30E94F10460E083E40E94F10485
:1004A00060E084E40E94F104F801628185E30E9427
:1004B000F104F8018281882371F0C0E0F801EC0FAB
:1004C000F11D638186E38C0F0E94F104CF5FF80178
:1004D0008281C81798F381E80E94090580E090E0C6
:1004E00007C00E940E02990F990B892F990F990B43
:1004F000CF911F910F9108959F92AF92BF92CF928B
:10050000DF92EF92FF920F931F93CF93DF93CDB7BC
:10051000DEB72B970FB6F894DEBF0FBECDBF5C01E0
:10052000FE0131968BE0DF011D928A95E9F78091FB
:100530000C02813071F581E60E94C404C82E82E667
:100540000E94C404829586958770D12CCC0CDD1C4A
:10055000CC0CDD1CCC0CDD1CC82A85E60E94C40432
:10056000082F0F7099F07E01B4E0EB0EF11C0F2EF6
:10057000F6E69F2EF02D900E16E6812F0E94C40401
:10058000F70181937F011F5F1911F7CF10920C02C1
:1005900003C000E0C12CD12CDA82C9820B838BE02E
:1005A000FE013196D50101900D928A95E1F7C501C2
:1005B0002B960FB6F894DEBF0FBECDBFDF91CF9163
:1005C0001F910F91FF90EF90DF90CF90BF90AF9071
:1005D0009F9008951F920F920FB60F9211242F93A0
:1005E0003F934F935F936F937F938F939F93AF93BB
:1005F000BF93EF93FF9340E061E08CE20E94180507
:1006000081E080930C02FF91EF91BF91AF919F9198
:100610008F917F916F915F914F913F912F910F90AB
:100620000FBE0F901F90189580E00E94DD0180930F
:100630000E0281E00E94DD0180930D0280E090E0D7
:1006400008950E94D30187B3887F87BB88B38760F2
:1006500088BB0E94140380E090E008951F93CF931D
:10066000DF9300D000D01F92CDB7DEB781E00E94AB
:10067000DD01182F80E00E94DD01E82F40910E027D
:10068000411798F450E0212F30E0241B350B64E62D
:10069000629FC001639F900D11246FEF70E0641B97
:1006A000750B0E942706262F13C0141780F4642FA1
:1006B00070E0212F30E0261B370B44E6429FC0013B
:1006C000439F900D11240E942706262F01C020E091
:1006D00040910D024E1790F450E0F0E0E41BF50B52
:1006E00034E63E9FC0013F9F900D11246FEF70E0F4
:1006F000641B750B0E942706362F13C0E41780F485
:10070000642F70E04E2F50E0461B570B34E6349FA9
:10071000C001359F900D11240E942706362F01C07D
:1007200030E04B815C816D8170E080E090E00F9063
:100730000F900F900F900F90DF91CF911F91089520
:10074000CF93DF93CDB7DEB72A970FB6F894DEBF0D
:100750000FBECDBF0E942E0359876A87532F89850C
:100760009A85233D34F02E323CF086E391E041E05F
:1007700003C081E391E042E0533D34F05E323CF04F
:1007800081E491E043E003C08CE391E044E05CE26B
:10079000520F593538F45CE2530F593518F484E49C
:1007A00091E040E09D838C83582F6D8170E080E064
:1007B00090E02A960FB6F894DEBF0FBECDBFDF9152
:1007C000CF910895CF93DF9382E00E94DD01C82F7F
:1007D00083E00E94DD01D82F24E62C9FC001112464
:1007E000EFEFF0E0BF010E942706362F2D9FC001DA
:1007F0001124BF010E942706962F832FDF91CF91EE
:100800000895CF93DF93CDB7DEB76B970FB6F8940B
:10081000DEBF0FBECDBFF8948BB780648BBF85B7AA
:1008200085BF8A988EE190E00E941A060E94D3014B
:100830000E94F1050E94DB040E9421030E9406062B
:100840000E9414030E94EA01892B79F48CE491E060
:100850009F938F930E949A0681E090E09A83898308
:1008600088E08B830F900F9008C08DE591E09F93F7
:100870008F930E949A060F900F900E942103892B5C
:1008800049F483E791E09F938F930E949A060F901B
:100890000F9008C08EE891E09F938F930E949A0674
:1008A0000F900F900E94B50565E081E00E948805D9
:1008B00089EA91E00E94E00565E082E00E948805F7
:1008C00089EA91E00E94E00564E083E00E948805E7
:1008D00083EB91E00E94E00565E084E00E948805DA
:1008E00080EC91E00E94E00589EC91E09F938F936A
:1008F0000E949A0678940F900F900F2EFDEDEF2E28
:10090000F1E0FF2EF02D0E94A0032F8B0E94E20346
:10091000182FCE0101960E9429021F921F93FF9269
:10092000EF920E949A068F898C831D83CE010196D7
:100930000E942902CE010C960E947C028F8590E0D5
:100940009093100280930F02888990E09093130295
:1009500080931202CE0101960E9429020F900F90FF
:100960000F900F90D0CF80E090E00E94FD0580ECCA
:100970000E94F80585EF90E00197F1F700C081E053
:1009800090E00E94FD050895CF93C82F80E090E08D
:100990000E94FD0583E00E94F8058C2F0E94F80557
:1009A00080E00E94F805C82F81E090E00E94FD05DC
:1009B0008C2FCF9108950E94F1050E94B3048EE020
:1009C0000E94C404807E803851F08AEE91E09F93AB
:1009D0008F930E949A060F900F9081E0089580E017
:1009E0000895CF93DF93D82FC62F80E090E00E9428
:1009F000FD0582E00E94F8058D2F0E94F8058C2FDE
:100A00000E94F80581E090E00E94FD05DF91CF9102
:100A10000895CF93C82F80E090E00E94FD058C2FB1
:100A20000E94F80581E090E00E94FD05CF910895B5
:100A30001F93CF93DF93182FD62FC42F80E090E021
:100A40000E94FD0585E00E94F805812F0E94F805AF
:100A50008D2F0E94F8058C2F0E94F80581E090E010
:100A60000E94FD05DF91CF911F910895109214020D
:100A700010921102E0910801F091090183ED808349
:100A8000E0910801F091090188EC8083E091080170
:100A9000F091090181E28083E0910801F091090160
:100AA0001082E0910801F09109018FE78083E091C5
:100AB0000801F091090182E28083E0910801F09140
:100AC00009011082E0910801F091090187E080831B
:100AD00080E090E00895CF93C82F0E943605C8307B
:100AE00098F4C0931402E0910801F091090110827A
:100AF000E0910801F091090180E18083E091080113
:100B0000F0910901C06BC08380E090E0CF9108951F
:100B1000CF93C62F0E946B05C03198F48C2F880F9D
:100B2000880F880F80931102E0910801F09109016C
:100B30008F708083E0910801F0910901C062C69531
:100B4000C08380E090E0CF9108950E946B0580E81B
:100B500090E0E0910601F091070110820197C9F73A
:100B60000E94360580E090E00895CF93C0E08C2F7E
:100B70000E94A505CF5FC830D1F780E090E0CF910B
:100B8000089590E0FC01EE0FFF1FEE0FFF1FEE0F28
:100B9000FF1FE059F040880F991F880F991F880F99
:100BA000991F88589040A0910601B09107012491A7
:100BB0002C933196E817F907B1F780E090E008959B
:100BC000CF93DF93EC018881882331F021960E9436
:100BD000C10589918111FBCF80E090E0DF91CF9139
:100BE000089587B3806B87BBBE9881E58DB9089562
:100BF0008FB9779BFECF8FB108958130910511F4A5
:100C0000C49A0895892B09F4C498089585B780681B
:100C100085BF80B7806280BF80E090E008955D9BD3
:100C2000FECF8CB980E090E008955F9BFECF8CB141
:100C300090E0089590BD89B988E18AB98EE880BDB9
:100C400065E176E08FE096E00E944F06089597FBFD
:100C5000072E16F4009407D077FD09D00E943B06BA
:100C600007FC05D03EF4909581959F4F08957095AF
:100C700061957F4F0895AA1BBB1B51E107C0AA1FB6
:100C8000BB1FA617B70710F0A61BB70B881F991F2D
:100C90005A95A9F780959095BC01CD0108950F93C1
:100CA0001F93CF93DF93009731F46115710519F409
:100CB00080E090E03AC08B01EC016EE070E081E0F2
:100CC00090E00E948208FC01892B91F380E88383E5
:100CD0000115110571F01387028781E883838091E4
:100CE000150290911602892B21F4F0931602E093DD
:100CF00015022097C9F0D187C087838182608383E2
:100D00008091170290911802892B71F4F0931802C8
:100D1000E09317028091190290911A02892B21F415
:100D2000F0931A02E0931902CF01DF91CF911F9146
:100D30000F910895A0E0B0E0E0EAF6E00C948E0A8E
:100D4000AE014B5F5F4FFA0161917191AF018091EC
:100D50001702909118020E94B006E2E00C94AA0AD1
:100D6000ACE0B0E0E6EBF6E00C947E0A7C016B01AF
:100D70008A01FC0117821682838181FFBDC1CE01E9
:100D800001964C01F7019381F60193FD859193FF44
:100D900081916F01882309F4ABC1853239F493FD49
:100DA000859193FF81916F01853229F4B70190E01D
:100DB0000E94E809E7CF512C312C20E02032A0F42A
:100DC0008B3269F030F4803259F0833269F420615B
:100DD0002CC08D3239F0803339F4216026C0226076
:100DE000246023C0286021C027FD27C030ED380FC4
:100DF0003A3078F426FF06C0FAE05F9E300D1124E9
:100E0000532E13C08AE0389E300D1124332E2062F9
:100E10000CC08E3221F426FD6BC1206406C08C36D6
:100E200011F4206802C0883641F4F60193FD8591E3
:100E300093FF81916F018111C1CF982F9F7D9554B0
:100E4000933028F40C5F1F4FFFE3F9830DC0833606
:100E500031F0833771F0833509F05BC022C0F801AF
:100E6000808189830E5F1F4F44244394512C540189
:100E700015C03801F2E06F0E711CF801A080B1803E
:100E800026FF03C0652D70E002C06FEF7FEFC50144
:100E90002C870E94DD092C0183012C852F77222EBF
:100EA00017C03801F2E06F0E711CF801A080B1800C
:100EB00026FF03C0652D70E002C06FEF7FEFC50114
:100EC0002C870E94CB092C012C852068222E8301BF
:100ED00023FC1BC0832D90E048165906B0F4B701DF
:100EE00080E290E00E94E8093A94F4CFF50127FCF3
:100EF000859127FE81915F01B70190E00E94E8098A
:100F000031103A94F1E04F1A51084114510471F72D
:100F1000E5C0843611F0893639F5F80127FF07C09E
:100F200060817181828193810C5F1F4F08C0608155
:100F30007181072E000C880B990B0E5F1F4F2F76C7
:100F4000722E97FF09C090958095709561957F4F9F
:100F50008F4F9F4F2068722E2AE030E0A4010E943C
:100F6000200AA82EA81844C0853729F42F7EB22E57
:100F70002AE030E025C0F22FF97FBF2E8F36C1F076
:100F800018F4883579F0B4C0803719F0883721F02B
:100F9000AFC02F2F2061B22EB4FE0DC08B2D846008
:100FA000B82E09C024FF0AC09F2F9660B92E06C034
:100FB00028E030E005C020E130E002C020E132E06E
:100FC000F801B7FE07C060817181828193810C5F57
:100FD0001F4F06C06081718180E090E00E5F1F4F5F
:100FE000A4010E94200AA82EA818FB2DFF777F2EAF
:100FF00076FE0BC0372D3E7FA51450F474FE0AC058
:1010000072FC08C0372D3E7E05C0BA2C372D03C0B8
:10101000BA2C01C0B52C34FF0DC0FE01EA0DF11D44
:101020008081803311F4397E09C032FF06C0B39449
:10103000B39404C0832F867809F0B39433FD13C0B2
:1010400030FF06C05A2CB31418F4530C5B18B32CA1
:10105000B31468F4B70180E290E03C870E94E8098D
:10106000B3943C85F5CFB31410F43B1801C0312C78
:1010700034FF12C0B70180E390E03C870E94E8098A
:101080003C8532FF17C031FD03C088E790E002C005
:1010900088E590E0B7010CC0832F867859F031FFC6
:1010A00002C08BE201C080E237FD8DE2B70190E023
:1010B0000E94E809A51438F4B70180E390E00E948B
:1010C000E8095A94F7CFAA94F401EA0DF11D808142
:1010D000B70190E00E94E809A110F5CF332009F490
:1010E00051CEB70180E290E00E94E8093A94F6CF31
:1010F000F7018681978102C08FEF9FEF2C96E2E186
:101100000C949A0A0F931F93CF93DF93869F8001CD
:10111000879F100D969F100D1124C8010E949E08F4
:10112000EC01009729F0A80160E070E00E94D60968
:10113000CE01DF91CF911F910F910895CF93DF934F
:101140008230910510F482E090E0E0911D02F09170
:101150001E0220E030E0C0E0D0E0309711F1408185
:10116000518148175907C0F04817590761F4828127
:101170009381209719F09B838A832BC090931E0242
:1011800080931D0226C02115310519F0421753071F
:1011900018F49A01BE01DF01EF010280F381E02D16
:1011A000DCCF2115310509F1281B390B243031051D
:1011B00090F412968D919C9113976115710521F011
:1011C000FB019383828304C090931E0280931D02CF
:1011D000FD01329644C0FD01E20FF31F819391930C
:1011E000225031092D933C933AC020911B0230913B
:1011F0001C02232B41F42091020130910301309312
:101200001C0220931B022091000130910101211545
:10121000310541F42DB73EB74091040150910501CD
:10122000241B350BE0911B02F0911C02E217F3071F
:10123000A0F42E1B3F0B2817390778F0AC014E5F46
:101240005F4F2417350748F04E0F5F1F50931C0265
:1012500040931B028193919302C0E0E0F0E0CF0144
:10126000DF91CF9108950F931F93CF93DF93009752
:1012700009F48CC0FC0132971382128200911D0286
:1012800010911E020115110581F420813181820F18
:10129000931F20911B0230911C022817390779F502
:1012A000F0931C02E0931B0271C0D80140E050E0B3
:1012B000AE17BF0750F412962D913C911397AD01D4
:1012C0002115310509F1D901F3CF9D01DA013383ED
:1012D000228360817181860F971F8217930769F4BB
:1012E000EC0128813981260F371F2E5F3F4F318354
:1012F00020838A819B8193838283452B29F4F093F9
:101300001E02E0931D0242C01396FC93EE931297C7
:10131000ED01499159919E01240F351FE217F30702
:1013200071F480819181840F951F029611969C9390
:101330008E938281938113969C938E931297E0E013
:10134000F0E0D80112968D919C911397009719F0B7
:10135000F8018C01F6CF8D919C9198012E5F3F4F43
:10136000820F931F20911B0230911C02281739070E
:1013700069F4309729F410921E0210921D0202C0E7
:101380001382128210931C0200931B02DF91CF91F3
:101390001F910F910895FC0105906150704001105C
:1013A000D8F7809590958E0F9F1F0895DC0101C09E
:1013B0006D9341505040E0F70895FC01615070403A
:1013C00001900110D8F7809590958E0F9F1F08957A
:1013D0000F931F93CF93DF93FB01238121FD03C064
:1013E0008FEF9FEF28C022FF16C0468157812481CE
:1013F00035814217530744F4A081B1819D012F5FCD
:101400003F4F318320838C93268137812F5F3F4F5D
:101410003783268310C0EB01092F182F0084F18534
:10142000E02D0995892BE1F68E819F8101969F839E
:101430008E83812F902FDF91CF911F910F9108956F
:10144000FA01AA27283051F1203181F1E8946F93F5
:101450006E7F6E5F7F4F8F4F9F4FAF4FB1E03ED09B
:10146000B4E03CD0670F781F891F9A1FA11D680F39
:10147000791F8A1F911DA11D6A0F711D811D911D6C
:10148000A11D20D009F468943F912AE0269F1124E1
:101490003019305D3193DEF6CF010895462F477045
:1014A000405D4193B3E00FD0C9F7F6CF462F4F70A0
:1014B000405D4A3318F0495D31FD4052419302D0FE
:1014C000A9F7EACFB4E0A6959795879577956795A4
:1014D000BA95C9F700976105710508959B01AC01A4
:1014E0000A2E06945795479537952795BA95C9F7CB
:1014F000620F731F841F951FA01D08952F923F92A6
:101500004F925F926F927F928F929F92AF92BF9213
:10151000CF92DF92EF92FF920F931F93CF93DF93BF
:10152000CDB7DEB7CA1BDB0B0FB6F894DEBF0FBE1C
:10153000CDBF09942A88398848885F846E847D8469
:101540008C849B84AA84B984C884DF80EE80FD806B
:101550000C811B81AA81B981CE0FD11D0FB6F894E1
:0E156000DEBF0FBECDBFED010895F894FFCFA2
:10156E0000001F022000001200104552524F522E52
:10157E002E4552524F522E2E2E4E4F524D414C2032
:10158E004D4F4445204E4F5420574F524B494E47D6
:10159E00004C45465400524947485400444F574E5C
:1015AE00005550004E45555452414C0043414E207B
:1015BE00424520574F524B494E470A0D0043414E6C
:1015CE00204E4F5420424520574F524B494E4720F4
:1015DE000A0D002D2D2D2D4A6F79737469636B20C2
:1015EE00776F726B696E672D2D2D2D0A0D002D2DC7
:1015FE002D2D4A6F79737469636B206572726F72E9
:10160E0021212D2D2D2D0A0D0050696E6720506F52
:10161E006E6700507265737320427574746F6E003E
:10162E00746F207374617274002D2D2D2D54494EDC
:10163E00472046554E4B2D2D2D2D0A0D00536C690E
:10164E006465723A2025640A0D004552524F522E9F
:10165E002E4552524F522E2E2E434F4E4649472064
:0C166E004E4F5420574F524B494E47003E
:00000001FF
