:100000000C94BC010C94D9010C94D9010C94D90125
:100010000C94D9010C94D9010C94D9010C94D901F8
:100020000C94D9010C94D9010C94D9010C94D901E8
:100030000C94D9010C94D9010C94D9010C94D901D8
:100040000C94D9010C94D9010C94D9010C94D901C8
:100050000C94D9010C94D9010C94D9010C94D901B8
:100060000C94D9010C94D9010C94D9010C94D901A8
:100070006503AA03F9033E048304C8040D05520571
:10008000000000000000000000065F5F06000000A6
:100090000007070007070000147F7F147F7F14000C
:1000A000242E6B6B3A120000466630180C66620014
:1000B000307A4F5D377A48000407030000000000E3
:1000C000001C3E63410000000041633E1C00000034
:1000D000082A3E1C1C3E2A0808083E3E080800006C
:1000E00000A0E06000000000080808080808000000
:1000F00000006060000000006030180C0603010082
:100100003E7F594D7F3E000042427F7F40400000CD
:10011000627359496F660000226349497F360000C7
:10012000181C16137F7F1000276745457D39000096
:100130003C7E4B4979300000036371190F070000C2
:10014000367F49497F360000064F49693F1E00004F
:1001500000006C6C0000000000A0EC6C00000000CF
:10016000081C366341000000141414141414000019
:10017000004163361C080000020351590F060000BD
:100180003E7F415D5D1F1E007C7E13137E7C000060
:10019000417F7F49497F36001C3E63414163220015
:1001A000417F7F41637F1C00417F7F495D41630048
:1001B000417F7F491D0103001C3E63415173720062
:1001C0007F7F08087F7F000000417F7F41000000A3
:1001D000307040417F3F0100417F7F081C77630002
:1001E000417F7F41406070007F7F060C067F7F006B
:1001F0007F7F060C187F7F001C3E6341633E1C001E
:10020000417F7F49090F06001E3F21717F5E00007C
:10021000417F7F19396F460026674D597B320000B8
:1002200003417F7F410300007F7F40407F7F0000CC
:100230001F3F60603F1F00007F7F3018307F7F00CE
:1002400063771C081C776300074F78784F0700001E
:100250006773594D47637100007F7F414100000083
:100260000103060C183060000041417F7F00000050
:10027000080C0603060C0800808080808080808047
:100280000000030704000000207454543C78400030
:10029000413F7F44447C3800387C44446C28000053
:1002A000307848493F7F4000387C54545C18000047
:1002B000487E7F490302000098BCA4A4F87C040097
:1002C000417F7F08047C780000447D7D4000000071
:1002D00040C484FD7D000000417F7F10386C4400E5
:1002E00000417F7F400000007C7C0C180C7C780073
:1002F0007C7C04047C780000387C44447C3800001A
:1003000084FCF8A4243C1800183C24A4F8FC8400C5
:10031000447C78441C180000485C54547424000049
:1003200000043E7F442400003C7C40403C7C400074
:100330001C3C60603C1C00003C7C6030607C3C00ED
:10034000446C3810386C44009CBCA0A0FC7C0000BD
:100350004C64745C4C64000008083E774141000026
:1003600000000077770000004141773E0808000058
:10037000020301030203010011241FBECFEFD4E0EA
:10038000DEBFCDBF12E0A0E0B1E0EEE7F7E102C0D2
:1003900005900D92A836B107D9F722E0A8E6B2E0A1
:1003A00001C01D92A637B207E1F70E94B0020C947B
:1003B000BD0B0C94000085B7806885BF80B7806254
:1003C00080BF80E090E00895843048F48460E0E0ED
:1003D000F4E1808384EA8A95F1F78081089580E0D2
:1003E000089580E00E94E4018093690281E00E9408
:1003F000E4018093680280E090E008950E94DB01B0
:1004000087B3887F87BB88B3876088BB0E94F10170
:1004100080E090E008958130910559F08230910597
:1004200079F0892BA9F496B381E08927817090E057
:10043000089586B3869591E08927817090E00895AC
:1004400086B38695869591E08927817090E008951E
:1004500080E090E00895CF9381E00E94E401C82FEE
:1004600080E00E94E401E82F409169024C1798F463
:1004700050E02C2F30E0241B350B64E6629FC00156
:10048000639F900D11246FEF70E0641B750B0E9449
:100490002207462F13C0C41780F4642F70E02C2F5E
:1004A00030E0261B370B44E6429FC001439F900D6E
:1004B00011240E942207462F01C040E020916802CB
:1004C0002E1790F430E0F0E0E21BF30B54E65E9F51
:1004D000C0015F9F900D11246FEF70E0621B730BE2
:1004E0000E942207762F13C0E21780F4622F70E07B
:1004F0002E2F30E0261B370B54E6529FC001539F2E
:10050000900D11240E942207762F01C070E0642F05
:1005100080E090E0CF9108950E942B02E72F282FD2
:10052000392F633D2CF06E322CF020E131E002C017
:100530002BE031E0E33D2CF0EE322CF02BE131E00A
:1005400002C026E131E08CE2860F893530F48CE27E
:10055000870F893510F42EE131E0822F932F089513
:100560008EE190E00E9415070E94DB010E94FE01CF
:100570000E9401070E942F060E9452030E94F1016F
:1005800086E291E09F938F930E949B070E94FE0159
:100590000F900F90892B49F48AE391E09F938F93FA
:1005A0000E949B070F900F9008C085E591E09F93F4
:1005B0008F930E949B070F900F900E94230665E087
:1005C00081E00E94F60580E791E00E94F00665E078
:1005D00082E00E94F60580E791E00E94F00664E068
:1005E00083E00E94F6058AE791E00E94F00665E04C
:1005F00084E00E94F60587E891E00E94F0060F2E45
:10060000F0E9AF2EF1E0BF2EF02D0F2EF2EACF2E43
:10061000F1E0DF2EF02D0F2EF6EBEF2EF1E0FF2EA6
:10062000F02D0EEB11E0C6ECD1E00E948C02982E6A
:10063000892E0E94520380E090E00E940B029F935B
:100640008F93BF92AF920E949B0781E090E00E943F
:100650000B029F938F93DF92CF920E949B0781E0C2
:100660000E94E4011F928F93FF92EF920E949B07DA
:1006700080E00E94E4011F928F931F930F930E94CA
:100680009B078F929F92DF93CF930E949B070E94BC
:1006900052038DB79EB744960FB6F8949EBF0FBE17
:1006A0008DBFC3CF1F93CF93DF930E94FE01E091D4
:1006B00006018E2F90E0FC01F197E830F10508F07B
:1006C0003FC2E85CFF4F0C9436070E94230661E0AE
:1006D00081E00E94F60584ED91E00E94F00661E061
:1006E00083E00E94F60581EE91E00E94F00661E051
:1006F00085E00E94F6058EEE91E00E94F00661E032
:1007000087E00E94F60588EF91E00E94F00623E959
:100710008FEF92E0215080409040E1F700C0000050
:10072000D4E3C2E312C00E948C02EEEDFFEE3197DB
:10073000F1F7F1E086319F0719F4C093060105C077
:100740008B51914011F4D0930601809106018133C1
:1007500051F3F6C10E94230661E081E00E94F60594
:1007600080E092E00E94F00661E083E00E94F605DE
:100770008DE092E00E94F00661E085E00E94F605BF
:100780008EEE91E00E94F00661E087E00E94F6059F
:1007900088EF91E00E94F00683E99FEFE2E081504C
:1007A0009040E040E1F700C00000C5E3D1E313E36F
:1007B0001BC00E948C02EEEDFFEE3197F1F7F1E0E5
:1007C00086319F0719F4109306010EC08B5191409A
:1007D00019F4D093060108C081E090E00E940B025A
:1007E000892B11F4C093060180910601823309F32D
:1007F000A7C10E94230661E081E00E94F60580E027
:1008000092E00E94F00661E083E00E94F60581EE2E
:1008100091E00E94F00661E085E00E94F6058AE121
:1008200092E00E94F00661E087E00E94F60588EF02
:1008300091E00E94F00683E99FEFE2E08150904052
:10084000E040E1F700C00000D2E3C4E312C00E9420
:100850008C02EEEDFFEE3197F1F7F1E086319F0764
:1008600019F4C093060105C08B51914011F4D09347
:10087000060180910601833351F362C10E94230671
:1008800061E081E00E94F60580E092E00E94F006BF
:1008900061E083E00E94F60581EE91E00E94F0069F
:1008A00061E085E00E94F6058EEE91E00E94F00680
:1008B00061E087E00E94F60584E292E00E94F00683
:1008C00083E99FEFE2E081509040E040E1F700C013
:1008D0000000D3E3C1E312C00E948C02EEEDFFEEF4
:1008E0003197F1F7F1E086319F0719F4C0930601C3
:1008F00005C08B51914011F4D093060180910601FF
:10090000843351F31DC10E94230661E081E00E94FF
:10091000F6058CE292E00E94F00661E083E00E941E
:10092000F60583E392E00E94F00661E085E00E9414
:10093000F6058CE392E00E94F00661E087E00E94F9
:10094000F60583E492E00E94F00683E99FEFE2E07F
:1009500081509040E040E1F700C00000D8E3C6E3DA
:1009600012C00E948C02EEEDFFEE3197F1F7F1E03C
:1009700086319F0719F4C093060105C08B51914041
:1009800011F4D093060180910601853351F3D8C04C
:100990000E94230661E081E00E94F6058AE492E06D
:1009A0000E94F00661E083E00E94F60581E592E096
:1009B0000E94F00661E085E00E94F6058CE392E07B
:1009C0000E94F00661E087E00E94F60583E492E071
:1009D0000E94F00683E99FEFE2E081509040E04002
:1009E000E1F700C00000D5E3C7E312C00E948C020B
:1009F000EEEDFFEE3197F1F7F1E086319F0719F444
:100A0000C093060105C08B51914011F4D0930601AB
:100A100080910601863351F393C00E94230661E062
:100A200081E00E94F6058AE492E00E94F00661E00F
:100A300083E00E94F60583E392E00E94F00661E005
:100A400085E00E94F6058AE592E00E94F00661E0EA
:100A500087E00E94F60583E492E00E94F00683E9B5
:100A60009FEFE2E081509040E040E1F700C00000DD
:100A7000D6E3C8E312C00E948C02EEEDFFEE319780
:100A8000F1F7F1E086319F0719F4C093060105C024
:100A90008B51914011F4D093060180910601873368
:100AA00051F34EC00E94230661E081E00E94F605EA
:100AB0008AE492E00E94F00661E083E00E94F6057D
:100AC00083E392E00E94F00661E085E00E94F60573
:100AD0008CE392E00E94F00661E087E00E94F60558
:100AE00081E692E00E94F00683E99FEFE2E0815008
:100AF0009040E040E1F700C00000C1E3D7E315E318
:100B00001BC00E948C02EEEDFFEE3197F1F7F1E091
:100B100086319F0719F4109306010EC08B51914046
:100B200019F4D093060108C081E090E00E940B0206
:100B3000892B11F4C093060180910601883309F3D3
:100B4000DF91CF911F91089510926B0210926A026B
:100B5000E0910901F0910A0183ED8083E0910901A0
:100B6000F0910A0188EC8083E0910901F0910A017B
:100B700081E28083E0910901F0910A011082E09105
:100B80000901F0910A018FE78083E0910901F0915A
:100B90000A0182E28083E0910901F0910A0110824A
:100BA000E0910901F0910A0187E0808380E090E004
:100BB0000895CF93C82F0E94A405C83098F4C0931D
:100BC0006B02E0910901F0910A011082E0910901A4
:100BD000F0910A0180E18083E0910901F0910A011E
:100BE000C06BC08380E090E0CF910895CF93C62F73
:100BF0000E94D905C03198F48C2F880F880F880F78
:100C000080936A02E0910901F0910A018F7080835C
:100C1000E0910901F0910A01C062C695C08380E0AD
:100C200090E0CF9108950E94D90580E890E0E0918E
:100C30000701F091080110820197C9F70E94A405ED
:100C400080E090E00895CF93C0E08C2F0E941306BF
:100C5000CF5FC830D1F780E090E0CF91089585B79D
:100C6000806885BF80B7806280BFE0910901F09104
:100C70000A018EEA8083E0910901F0910A0181EA7C
:100C80008083E0910901F0910A018AED8083E0916F
:100C90000901F0910A0182E18083E0910901F0915C
:100CA0000A0188EC8083E0910901F0910A0188EA49
:100CB0008083E0910901F0910A018FE38083E09144
:100CC0000901F0910A0185ED8083E0910901F0911D
:100CD0000A0180E88083E0910901F0910A0181E82E
:100CE0008083E0910901F0910A0180E58083E09121
:100CF0000901F0910A0189ED8083E0910901F091E9
:100D00000A0181E28083E0910901F0910A0180E209
:100D10008083E0910901F0910A0182E08083E091F3
:100D20000901F0910A018BED8083E0910901F091B6
:100D30000A0180E38083E0910901F0910A018DEAC4
:100D40008083E0910901F0910A011082E09109018C
:100D5000F0910A0184EA8083E0910901F0910A018F
:100D600086EA8083E0910901F0910A018FEA80838D
:100D7000E0910901F0910A0180EB8083E091090183
:100D8000F0910A011082E0910901F0910A0180E1DD
:100D900080830E9423060E94A40580E090E00895CD
:100DA000282F30E0F901EE0FFF1FEE0FFF1FEE0FAF
:100DB000FF1FE058F040220F331F220F331F220F76
:100DC000331F28573040A0910701B091080194913A
:100DD0009C933196E217F307B1F780E090E0089515
:100DE000CF93DF93EC018881882331F021960E9414
:100DF000D00689918111FBCF80E090E0DF91CF9107
:100E0000089585B7806885BF80B7806280BF80E025
:100E100090E008955D9BFECF8CB980E090E008954E
:100E20005F9BFECF8CB190E0089590BD89B988E1B9
:100E30008AB98EE880BD60E177E08AE097E00E94A1
:100E40005007089597FB072E16F4009407D077FDFE
:100E500009D00E943C0707FC05D03EF4909581958F
:100E60009F4F0895709561957F4F0895EE0FFF1F76
:100E70000590F491E02D0994AA1BBB1B51E107C01A
:100E8000AA1FBB1FA617B70710F0A61BB70B881F1A
:100E9000991F5A95A9F780959095BC01CD010895A9
:100EA0000F931F93CF93DF93009731F46115710572
:100EB00019F480E090E03AC08B01EC016EE070E044
:100EC00081E090E00E949209FC01892B91F380E877
:100ED00083830115110571F01387028781E88383ED
:100EE00080916C0290916D02892B21F4F0936D0238
:100EF000E0936C022097C9F0D187C087838182601C
:100F0000838380916E0290916F02892B71F4F0932C
:100F10006F02E0936E028091700290917102892BB2
:100F200021F4F0937102E0937002CF01DF91CF9131
:100F30001F910F910895A0E0B0E0E1EAF7E00C9472
:100F4000960BAE014B5F5F4FFA0161917191AF015A
:100F500080916E0290916F020E94B107E2E00C94C2
:100F6000B20BABE0B0E0E7EBF7E00C94860B6C0162
:100F70007B018A01FC0117821682838181FFCCC12B
:100F8000CE0101963C01F6019381F70193FD859115
:100F900093FF81917F01882309F4BAC1853239F426
:100FA00093FD859193FF81917F01853229F4B601EC
:100FB00090E00E94EC0AE7CF912C212C312CFFE12C
:100FC000F315D8F08B3279F038F4803279F083322F
:100FD000A1F4232D20611DC08D3261F0803369F4AE
:100FE000232D216016C0832D8260382EE32DE4600E
:100FF0003E2E2AC0F32DF8601DC037FC2DC020ED19
:10100000280F2A3040F08E32B9F436FC81C1232DEE
:101010002064322E19C036FE06C08AE0989E200D4C
:101020001124922E11C0EAE02E9E200D1124222EB2
:10103000F32DF0623F2E08C08C3621F4832D80689A
:10104000382E02C0883641F4F70193FD859193FF55
:1010500081917F018111B3CF982F9F7D955493305B
:1010600028F40C5F1F4F9FE399830DC0833631F046
:10107000833771F0833509F059C021C0F8018081B0
:1010800089830E5F1F4F88248394912C530113C0D2
:101090002801F2E04F0E511CF801A080B18036FE0D
:1010A00003C0692D70E002C06FEF7FEFC5010E94A1
:1010B000E10A4C018201F32DFF773F2E16C0280173
:1010C00022E0420E511CF801A080B18036FE03C020
:1010D000692D70E002C06FEF7FEFC5010E94CF0A5B
:1010E0004C01F32DF0683F2E820133FC1BC0822D92
:1010F00090E088169906B0F4B60180E290E00E9474
:10110000EC0A2A94F4CFF50137FC859137FE8191E2
:101110005F01B60190E00E94EC0A21102A9421E0C0
:10112000821A91088114910471F7E8C0843611F095
:10113000893641F5F80137FE07C0608171818281EF
:1011400093810C5F1F4F08C060817181072E000CD6
:10115000880B990B0E5F1F4FF32DFF763F2E97FFE5
:1011600009C090958095709561957F4F8F4F9F4FE7
:10117000F0683F2E2AE030E0A3010E94280B882E61
:10118000861845C0853731F4232D2F7EB22E2AE0F4
:1011900030E025C0932D997FB92E8F36C1F018F419
:1011A000883579F0B5C0803719F0883721F0B0C0A4
:1011B000E92FE061BE2EB4FE0DC0FB2DF460BF2E02
:1011C00009C034FE0AC0292F2660B22E06C028E0CE
:1011D00030E005C020E130E002C020E132E0F8015B
:1011E000B7FE07C060817181828193810C5F1F4FC0
:1011F00006C06081718180E090E00E5F1F4FA30107
:101200000E94280B882E8618FB2DFF773F2E36FE76
:101210000DC0232D2E7FA22E891458F434FE0BC04E
:1012200032FC09C0832D8E7EA82E05C0B82CA32CBD
:1012300003C0B82C01C0B92CA4FE0FC0FE01E80DFC
:10124000F11D8081803321F49A2D997EA92E09C049
:10125000A2FE06C0B394B39404C08A2D867809F028
:10126000B394A3FC11C0A0FE06C0B21488F4280CED
:10127000922C9B180EC0B21460F4B60180E290E08C
:101280000E94EC0AB394F7CFB21418F42B1802C0E2
:10129000982C212CA4FE10C0B60180E390E00E949F
:1012A000EC0AA2FE17C0A1FC03C088E790E002C0D0
:1012B00088E590E0B6010CC08A2D867859F0A1FE31
:1012C00002C08BE201C080E2A7FC8DE2B60190E093
:1012D0000E94EC0A891438F4B60180E390E00E9481
:1012E000EC0A9A94F7CF8A94F301E80DF11D8081FE
:1012F000B60190E00E94EC0A8110F5CF222009F49B
:1013000042CEB60180E290E00E94EC0A2A94F6CF29
:10131000F6018681978102C08FEF9FEF2B96E2E165
:101320000C94A20B0F931F93CF93DF93869F8001A2
:10133000879F100D969F100D1124C8010E94AE09C1
:10134000EC01009729F0A80160E070E00E94DA0A41
:10135000CE01DF91CF911F910F9108950F931F93AD
:10136000CF93DF938230910510F482E090E0E0911A
:101370007402F091750220E030E0A0E0B0E0309718
:1013800019F1408151810281138148175907C8F032
:101390008417950769F4109731F012960C93129701
:1013A00013961C9327C0009374021093750222C0F9
:1013B0002115310519F04217530718F49A01BD01A0
:1013C000EF01DF01F801DBCF21153105F9F0281B12
:1013D000390B2430310580F48A819B8161157105B8
:1013E00021F0FB019383828304C090937502809364
:1013F0007402FE01329644C0FE01E20FF31F819396
:10140000919322503109398328833AC02091720286
:1014100030917302232B41F420910201309103019A
:1014200030937302209372022091000130910101E8
:101430002115310541F42DB73EB74091040150917B
:101440000501241B350BE0917202F0917302E21743
:10145000F307A0F42E1B3F0B2817390778F0AC01D7
:101460004E5F5F4F2417350748F04E0F5F1F5093B4
:101470007302409372028193919302C0E0E0F0E026
:10148000CF01DF91CF911F910F910895CF93DF93FB
:10149000009709F481C0FC01329713821282A09157
:1014A0007402B0917502109781F420813181820F0E
:1014B000931F20917202309173022817390751F55A
:1014C000F0937302E093720267C0ED0120E030E018
:1014D000CE17DF0740F44A815B819E01411551051B
:1014E000F1F0EA01F5CFD383C28340815181840FAB
:1014F000951FC817D90759F488819981840F951FC2
:101500000296918380838A819B81938382832115B4
:10151000310529F4F0937502E09374023DC0E901AE
:10152000FB83EA8349915991C40FD51FEC17FD073E
:1015300061F480819181840F951F0296E90199835E
:101540008883828193819B838A83E0E0F0E0129616
:101550008D919C911397009719F0FD01DC01F7CF55
:101560008D919C9111979D012E5F3F4F820F931F8C
:1015700020917202309173022817390769F430976D
:1015800029F4109275021092740202C01382128222
:10159000B0937302A0937202DF91CF910895FC0182
:1015A0000590615070400110D8F7809590958E0F8E
:1015B0009F1F0895DC0101C06D9341505040E0F73A
:1015C0000895FC016150704001900110D8F780959A
:1015D00090958E0F9F1F08950F931F93CF93DF93C6
:1015E000FB01238121FD03C08FEF9FEF2CC022FF61
:1015F00016C046815781248135814217530744F430
:10160000A081B1819D012F5F3F4F318320838C9357
:10161000268137812F5F3F4F3783268314C08B018C
:10162000EC01FB010084F185E02D0995892BE1F6A1
:10163000D80116968D919C911797019617969C93B9
:101640008E931697CE01DF91CF911F910F91089540
:10165000FA01AA27283051F1203181F1E8946F93E3
:101660006E7F6E5F7F4F8F4F9F4FAF4FB1E03ED089
:10167000B4E03CD0670F781F891F9A1FA11D680F27
:10168000791F8A1F911DA11D6A0F711D811D911D5A
:10169000A11D20D009F468943F912AE0269F1124CF
:1016A0003019305D3193DEF6CF010895462F477033
:1016B000405D4193B3E00FD0C9F7F6CF462F4F708E
:1016C000405D4A3318F0495D31FD4052419302D0EC
:1016D000A9F7EACFB4E0A695979587957795679592
:1016E000BA95C9F700976105710508959B01AC0192
:1016F0000A2E06945795479537952795BA95C9F7B9
:10170000620F731F841F951FA01D08952F923F9293
:101710004F925F926F927F928F929F92AF92BF9201
:10172000CF92DF92EF92FF920F931F93CF93DF93AD
:10173000CDB7DEB7CA1BDB0B0FB6F894DEBF0FBE0A
:10174000CDBF09942A88398848885F846E847D8457
:101750008C849B84AA84B984C884DF80EE80FD8059
:101760000C811B81AA81B981CE0FD11D0FB6F894CF
:0E177000DEBF0FBECDBFED010895F894FFCF90
:10177E0000007602200031001200104C4546540045
:10178E00524947485400444F574E005550004E455D
:10179E00555452414C002D2D2D2D54494E47204667
:1017AE00554E4B2D2D2D2D0A0D002D2D2D2D4A6F05
:1017BE0079737469636B20776F726B696E672D2D09
:1017CE002D2D0A0D002D2D2D2D4A6F797374696301
:1017DE006B206572726F7221212D2D2D2D0A0D0039
:1017EE0050696E6720506F6E67005072657373207C
:1017FE00427574746F6E00746F207374617274002E
:10180E00486F797265206B6E6170703A2025642C7A
:10181E00200056656E73747265206B6E6170703A3F
:10182E002025642C2000783A202564202C00793A5B
:10183E00202564202C005265746E696E673A20254F
:10184E00730A0D002A2053746172742067616D65EE
:10185E00002020446966666963756C7479002020E7
:10186E004F7074696F6E730020204D75736963003D
:10187E00202053746172742067616D65002A2044C4
:10188E006966666963756C7479002A204F70746995
:10189E006F6E73002A204D75736963002A204561AF
:1018AE0073790020204D656469756D0020204861B4
:1018BE0072640020204261636B00202045617379C1
:1018CE00002A204D656469756D002A204861726496
:0818DE00002A204261636B0047
:00000001FF
