S00D00004E6F6465312E7372656360
S11300000C94D1010C94F9020C94EE010C94EE01C1
S11300100C94EE010C94EE010C94EE010C94EE01A0
S11300200C94EE010C94EE010C94EE010C94EE0190
S11300300C94EE010C94EE010C94EE010C94EE0180
S11300400C94EE010C94EE010C94EE010C94EE0170
S11300500C94EE010C94EE010C94EE010C94EE0160
S11300600C94EE010C94EE010C94EE010C94EE0150
S113007029054806C5065707BE072C088308F0085B
S11300805C09C0092B0A820AEF0A530BBE0B2A0C27
S1130090810C541154115411541154115411E50C80
S11300A0A50D650EB70E380FE20F0000000000002A
S11300B0000000065F5F0600000000070700070756
S11300C00000147F7F147F7F1400242E6B6B3A1280
S11300D00000466630180C666200307A4F5D377A4D
S11300E048000407030000000000001C3E634100B8
S11300F000000041633E1C000000082A3E1C1C3E18
S11301002A0808083E3E0808000000A0E06000003D
S113011000000808080808080000000060600000EB
S113012000006030180C060301003E7F594D7F3EED
S1130130000042427F7F40400000627359496F666D
S11301400000226349497F360000181C16137F7F84
S11301501000276745457D3900003C7E4B497930C6
S11301600000036371190F070000367F49497F3689
S11301700000064F49693F1E000000006C6C00003F
S1130180000000A0EC6C00000000081C3663410075
S113019000001414141414140000004163361C08E5
S11301A00000020351590F0600003E7F415D5D1FB0
S11301B01E007C7E13137E7C0000417F7F49497FB3
S11301C036001C3E634141632200417F7F41637FCF
S11301D01C00417F7F495D416300417F7F491D01D0
S11301E003001C3E6341517372007F7F08087F7FC8
S11301F0000000417F7F41000000307040417F3F9C
S11302000100417F7F081C776300417F7F4140608C
S113021070007F7F060C067F7F007F7F060C187FAF
S11302207F001C3E6341633E1C00417F7F49090FF0
S113023006001E3F21717F5E0000417F7F19396FE8
S1130240460026674D597B32000003417F7F4103FE
S113025000007F7F40407F7F00001F3F60603F1FA2
S113026000007F7F3018307F7F0063771C081C7785
S11302706300074F78784F0700006773594D476351
S11302807100007F7F41410000000000000006066D
S11302900202000000000E0606060002020202022C
S11302A0020006060606060606060606060E0000F8
S11302B00000207454543C784000413F7F44447C07
S11302C03800387C44446C280000307848493F7F2B
S11302D04000387C54545C180000487E7F49030277
S11302E0000098BCA4A4F87C0400417F7F08047C2F
S11302F0780000447D7D4000000040C484FD7D0002
S11303000000417F7F10386C440000417F7F400033
S113031000007C7C0C180C7C78007C7C04047C78C9
S11303200000387C44447C38000084FCF8A4243C5D
S11303301800183C24A4F8FC8400447C78441C185D
S11303400000485C54547424000000043E7F44249C
S113035000003C7C40403C7C40001C3C60603C1CF9
S113036000003C7C6030607C3C00446C3810386C8D
S113037044009CBCA0A0FC7C00004C64745C4C64F5
S1130380000008083E774141000000000077770034
S11303900000001E3FFCFC3F1E00387C7C7C7C3847
S11303A0000011241FBECFEFD4E0DEBFCDBF14E0A8
S11303B0A0E0B1E0E2E8F8E302C005900D92A631B6
S11303C0B107D9F724E0A6E1B4E001C01D92A2363A
S11303D0B207E1F70E94EF030C943F1C0C94000059
S11303E085B7806885BF80B7806280BFBA9880E097
S11303F090E00895843048F48460E0E0F4E1808380
S113040084EA8A95F1F78081089580E008950E9436
S1130410A7044CE660E680E60E94E40441E063E061
S11304208BE20E94E40440E060EE8FE00E94E4046A
S11304308EE00E949004807E59F083E691E09F93C1
S11304408F930E940D180F900F9081E090E0089513
S113045080E090E0089580E30E94900484FD05C04C
S113046085FD06C080E090E008958FEF9FEF08952A
S11304708EEF9FEF089580E30E9490048695869501
S1130480869591E08927817090E008950F931F93DA
S1130490CF938C010E943B02892B09F43FC0F801E1
S11304A06081718176956795769567957695679560
S11304B081E30E94BD04F80160817181660F771F9A
S11304C062957295707F7627607F762782E30E941B
S11304D0BD0460E083E40E94BD0460E084E40E9403
S11304E0BD04F801628185E30E94BD04F8018281A4
S11304F0882371F0C0E0F801EC0FF11D638186E3FD
S11305008C0F0E94BD04CF5FF8018281C81798F355
S113051081E80E94D50480E090E007C00E942B028D
S1130520990F990B892F990F990BCF911F910F91C7
S113053008959F92AF92BF92CF92DF92EF92FF9273
S11305400F931F93CF93DF93CDB7DEB72B970FB6DF
S1130550F894DEBF0FBECDBF6C01809116048130CC
S113056051F581E60E949004A82E82E60E94900430
S1130570B12CAA0CBB1CAA0CBB1CAA0CBB1C8295DC
S113058086958770A82A85E60E9490048F70982E1D
S113059081F07E0184E0E80EF11C06E6090D16E602
S11305A0812F0E949004F70181937F011F5F101334
S11305B0F7CF10921604BA82A9829B828BE0FE01C7
S11305C03196D60101900D928A95E1F7C6012B96DA
S11305D00FB6F894DEBF0FBECDBFDF91CF911F9150
S11305E00F91FF90EF90DF90CF90BF90AF909F90CE
S11305F008951F920F920FB60F9211242F933F93D9
S11306004F935F936F937F938F939F93AF93BF9316
S1130610EF93FF9340E061E08CE20E94E40481E008
S113062080931604FF91EF91BF91AF919F918F91A9
S11306307F916F915F914F913F912F910F900FBEDA
S11306400F901F90189580E00E94FA018093200477
S113065081E00E94FA0180931F0480E090E00895F5
S11306600E94F00187B3887F87BB88B3876088BB0B
S11306700E94230380E090E008958130910519F0F1
S1130680029741F00FC086B3869591E08927817067
S113069090E0089586B38695869591E089278170C8
S11306A090E0089580E090E00895CF9381E00E9467
S11306B0FA01C82F80E00E94FA01E82F409120043B
S11306C04C1798F450E02C2F30E0241B350B64E6D3
S11306D0629FC001639F900D11246FEF70E0641B53
S11306E0750B0E946417462F13C0C41780F4642F3F
S11306F070E02C2F30E0261B370B44E6429FC001EC
S1130700439F900D11240E946417462F01C040E0BE
S113071020911F042E1790F430E0F0E0E21BF30B5D
S113072054E65E9FC0015F9F900D11246FEF70E04F
S1130730621B730B0E946417762F13C0E21780F4B8
S1130740622F70E02E2F30E0261B370B54E6529FA9
S1130750C001539F900D11240E946417762F01C08D
S113076070E0642F80E090E0CF9108950E945503DB
S1130770272F633D24F06E321CF091E001C092E01B
S1130780233D24F02E321CF081E001C082E02CE2F3
S1130790260F293530F42CE2270F293510F490E088
S11307A080E00895CF9382E00E94FA01C82F83E08D
S11307B00E94FA01482F24E62C9FC0011124EFEF78
S11307C0F0E0BF010E946417362F249FC00111245A
S11307D0BF010E946417962F832FCF910895F89438
S11307E08BB780648BBF85B785BF8A988EE190E014
S11307F00E9482150E94F0010E9456150E94A704CF
S11308000E9430030E946E150E94FC110E94230373
S11308100E940702892B89F48AE891E09F938F93C1
S11308200E940D18E1E2F4E082E090E0918380837D
S113083087E082830F900F9008C08BE991E09F932B
S11308408F930E940D180F900F900E943003892BF4
S113085049F489EB91E09F938F930E940D180F90B8
S11308600F9008C080ED91E09F938F930E940D1824
S11308700F900F907894C1E2D4E0EC2EFD2EDD248D
S1130880D39401E010E00E94B60360934004709397
S1130890410480934204909343040E94D2039093B2
S11308A045048093440480910B01813059F40E94E3
S11308B0020590930901809308011F828E2D9F2DBC
S11308C00E94460280910B018230E9F680910A0170
S11308D08E83DF82CE010E9446028EED9FEE019749
S11308E0F1F780910A0190E00E94FB1390933A047F
S11308F0809339041093090100930801C4CF80E068
S113090090E00E94651580EC0E945D1585EF90E0F3
S11309100197F1F700C081E090E00E946515089509
S1130920CF93C82F80E090E00E94651583E00E9479
S11309305D158C2F0E945D1580E00E945D15C82F07
S113094081E090E00E9465158C2FCF9108950E945C
S113095056150E947F048EE00E949004807E8038A9
S113096051F083EF91E09F938F930E940D180F90A5
S11309700F9081E0089580E00895CF93DF93D82FFE
S1130980C62F80E090E00E94651582E00E945D150C
S11309908D2F0E945D158C2F0E945D1581E090E0E3
S11309A00E946515DF91CF910895CF93C82F80E001
S11309B090E00E9465158C2F0E945D1581E090E007
S11309C00E946515CF9108951F93CF93DF93182F3D
S11309D0D62FC42F80E090E00E94651585E00E9428
S11309E05D15812F0E945D158D2F0E945D158C2F42
S11309F00E945D1581E090E00E946515DF91CF9122
S1130A001F9108952F923F924F925F926F927F921F
S1130A108F929F92AF92BF92CF92DF92EF92FF920A
S1130A200F931F93CF93DF93CDB7DEB760970FB6C5
S1130A30F894DEBF0FBECDBFE0911704F091180407
S1130A40ED31F10510F00C945411E85CFF4F0C9457
S1130A5078170E94F0110F2EC12CD12CF0E8EF2E44
S1130A60FFE3FF2EF02D260137014601570180E0F8
S1130A7090E0A0E0B0E489839A83AB83BC8300E474
S1130A8014E00F2EFCE12F2E312CF02DA0E0B0E06D
S1130A90BA87A9873E822D82F2C00E94F01120E01D
S1130AA030E040E050E4C701B6010E948F150E9477
S1130AB0011687E00E94C31185E192E00E94BD12F5
S1130AC066E081E00E94C311E985FA853A972CF427
S1130AD089E192E00E94BD1209C029853A85243635
S1130AE0310524F48AE192E00E94BD124AE068E4F0
S1130AF074E089859A850E949D170E94BD1220E0AA
S1130B0030E040E85FE3C701B6010E948F150E9400
S1130B100116362E69817A818B819C810E9401168F
S1130B20862F632D0E94C31184E793E00E94BD12B7
S1130B3061E088E00E94C3118CE192E00E94BD1242
S1130B40A5019401C701B6010E9490156B017C01B7
S1130B5020E030E040E05FE3C301B2010E94AA1646
S1130B609B01AC0169817A818B819C810E949015E3
S1130B7069837A838B839C8320E030E040EC50E4EB
S1130B800E94FC1581110AC077FA709477F870946A
S1130B9089859A8501969A87898710C020E030E07C
S1130BA040E050E469817A818B819C810E94FC152C
S1130BB0811104C077FA709477F8709420E030E0E3
S1130BC040E751E4C701B6010E94FC15811105C03C
S1130BD0B7FAB094B7F8B0940DC020E030E0A901A2
S1130BE0C701B6010E94FC15811104C0B7FAB09484
S1130BF0B7F8B0940E94B603609340047093410424
S1130C0080934204909343049CEBAFEDB1E0915088
S1130C10A040B040E1F70000F8018381813039F44D
S1130C202D813E81309318042093170428C082300C
S1130C3039F48D819E8190931804809317041FC00A
S1130C408281813039F481E090E09093180480939C
S1130C50170415C0823039F481E090E090931804B1
S1130C60809317040CC081E090E00E943D03892B1F
S1130C7031F481E090E090931804809317048091FC
S1130C80170490911804892B09F407CF0C9454117C
S1130C900E94F01161E081E00E94C3118CE292E0B5
S1130CA00E94BD1261E083E00E94C31189E392E0D7
S1130CB00E94BD1261E085E00E94C31186E492E0C7
S1130CC00E94BD1261E087E00E94C31183E592E0B7
S1130CD00E94BD12B3E9EFEFF2E0B150E040F04002
S1130CE0E1F700C0000002E010E06894EE24E2F8AE
S1130CF0F12C42C00E94B6036093400470934104F7
S1130D0080934204909343048EED9FEE0197F1F794
S1130D1080914204813029F4F0921804E09217047F
S1130D202BC0823029F4109318040093170424C0B4
S1130D3081E090E00E943D03892BF1F482E090E091
S1130D4090930C0180930B018BE190E09093180435
S1130D508093170481E090E0909309018093080147
S1130D6083E090E0909307018093060110923A0487
S1130D70109239040C945411809117049091180422
S1130D80019709F4B7CF0C9454110E94F01161E05B
S1130D9081E00E94C3118FE592E00E94BD1261E0E0
S1130DA083E00E94C3118CE692E00E94BD1261E0D0
S1130DB085E00E94C31186E492E00E94BD1261E0C6
S1130DC087E00E94C31183E592E00E94BD1293E97B
S1130DD0AFEFB2E09150A040B040E1F700C0000096
S1130DE00F2EFDE0AF2EB12CF02D0F2EF9E0CF2EFB
S1130DF0D12CF02D0F2EF5E0EF2EF12CF02D03E089
S1130E0010E04CC00E94B603609340047093410408
S1130E108093420490934304EEEDFFEE3197F1F793
S1130E2080914204823029F410931804009317042B
S1130E3035C0813039F481E090E0909318048093B8
S1130E4017042CC081E090E00E943D03892B49F4F3
S1130E5080912401813029F4F0921804E09217045F
S1130E601DC081E090E00E943D03892B49F48091EC
S1130E702401823029F4D0921804C09217040EC0C1
S1130E8081E090E00E943D03892B41F4809124018C
S1130E90833021F4B0921804A092170480911704AF
S1130EA090911804029709F4ADCF0C9454110E9448
S1130EB0F01161E081E00E94C3118FE592E00E948D
S1130EC0BD1261E083E00E94C31189E392E00E94B5
S1130ED0BD1261E085E00E94C31189E792E00E949F
S1130EE0BD1261E087E00E94C31183E592E00E9495
S1130EF0BD12F3E92FEF32E0F15020403040E1F72A
S1130F0000C000000F2EF7E1CF2ED12CF02D02E00F
S1130F1010E06894EE24E2F8F12C28C00E94B60395
S1130F20609340047093410480934204909343047B
S1130F308EED9FEE0197F1F780914204823029F4FF
S1130F40F0921804E092170411C0813029F4109330
S1130F501804009317040AC081E090E00E943D0346
S1130F60892B21F4D0921804C0921704809117049D
S1130F7090911804039791F20C9454110E94F0116B
S1130F8061E081E00E94C3118FE592E00E94BD12EE
S1130F9061E083E00E94C31189E392E00E94BD12E4
S1130FA061E085E00E94C31186E492E00E94BD12D4
S1130FB061E087E00E94C31186E892E00E94BD12BE
S1130FC093E9AFEFB2E09150A040B040E1F700C028
S1130FD000000F2EFCE1EF2EF12CF02D03E010E0C9
S1130FE033C00E94B603609340047093410480931D
S1130FF0420490934304EEEDFFEE3197F1F78091B4
S11310004204823039F481E090E090931804809394
S113101017041AC0813029F410931804009317049C
S113102013C081E090E00E943D03892B69F4F092A3
S11310301804E0921704FEEA2FE332E0F150204056
S11310403040E1F700C0000080911704909118042B
S1131050049739F20C9454110E94F01161E081E07C
S11310600E94C31182E992E00E94BD1261E083E014
S11310700E94C3118AE992E00E94BD1261E085E0FA
S11310800E94C31183EA92E00E94BD1261E087E0EE
S11310900E94C3118AEA92E00E94BD1283E99FEF85
S11310A0A2E081509040A040E1F700C000006894A5
S11310B0EE24E3F8F12C06E010E01DC00E94B60314
S11310C060934004709341048093420490934304DA
S11310D0EEEDFFEE3197F1F780914204823029F46E
S11310E0109318040093170406C0813021F4F09281
S11310F01804E0921704809117049091180405973E
S1131100E9F20C9454110E94F01161E081E00E9414
S1131110C31181EB92E00E94BD1261E083E00E9462
S1131120C31189EB92E00E94BD1261E085E00E9448
S1131130C31183EA92E00E94BD1261E087E00E943D
S1131140C3118AEA92E00E94BD12F3E92FEF32E064
S1131150F15020403040E1F700C000006894BB2407
S1131160B1F80F2EFAE0CF2ED12CF02D05E010E0CF
S11311700F2EF7E0EF2EF12CF02D2AC00E94B603BB
S11311806093400470934104809342049093430419
S11311908EED9FEE0197F1F780914204823029F49D
S11311A0F0921804E092170413C0813029F41093CC
S11311B01804009317040CC081E090E00E943D03E2
S11311C0892B31F4B0922401D0921804C0921704F0
S11311D08091170490911804069781F20C9454118D
S11311E00E94F01161E081E00E94C31181EB92E062
S11311F00E94BD1261E083E00E94C3118AE992E07B
S11312000E94BD1261E085E00E94C31182EC92E06D
S11312100E94BD1261E087E00E94C3118AEA92E055
S11312200E94BD1293E9AFEFB2E09150A040B040EC
S1131230E1F700C000000F2EF3E0BF2EF02D0F2EBB
S1131240FFE0CF2ED12CF02D06E010E06894EE24C0
S1131250E3F8F12C2AC00E94B60360934004709313
S113126041048093420490934304EEEDFFEE3197E2
S1131270F1F780914204823029F4F0921804E0924C
S1131280170413C0813029F4109318040093170431
S11312900CC081E090E00E943D03892B31F4B092B0
S11312A02401D0921804C0921704809117049091DD
S11312B01804079781F2F8C70E94F01161E081E0F9
S11312C00E94C31181EB92E00E94BD1261E083E0B1
S11312D00E94C3118AE992E00E94BD1261E085E098
S11312E00E94C31183EA92E00E94BD1261E087E08C
S11312F00E94C31189EC92E00E94BD12F3E92FEF22
S113130032E0F15020403040E1F700C0000007E037
S113131010E00F2EF5E0EF2EF12CF02D2AC00E94E4
S1131320B603609340047093410480934204909305
S113133043048EED9FEE0197F1F7809142048230D1
S113134029F4F0921804E092170413C0813029F4B0
S113135010931804009317040CC081E090E00E94DD
S11313603D03892B31F481E090E09093180480933D
S113137017048091170490911804089781F294C778
S11313800E94F01161E081E00E94C31180ED92E0BF
S11313900E94BD1261E083E00E94C31187ED92E0D8
S11313A00E94BD1261E085E00E94C31183EA92E0CD
S11313B00E94BD1261E087E00E94C3118AEA92E0B4
S11313C00E94BD1293E9AFEFB2E09150A040B0404B
S11313D0E1F700C000000F2EF5E0CF2ED12CF02D48
S11313E0BB24B3940CE010E00F2EFAE0EF2EF12CA6
S11313F0F02D2AC00E94B603609340047093410408
S11314008093420490934304EEEDFFEE3197F1F79D
S113141080914204823029F4F0921804E092170477
S113142013C0813029F410931804009317040CC0DE
S113143081E090E00E943D03892B31F4D09218049E
S1131440C0921704B092240180911704909118045B
S1131450099781F229C70E94F01161E081E00E949E
S1131460C31181EE92E00E94BD1261E083E00E940C
S1131470C31188EE92E00E94BD1261E085E00E94F3
S1131480C31183EA92E00E94BD1261E087E00E94EA
S1131490C3118AEA92E00E94BD12F3E92FEF32E011
S11314A0F15020403040E1F700C000000F2EF9E079
S11314B0EF2EF12CF02D0BE010E01DC00E94B603BE
S11314C060934004709341048093420490934304D6
S11314D08EED9FEE0197F1F780914204823029F45A
S11314E0109318040093170406C0813021F4F0927D
S11314F01804E092170480911704909118040A9735
S1131500E9F2D2C60E94F01161E081E00E94C311A9
S113151081EE92E00E94BD1261E083E00E94C3115B
S113152087ED92E00E94BD1261E085E00E94C31144
S113153082EC92E00E94BD1261E087E00E94C31138
S11315408AEA92E00E94BD1293E9AFEFB2E09150B3
S1131550A040B040E1F700C000000F2EFFE0CF2E06
S1131560D12CF02D0F2EF3E0BF2EF02D0AE010E069
S11315700F2EFCE0EF2EF12CF02D2AC00E94B603B2
S11315806093400470934104809342049093430415
S1131590EEEDFFEE3197F1F780914204823029F4A9
S11315A0F0921804E092170413C0813029F41093C8
S11315B01804009317040CC081E090E00E943D03DE
S11315C0892B31F4D0921804C0921704B0922401EC
S11315D080911704909118040B9781F265C60E94BC
S11315E0F01161E081E00E94C31181EE92E00E945B
S11315F0BD1261E083E00E94C31187ED92E00E9476
S1131600BD1261E085E00E94C31183EA92E00E946A
S1131610BD1261E087E00E94C31189EC92E00E9450
S1131620BD12F3E92FEF32E0F15020403040E1F7F2
S113163000C000000BE010E00F2EF9E0EF2EF12CBB
S1131640F02D2AC00E94B6036093400470934104B5
S113165080934204909343048EED9FEE0197F1F73B
S113166080914204823029F4F0921804E092170425
S113167013C0813029F410931804009317040CC08C
S113168081E090E00E943D03892B31F481E090E0F9
S11316909093180480931704809117049091180470
S11316A00C9781F201C60E94F01161E081E00E9472
S11316B0C31180ED92E00E94BD1261E083E00E94BC
S11316C0C3118AE992E00E94BD1261E085E00E94A4
S11316D0C31182EF92E00E94BD1261E087E00E9494
S11316E0C3118AEA92E00E94BD1293E9AFEFB2E01F
S11316F09150A040B040E1F700C000000F2EF5E08B
S1131700CF2ED12CF02DBB24B39400E110E00F2E8A
S1131710FEE0EF2EF12CF02D2AC00E94B603609358
S11317204004709341048093420490934304EEED8B
S1131730FFEE3197F1F780914204823029F4F09260
S11317401804E092170413C0813029F4109318048C
S1131750009317040CC081E090E00E943D03892BA4
S113176031F4D0921804C0921704B09224018091ED
S11317701704909118040D9781F296C50E94F011F8
S113178061E081E00E94C31181EE92E00E94BD12EB
S113179061E083E00E94C31189EB92E00E94BD12D4
S11317A061E085E00E94C31182EF92E00E94BD12C5
S11317B061E087E00E94C3118AEA92E00E94BD12B0
S11317C0F3E92FEF32E0F15020403040E1F700C060
S11317D000000F2EFAE0CF2ED12CF02D6894BB24FC
S11317E0B1F80DE010E00F2EFFE0EF2EF12CF02DFC
S11317F02AC00E94B603609340047093410480930E
S11318004204909343048EED9FEE0197F1F780918B
S11318104204823029F4F0921804E092170413C0B1
S1131820813029F410931804009317040CC081E04C
S113183090E00E943D03892B31F4D0921804C092A9
S11318401704B092240180911704909118040E9704
S113185081F22AC50E94F01161E081E00E94C31167
S113186081EE92E00E94BD1261E083E00E94C31108
S11318708AE992E00E94BD1261E085E00E94C311F2
S11318808AEF92E00E94BD1261E087E00E94C311DA
S11318908AEA92E00E94BD1293E9AFEFB2E0915060
S11318A0A040B040E1F700C000000F2EFEE0EF2E94
S11318B0F12CF02D00E110E01DC00E94B6036093EE
S11318C04004709341048093420490934304EEEDEA
S11318D0FFEE3197F1F780914204823029F410939E
S11318E018040093170406C0813021F4F092180400
S11318F0E092170480911704909118040F97E9F26D
S1131900D3C40E94F01161E081E00E94C31181EE12
S113191092E00E94BD1261E083E00E94C3118AE953
S113192092E00E94BD1261E085E00E94C31182EF43
S113193092E00E94BD1261E087E00E94C31189EC2D
S113194092E00E94BD12F3E92FEF32E0F150204003
S11319503040E1F700C000000FE010E00F2EFDE082
S1131960EF2EF12CF02D2AC00E94B60360934004A0
S11319707093410480934204909343048EED9FEE50
S11319800197F1F780914204823029F4F09218040F
S1131990E092170413C0813029F4109318040093C3
S11319A017040CC081E090E00E943D03892B31F4C0
S11319B081E090E0909318048093170480911704B9
S11319C090911804409781F26FC40E94F01163E073
S11319D082E00E94C311ACE1B1E004E211E0BA83F9
S11319E0A983E981FA8181919191FA83E9830E9423
S11319F0BD1229813A810217130799F769E082E041
S1131A000E94C3114AE068E474E080911D0490913F
S1131A101E040E949D170E94BD1263E083E00E9491
S1131A20C31184E191E00CE111E09A838983A981D7
S1131A30BA818D919D91BA83A9830E94BD12E981D7
S1131A40FA81E017F10799F769E083E00E94C31176
S1131A504AE068E474E080911B0490911C040E94A5
S1131A609D170E94BD1263E084E00E94C3112CE024
S1131A7031E004E111E03A832983A981BA818D918F
S1131A809D91BA83A9830E94BD12E981FA810E1740
S1131A901F0799F769E084E00E94C3114AE068E4F3
S1131AA074E08091190490911A040E949D170E9479
S1131AB0BD1261E086E00E94C31182E093E00E94BF
S1131AC0BD12F3E92FEF32E0F15020403040E1F74E
S1131AD000C0000033C00E94B603609340047093BA
S1131AE0410480934204909343048EEA9FE3A2E06E
S1131AF081509040A040E1F700C000008091430471
S1131B00813039F488E190E09093180480931704AD
S1131B10CBC3823039F488E190E090931804809329
S1131B201704C2C381E090E00E943D03892B31F485
S1131B3081E090E090931804809317048091170437
S1131B4090911804479739F2AFC30E94F01163E0F3
S1131B5082E00E94C311ECE1F1E004E211E0FA83B7
S1131B60E983A981BA818D919D91BA83A9830E9449
S1131B70BD12E981FA81E017F10799F769E082E083
S1131B800E94C3114AE068E474E080911D049091BE
S1131B901E040E949D170E94BD1263E083E00E9410
S1131BA0C31124E131E00CE111E03A832983A981D6
S1131BB0BA818D919D91BA83A9830E94BD12E98156
S1131BC0FA810E171F0799F769E083E00E94C31199
S1131BD04AE068E474E080911B0490911C040E9424
S1131BE09D170E94BD1263E084E00E94C3112CE0A3
S1131BF031E004E111E03A832983A981BA818D910E
S1131C009D91BA83A9830E94BD12E981FA810E17BE
S1131C101F0799F769E084E00E94C3114AE068E471
S1131C2074E08091190490911A040E949D170E94F7
S1131C30BD1261E086E00E94C31181E193E00E943D
S1131C40BD12F3E92FEF32E0F15020403040E1F7CC
S1131C5000C0000009E110E031C00E94B6036093A7
S1131C6040047093410480934204909343048EEAA9
S1131C709FE3A2E081509040A040E1F700C0000043
S1131C8080914304813039F487E190E09093180403
S1131C908093170409C3823039F487E190E090936C
S1131CA018048093170400C381E090E00E943D0370
S1131CB0892B21F4109318040093170480911704BE
S1131CC090911804489749F2EFC20E94F01161E024
S1131CD083E00E94C31180E293E00E94BD1261E0A0
S1131CE085E00E94C3118EE293E00E94BD12B3E925
S1131CF0EFEFF2E0B150E040F040E1F700C0000047
S1131D000F2EF7E1EF2EF12CF02D0AE110E028C0A0
S1131D100E94B6036093400470934104809342048C
S1131D20909343048EED9FEE0197F1F78091430465
S1131D30813029F4109318040093170411C08230E1
S1131D4029F410931804009317040AC081E090E06A
S1131D500E943D03892B21F4F0921804E0921704A9
S1131D608091170490911804499791F29DC20E94A2
S1131D70F01161E083E00E94C31180E293E00E94CD
S1131D80BD1261E085E00E94C3118AE393E00E94E2
S1131D90BD1293E9AFEFB2E09150A040B040E1F73B
S1131DA000C0000000E414E00F2EF4E2EF2EF1E096
S1131DB0FF2EF02D0F2EF5ECAF2EF3E0BF2EF02DFD
S1131DC00F2EF9E1CF2ED12CF02D4AC00E94B6037C
S1131DD060934004709341048093420490934304BD
S1131DE0EEEDFFEE3197F1F7D80113968C91813027
S1131DF029F4D0921804C092170432C0823029F416
S1131E00D0921804C09217042BC081E090E00E9485
S1131E103D03892B29F581E090E090931804809389
S1131E201704ECE1F1E084E191E04CE051E0A1928F
S1131E30B192DC01AD92BD92CD01DA01AD92BD92B9
S1131E40AD01EE16FF0699F710921E0410921D04C0
S1131E5010921C0410921B0410921A04109219047C
S1131E6080911704909118044A9709F4AFCF1CC2CB
S1131E700E94F0118091390490913A0420911D043C
S1131E8030911E0482179307DCF10E94CE120CE0FD
S1131E9011E0A4E1B1E0ECE1F1E044E151E0BF0183
S1131EA02D913C911197F801219331938F01FB01FE
S1131EB0208131812D933D93FC0121913191CF01FA
S1131EC0FB0121933193BF010417150749F7809152
S1131ED01B0490911C0490931A048093190480911C
S1131EE01D0490911E0490931C0480931B04809104
S1131EF0390490913A0490931E0480931D045BC0AE
S1131F0020911B0430911C048217930774F10E94E2
S1131F10CE122EE031E03A832983DC011296E6E109
S1131F20F1E00896B901AF01FA0120813181FB018A
S1131F3021933193BF012D913D91FA012193319366
S1131F40AF01A817B90781F780911B0490911C0475
S1131F5090931A04809319048091390490913A045F
S1131F6090931C0480931B0426C020911904309183
S1131F701A0482179307FCF00E94CE12DC01129619
S1131F808D919C911397ECE0F1E0938382831496F6
S1131F908D919C9115979583848316968D919C9130
S1131FA01797978386838091390490913A0490938C
S1131FB01A048093190481E090E0909318048093AC
S1131FC0170472C10E94F01180E090E0A0E0B0E438
S1131FD08D839E83AF83B88700E010E080E090E0BB
S1131FE0A0E8BFE389839A83AB83BC834C015D0182
S1131FF02C013D01C12CD12C76016894F6F84DC119
S11320000E94F01120E030E040E050E46D817E81D8
S11320108F8198850E948F1569877A878B879C8723
S11320200E94011687E00E94C31185E192E00E949C
S1132030BD1269817A818B819C810E940116362EA2
S1132040C701B6010E940116862F632D0E94C31199
S113205084E793E00E94BD1267E088E00E94C31108
S113206020E030E040EC50E4C701B6010E94FC15CA
S1132070811136C069817A818B819C810E941717F6
S11320806D877E878F87988B9B01AC016D817E81E4
S11320908F8198850E94FC15882301F120E030E0AF
S11320A040E85FE36D817E818F8198850E948F1562
S11320B09B01AC016D857E858F8598890E94FC15F6
S11320C0882361F02D853E854F85588969857A85F9
S11320D08B859C850E94FC15811106C00F5F1F4FE4
S11320E00A30110544F402C000E010E089E192E0F6
S11320F00E94BD1207C00436110524F48AE192E05F
S11321000E94BD124AE068E474E0C8010E949D1771
S11321100E94BD1220E030E040E85EE3C301B2015A
S11321200E94AA169B01AC0169817A818B819C81F2
S11321300E94901569837A838B839C8320E030E02E
S113214040E05FE3C501B4010E94AA169B01AC0103
S1132150C701B6010E9490156B017C0120E030E0BC
S113216040EC50E40E94FC15811105C0B7FAB0940C
S1132170B7F8B0940EC020E030E040E050E4C7016E
S1132180B6010E94FC15811104C0B7FAB094B7F8E7
S1132190B09420E030E040E751E469817A818B819A
S11321A09C810E94FC15811105C077FA709477F820
S11321B070940FC020E030E0A90169817A818B819D
S11321C09C810E94FC15811104C077FA709477F801
S11321D070940E94B603609340047093410480930A
S11321E04204909343046091240170E08EE591E0F1
S11321F00E946417CB010E944B15809143048130E7
S1132200F9F420E030E040E85FE36D817E818F8166
S113221098850E9490156D837E838F83988720E034
S113222030E040E751E40E94A5161816B4F580E0AA
S113223090E0A0E7B1E48D839E83AF83B8872DC07F
S11322408230F9F420E030E040E85FE36D817E8184
S11322508F8198850E948F156D837E838F839887E5
S113226020E030E040E85FE30E94FC158823ACF4F2
S113227080E090E0A0E8BFE38D839E83AF83B887BE
S11322800CC081E090E00E943D03892B31F481E091
S113229090E0909318048093170480911704909110
S11322A018044C9709F4ACCE80910801909109016F
S11322B060960FB6F894DEBF0FBECDBFDF91CF910D
S11322C01F910F91FF90EF90DF90CF90BF90AF9050
S11322D09F908F907F906F905F904F903F902F9042
S11322E0089510923F0410923C04E0912701F0916C
S11322F0280183ED8083E0912701F091280188EC87
S11323008083E0912701F091280181E28083E091AC
S11323102701F09128011082E0912701F091280112
S11323208FE78083E0912701F091280182E2808386
S1132330E0912701F09128011082E0912701F091AA
S1132340280187E0808380E090E00895CF93C82F30
S11323500E947111C83098F4C0933F04E0912701A2
S1132360F09128011082E0912701F091280180E189
S11323708083E0912701F0912801C06BC08380E045
S113238090E0CF910895CF93C62F0E94A611C0313B
S113239098F48C2F880F880F880F80933C04E09169
S11323A02701F09128018F708083E0912701F0913B
S11323B02801C062C695C08380E090E0CF91089563
S11323C00E94A61180E890E0E0912501F091260199
S11323D010820197C9F70E94711180E090E008957E
S11323E0CF93C0E08C2F0E94E011CF5FC830D1F7AB
S11323F080E090E0CF91089585B7806885BF80B76D
S1132400806280BFE0912701F09128018EEA8083E9
S1132410E0912701F091280181EA8083E09127016E
S1132420F09128018AED8083E0912701F091280141
S113243082E18083E0912701F091280188EC808378
S1132440E0912701F091280188EA8083E091270137
S1132450F09128018FE38083E0912701F091280116
S113246085ED8083E0912701F091280180E8808345
S1132470E0912701F091280181E88083E091270110
S1132480F091280180E58083E0912701F0912801F3
S113249089ED8083E0912701F091280181E2808316
S11324A0E0912701F091280180E28083E0912701E7
S11324B0F091280182E08083E0912701F0912801C6
S11324C08BED8083E0912701F091280180E38083E4
S11324D0E0912701F09128018DEA8083E0912701A2
S11324E0F09128011082E0912701F091280184EAFB
S11324F08083E0912701F091280186EA8083E091AE
S11325002701F09128018FEA8083E0912701F0915F
S1132510280180EB8083E0912701F091280110824B
S1132520E0912701F091280180E180830E94F0115D
S11325300E94711180E090E00895282F30E0F901A5
S1132540EE0FFF1FEE0FFF1FEE0FFF1FE655F040CB
S1132550220F331F220F331F220F331F2E543040FC
S1132560A0912501B091260194919C933196E21794
S1132570F307B1F780E090E00895CF93DF93EC0187
S11325808881882331F021960E949D1289918111BE
S1132590FBCF80E090E0DF91CF9108956F927F921E
S11325A08F929F92AF92BF92CF92DF92EF92FF925F
S11325B00F931F93CF93DF93CDB7DEB7EA970FB690
S11325C0F894DEBF0FBECDBF0E94F01161E082E03F
S11325D00E94C31186E493E00E94BD1263E083E08D
S11325E00E94C31185E593E00E94BD1266E086E077
S11325F00E94C31180E693E00E94BD1282E3E9E2E7
S1132600F1E0DE01119601900D928A95E1F788E0E0
S1132610EBE5F1E0DE01D39601900D928A95E1F7A6
S11326204E0123E3820E911C64010F2EF6E06F2EFF
S1132630F02DA12CB12C88C085E00E94E0111A1461
S11326401B049CF484010F2EF6E07F2EF02D672DE1
S113265085E00E94C311F801819191918F010E943C
S1132660BD1273940C151D0591F7662D85E00E942B
S1132670C311F701EE0FFF1F21E030E02C0F3D1FC7
S1132680E20FF31F808191810E94BD120E94B60364
S11326903FED42E2E2E031504040E040E1F700C06B
S11326A00000813021F4FFEFEF1AFF0A05C08230E9
S11326B019F421E0E21AF1083AE1E316F1040CF00E
S11326C069C0FF200CF469C0913091F444E0A41671
S11326D0B10484F5EE0CFF1CE1E0F0E0EC0FFD1F0B
S11326E0EE0DFF1D80819181F6019183808322C0CC
S11326F081E090E00E943D03892BB9F4AA0CBB1C35
S1132700A1E0B0E0AC0FBD1FAA0DBB1DEE0CFF1C79
S1132710E1E0F0E0EC0FFD1FEE0DFF1D80819181E3
S1132720D3969C938E93D29712C0FEE1EF16F104D8
S11327300CF482CF2FEFA21AB20A32E0C30ED11CDE
S113274063944AE0641619F0E12CF12C75CF0E94D1
S1132750F01162E083E00E94C31185E693E00E94D9
S1132760BD1264E086E00E94C31184E793E00E94F6
S1132770BD1266E086E00E94C3118E01055C1F4F06
S1132780F401819191914F010E94BD120815190520
S1132790B9F709C0E12CF12C4FCF0F2EF9E1EF2E40
S11327A0F12CF02D49CF6AE086E00E94C31182E744
S11327B093E00E94BD12FFE72FE432E1F150204084
S11327C03040E1F700C00000CE01C396EA960FB690
S11327D0F894DEBF0FBECDBFDF91CF911F910F9153
S11327E0FF90EF90DF90CF90BF90AF909F908F902D
S11327F07F906F9008956F927F929F92AF92BF9255
S1132800CF92DF92EF92FF920F931F93CF93DF93B8
S1132810CDB7DEB72B970FB6F894DEBF0FBECDBF92
S113282001E214E06894EE24E1F8F12C69C00E94FE
S1132830B6030E94F01161E084E00E94C31180910C
S11328400601909107018330910549F486EA93E0EB
S11328500E94BD1210923A041092390435C0892B9B
S1132860D9F4109209011092080181E090E090934C
S11328700C0180930B018BE190E0909318048093FA
S1132880170401E214E00F2EFAEDAF2EF3E0BF2E91
S1132890F02D902EC12EC6C060E083E00E94C311CB
S11328A086EB93E00E94BD1263E084E00E94C311B2
S11328B087EC93E00E94BD1263E085E00E94C3119F
S11328C080ED93E00E94BD122FE788E391E0215050
S11328D080409040E1F700C0000081E090E00E9459
S11328E03D03892B69F481E090E00E943D03F801E7
S11328F08583C8010E944602F0920901E092080112
S11329008091080190910901019709F490CFB9CF02
S11329100E94D203D82E0E94B603F8016383D482A6
S113292081E090E00E943D03F8018583892D9C2D70
S11329300E944602CE0101960E9499028BE0FE019C
S11329403196AEE2B4E001900D928A95E1F7B09B26
S11329507AC080913604682E712CE7EAF1E631974B
S1132960F1F700C000001F928F93BF92AF920E94B4
S11329700D180F900F900F900F906A94672881F4B0
S1132980809106019091070101979093070180932C
S1132990060181E090E090930901809308014EC004
S11329A021E0E21AF10809F042C00E94F01162E04D
S11329B083E00E94C3118091060190910701833046
S11329C0910529F48AEE93E00E94BD120EC0823074
S11329D0910529F487EF93E00E94BD1206C0019788
S11329E021F483E094E00E94BD1263E085E00E943C
S11329F0C3118EE094E00E94BD124AE050E068E406
S1132A0074E08091390490913A040E9492170E94D4
S1132A10BD128091390490913A04019690933A043E
S1132A20809339040F2EFAE0EF2EF12CF02D8091D3
S1132A30080190910901029709F46ACF8091390441
S1132A4090913A0414C087EA91E60197F1F700C027
S1132A5000001F9281E08F938AED93E09F938F9300
S1132A600E940D180F900F900F900F9089CF2B9606
S1132A700FB6F894DEBF0FBECDBFDF91CF911F918B
S1132A800F91FF90EF90DF90CF90BF90AF909F9009
S1132A907F906F900895009741F0E9EFF0E031974F
S1132AA0F1F700C000000197C1F7089587B3806B68
S1132AB087BBBE9881E58DB908958FB985EF90E005
S1132AC00197F1F700C08FB108958130910511F499
S1132AD0C49A0895892B09F4C498089585B7806829
S1132AE085BF80B7806280BF80E090E008955D9BE1
S1132AF0FECF8CB980E090E008955F9BFECF8CB14F
S1132B0090E0089590BD89B988E18AB98EE880BDC6
S1132B106DE775E187E795E10E94C2170895505863
S1132B20BB27AA270E94A7150C946B160E945D165A
S1132B3038F00E94641620F039F49F3F19F426F40B
S1132B400C945A160EF4E095E7FB0C945416E92FF6
S1132B500E947C1658F3BA17620773078407950717
S1132B6020F079F4A6F50C949E160EF4E0950B2E45
S1132B70BA2FA02D0B01B90190010C01CA01A001CB
S1132B801124FF27591B99F0593F50F4503E68F126
S1132B901A16F040A22F232F342F4427585FF3CF67
S1132BA0469537952795A795F0405395C9F77EF438
S1132BB01F16BA0B620B730B840BBAF09150A1F081
S1132BC0FF0FBB1F661F771F881FC2F70EC0BA0F07
S1132BD0621F731F841F48F4879577956795B7958F
S1132BE0F7959E3F08F0B0CF9395880F08F099278A
S1132BF0EE0F9795879508950E94301608F481E0AA
S1132C0008950E94841688F09F5798F0B92F992749
S1132C10B751B0F0E1F0660F771F881F991F1AF0C3
S1132C20BA95C9F714C0B13091F00E949E16B1E074
S1132C3008950C949E16672F782F8827B85F39F073
S1132C40B93FCCF3869577956795B395D9F73EF45C
S1132C5090958095709561957F4F8F4F9F4F089504
S1132C60990F0008550FAA0BE0E8FEEF1616170699
S1132C70E807F907C0F012161306E407F50798F001
S1132C80621B730B840B950B39F40A2661F0232B1A
S1132C90242B252B21F408950A2609F4A140A69596
S1132CA08FEF811D811D089597F99F6780E870E07B
S1132CB060E008959FEF80EC089500240A941616AE
S1132CC0170618060906089500240A941216130616
S1132CD0140605060895092E0394000C11F48823A4
S1132CE052F0BB0F40F4BF2B11F460FF04C06F5FC0
S1132CF07F4F8F4F9F4F089557FD9058440F551F96
S1132D0059F05F3F71F04795880F97FB991F61F069
S1132D109F3F79F087950895121613061406551FE0
S1132D20F2CF4695F1DF08C0161617061806991F4C
S1132D30F1CF86957105610508940895E894BB2741
S1132D4066277727CB0197F908950E94301608F477
S1132D508FEF08950E94BD160C946B160E945D16A9
S1132D6038F00E94641620F0952311F00C94541648
S1132D700C945A1611240C949F160E947C1670F31E
S1132D80959FC1F3950F50E0551F629FF001729F0C
S1132D90BB27F00DB11D639FAA27F00DB11DAA1F1B
S1132DA0649F6627B00DA11D661F829F2227B00D68
S1132DB0A11D621F739FB00DA11D621F839FA00DF3
S1132DC0611D221F749F3327A00D611D231F849F43
S1132DD0600D211D822F762F6A2F11249F5750409A
S1132DE09AF0F1F088234AF0EE0FFF1FBB1F661F15
S1132DF0771F881F91505040A9F79E3F510580F0DE
S1132E000C9454160C949F165F3FE4F3983ED4F34D
S1132E10869577956795B795F795E7959F5FC1F781
S1132E20FE2B880F911D9695879597F908950E941A
S1132E308416E8F09E37E8F09639B8F49E3848F4E2
S1132E40672F782F8827985FF9CF869577956795B0
S1132E5093959539D0F3B62FB1706B0F711D811D09
S1132E6020F487957795679593950C943B170C946C
S1132E7056170C949F16882371F4772321F09850E9
S1132E80872B762F07C0662311F499270DC0905124
S1132E90862B70E060E02AF09A95660F771F881FF2
S1132EA0DAF7880F9695879597F908959F3F31F043
S1132EB0915020F4879577956795B795880F911D64
S1132EC09695879597F9089597FB072E16F4009425
S1132ED007D077FD09D00E947E1707FC05D03EF489
S1132EE0909581959F4F0895709561957F4F0895B2
S1132EF0EE0FFF1F0590F491E02D0994AA1BBB1B54
S1132F0051E107C0AA1FBB1FA617B70710F0A61BE5
S1132F10B70B881F991F5A95A9F780959095BC0106
S1132F20CD0108954532510520F4423010F00C943F
S1132F309D17FB011082CB010895BB274A3031F461
S1132F40992322F4BDE2909581959F4F0C94A91783
S1132F50BB27FB015527AA27880F991FAA1FA4176F
S1132F6010F0A41B83955051B9F7A05DAA3308F063
S1132F70A95DA193009779F7B111B1931192CB0197
S1132F800C945E1B0F931F93CF93DF93009731F440
S1132F906115710519F480E090E03AC08B01EC01F1
S1132FA06EE070E081E090E00E94041AFC01892B3D
S1132FB091F380E883830115110571F0138702876B
S1132FC081E883838091580490915904892B21F4DA
S1132FD0F0935904E09358042097C9F0D187C0872F
S1132FE083818260838380915A0490915B04892B4E
S1132FF071F4F0935B04E0935A0480915C04909123
S11330005D04892B21F4F0935D04E0935C04CF010B
S1133010DF91CF911F910F910895A0E0B0E0E3E11B
S1133020F8E10C94181CAE014B5F5F4FFA016191FB
S11330307191AF0180915A0490915B040E9423180E
S1133040E2E00C94341CABE0B0E0E9E2F8E10C946B
S1133050081C6C017B018A01FC01178216828381A2
S113306081FFCCC1CE0101963C01F6019381F701A9
S113307093FD859193FF81917F01882309F4BAC15F
S1133080853239F493FD859193FF81917F018532D7
S113309029F4B60190E00E946E1BE7CF912C212CFD
S11330A0312CFFE1F315D8F08B3279F038F480320B
S11330B079F08332A1F4232D20611DC08D3261F09B
S11330C0803369F4232D216016C0832D8260382E4D
S11330D0E32DE4603E2E2AC0F32DF8601DC037FCBA
S11330E02DC020ED280F2A3040F08E32B9F436FC82
S11330F081C1232D2064322E19C036FE06C08AE019
S1133100989E200D1124922E11C0EAE02E9E200DCF
S11331101124222EF32DF0623F2E08C08C3621F4A8
S1133120832D8068382E02C0883641F4F70193FD60
S1133130859193FF81917F018111B3CF982F9F7D5A
S11331409554933028F40C5F1F4F9FE399830DC06F
S1133150833631F0833771F0833509F059C021C0CB
S1133160F801808189830E5F1F4F88248394912CFA
S1133170530113C02801F2E04F0E511CF801A08046
S1133180B18036FE03C0692D70E002C06FEF7FEF9F
S1133190C5010E94531B4C018201F32DFF773F2E82
S11331A016C0280122E0420E511CF801A080B18013
S11331B036FE03C0692D70E002C06FEF7FEFC501DA
S11331C00E94411B4C01F32DF0683F2E820133FC19
S11331D01BC0822D90E088169906B0F4B60180E2F7
S11331E090E00E946E1B2A94F4CFF50137FC859180
S11331F037FE81915F01B60190E00E946E1B2110A1
S11332002A9421E0821A91088114910471F7E8C08C
S1133210843611F0893641F5F80137FE07C0608124
S11332207181828193810C5F1F4F08C0608171811D
S1133230072E000C880B990B0E5F1F4FF32DFF76A2
S11332403F2E97FF09C090958095709561957F4FAB
S11332508F4F9F4FF0683F2E2AE030E0A3010E9479
S1133260AA1B882E861845C0853731F4232D2F7E5E
S1133270B22E2AE030E025C0932D997FB92E8F36E7
S1133280C1F018F4883579F0B5C0803719F0883763
S113329021F0B0C0E92FE061BE2EB4FE0DC0FB2DBD
S11332A0F460BF2E09C034FE0AC0292F2660B22E56
S11332B006C028E030E005C020E130E002C020E193
S11332C032E0F801B7FE07C0608171818281938189
S11332D00C5F1F4F06C06081718180E090E00E5F3B
S11332E01F4FA3010E94AA1B882E8618FB2DFF776F
S11332F03F2E36FE0DC0232D2E7FA22E891458F4A6
S113330034FE0BC032FC09C0832D8E7EA82E05C06E
S1133310B82CA32C03C0B82C01C0B92CA4FE0FC038
S1133320FE01E80DF11D8081803321F49A2D997EF0
S1133330A92E09C0A2FE06C0B394B39404C08A2D7A
S1133340867809F0B394A3FC11C0A0FE06C0B214A1
S113335088F4280C922C9B180EC0B21460F4B601A9
S113336080E290E00E946E1BB394F7CFB21418F47D
S11333702B1802C0982C212CA4FE10C0B60180E3A7
S113338090E00E946E1BA2FE17C0A1FC03C088E758
S113339090E002C088E590E0B6010CC08A2D8678E2
S11333A059F0A1FE02C08BE201C080E2A7FC8DE2CD
S11333B0B60190E00E946E1B891438F4B60180E3D4
S11333C090E00E946E1B9A94F7CF8A94F301E80D63
S11333D0F11D8081B60190E00E946E1B8110F5CF33
S11333E0222009F442CEB60180E290E00E946E1BD6
S11333F02A94F6CFF6018681978102C08FEF9FEF62
S11334002B96E2E10C94241C0F931F93CF93DF932C
S1133410869F8001879F100D969F100D1124C8016F
S11334200E94201AEC01009729F0A80160E070E0E6
S11334300E944C1BCE01DF91CF911F910F910895F3
S11334400F931F93CF93DF938230910510F482E0A2
S113345090E0E0916004F091610420E030E0A0E0AD
S1133460B0E0309719F140815181028113814817EE
S11334705907C8F08417950769F4109731F012962C
S11334800C93129713961C9327C000936004109317
S1133490610422C02115310519F04217530718F4AD
S11334A09A01BD01EF01DF01F801DBCF21153105E0
S11334B0F9F0281B390B2430310580F48A819B8173
S11334C06115710521F0FB019383828304C09093FD
S11334D0610480936004FE01329644C0FE01E20F51
S11334E0F31F8193919322503109398328833AC081
S11334F020915E0430915F04232B41F4209102015A
S11335003091030130935F0420935E042091000105
S1133510309101012115310541F42DB73EB7409199
S1133520040150910501241B350BE0915E04F091D8
S11335305F04E217F307A0F42E1B3F0B281739078B
S113354078F0AC014E5F5F4F2417350748F04E0FFB
S11335505F1F50935F0440935E048193919302C074
S1133560E0E0F0E0CF01DF91CF911F910F9108953A
S1133570CF93DF93009709F481C0FC013297138243
S11335801282A0916004B0916104109781F42081AB
S11335903181820F931F20915E0430915F042817BC
S11335A0390751F5F0935F04E0935E0467C0ED01C1
S11335B020E030E0CE17DF0740F44A815B819E01B2
S11335C041155105F1F0EA01F5CFD383C28340815F
S11335D05181840F951FC817D90759F4888199819F
S11335E0840F951F0296918380838A819B819383A4
S11335F082832115310529F4F0936104E09360047A
S11336003DC0E901FB83EA8349915991C40FD51F59
S1133610EC17FD0761F480819181840F951F029658
S1133620E90199838883828193819B838A83E0E083
S1133630F0E012968D919C911397009719F0FD017B
S1133640DC01F7CF8D919C9111979D012E5F3F4F27
S1133650820F931F20915E0430915F04281739076D
S113366069F4309729F4109261041092600402C046
S113367013821282B0935F04A0935E04DF91CF9112
S11336800895FC010590615070400110D8F78095B1
S113369090958E0F9F1F0895DC0101C06D934150DA
S11336A05040E0F70895FC01615070400190011012
S11336B0D8F7809590958E0F9F1F0895DC01FC012B
S11336C0672F71917723E1F7329704C07C916D9352
S11336D070836291AE17BF07C8F308950F931F93C9
S11336E0CF93DF93FB01238121FD03C08FEF9FEF75
S11336F02CC022FF16C04681578124813581421790
S1133700530744F4A081B1819D012F5F3F4F318362
S113371020838C93268137812F5F3F4F3783268305
S113372014C08B01EC01FB010084F185E02D0995A7
S1133730892BE1F6D80116968D919C9117970196E5
S113374017969C938E931697CE01DF91CF911F917C
S11337500F910895FA01AA27283051F1203181F1FF
S1133760E8946F936E7F6E5F7F4F8F4F9F4FAF4F85
S1133770B1E03ED0B4E03CD0670F781F891F9A1F98
S1133780A11D680F791F8A1F911DA11D6A0F711D4C
S1133790811D911DA11D20D009F468943F912AE058
S11337A0269F11243019305D3193DEF6CF01089540
S11337B0462F4770405D4193B3E00FD0C9F7F6CF71
S11337C0462F4F70405D4A3318F0495D31FD405239
S11337D0419302D0A9F7EACFB4E0A69597958795CF
S11337E077956795BA95C9F70097610571050895AE
S11337F09B01AC010A2E069457954795379527955A
S1133800BA95C9F7620F731F841F951FA01D0895F1
S11338102F923F924F925F926F927F928F929F92DC
S1133820AF92BF92CF92DF92EF92FF920F931F93CA
S1133830CF93DF93CDB7DEB7CA1BDB0B0FB6F8947B
S1133840DEBF0FBECDBF09942A88398848885F84BB
S11338506E847D848C849B84AA84B984C884DF802C
S1133860EE80FD800C811B81AA81B981CE0FD11D10
S11338700FB6F894DEBF0FBECDBFED010895F894E6
S1053880FFCF74
S1133882000062042000030001000101C503C50316
S1133892C503C503C503C503C503C503C503C503E2
S11338A2C503C5030100120010760378037A037C72
S11338B2037E038003880182038403860388038AC8
S11338C2038C038E03900392039403960398039A42
S11338D2039C039E03A003A203A403C503C503C55B
S11338E203C5034552524F522E2E4552524F522E69
S11338F22E2E4E4F524D414C204D4F4445204E4F9B
S11339025420574F524B494E470043414E20696E53
S113391269746961746564200A0D0043414E206E26
S11339226F7420696E697469617465642070726F62
S11339327065726C79200A0D00204A6F797374697C
S1133942636B20696E69746961746564200A0D0091
S1133952204A6F79737469636B206E6F7420696E89
S1133962697469617465642070726F7065726C79D0
S11339720A0D004552524F522E2E4552524F522E8C
S11339822E2E434F4E464947204E4F5420574F52F6
S11339924B494E47005D5F600030300050757368DC
S11339A2204220746F207374617274002A2053744D
S11339B26172742067616D650020204469666669DE
S11339C263756C74790020204869676873636F7249
S11339D265730020204D696E692D506F6E6700205B
S11339E22053746172742067616D65002A204469F2
S11339F266666963756C7479002A2048696768731E
S1133A02636F726573002A204D696E692D506F6E63
S1133A1267002A3E456173793C0020204D65646944
S1133A22756D002020486172640020204261636B3E
S1133A3200203E456173793C002A204D6564697516
S1133A426D002A2048617264002A204261636B007F
S1133A522A204561737900203E4D656469756D3C89
S1133A6200202045617379002A3E4D656469756DB5
S1133A723C00203E486172643C002A3E4861726404
S1133A823C002A4261636B202020205265736574D6
S1133A9200204261636B2020202A52657365740002
S1133AA241726520796F7520737572653F00202A13
S1133AB24E6F202020205965730020204E6F202055
S1133AC2202A596573004E657720486967687363D5
S1133AD26F7265210054797065206E616D653A00DC
S1133AE25E5E5E5E0057656C6C20706C6179656425
S1133AF22C0021207E004100420043004400450086
S1133B024600480049004A004B004C004D004E005C
S1133B124F0050005100520053005400550056000B
S1133B2257005800590053686F6F7420746F2073E4
S1133B32746172742100596F75206C6F73742068FC
S1133B4265616C74682E0053686F6F7420746F0023
S1133B52636F6E74696E7565210068705F6C6F7354
S1133B62743A202564200A200D004865616C74684B
S1133B723A207D7D7D20004865616C74683A207D21
S1133B827D20004865616C74683A207D200053638F
S1093B926F72653A200089
S9030000FC
