S00D00004E6F6465312E7372656360
S11300000C9438000C9455000C9455000C94550035
S11300100C9455000C9455000C9455000C94550008
S11300200C9455000C9455000C9455000C945500F8
S11300300C9455000C9455000C9455000C945500E8
S11300400C9455000C9455000C9455000C945500D8
S11300500C9455000C9455000C9455000C945500C8
S11300600C9455000C9455000C9455000C945500B8
S113007011241FBECFEFD4E0DEBFCDBF11E0A0E05E
S1130080B1E0EEE2FCE002C005900D92A037B107AA
S1130090D9F721E0A0E7B1E001C01D92AC37B20767
S11300A0E1F70E940B010C9415060C94000085B72F
S11300B0806885BF80B7806280BFBA9880E090E096
S11300C00895843048F48460E0E0F4E1808384EAB5
S11300D08A95F1F78081089580E0089580E00E9478
S11300E061008093710181E00E946100809370013E
S11300F080E090E008950E94570087B3887F87BB13
S113010088B3876088BB0E946E0080E090E0089509
S1130110CF9381E00E946100C82F80E00E946100BB
S1130120E82F409171014C1798F450E02C2F30E0E7
S1130130241B350B64E6629FC001639F900D11245C
S11301406FEF70E0641B750B0E948701F62F13C0DC
S1130150C41780F4642F70E02C2F30E0261B370B7B
S113016044E6429FC001439F900D11240E948701E1
S1130170F62F01C0F0E0209170012E1798F430E0C2
S11301804E2F50E0421B530B64E6649FC001659FF1
S1130190900D11246FEF70E0621B730B0E948701B6
S11301A0762F13C0E21780F430E04E2F50E0421B4C
S11301B0530B64E6649FC001659F900D1124B9013F
S11301C00E948701762F01C070E06F2F80E090E0DD
S11301D0CF9108950E948800462F572F282F392F3A
S11301E06E3C2CF063332CF02BE031E002C026E0AF
S11301F031E05E3C2CF053332CF026E131E002C0B8
S113020021E131E0411104C0511102C029E131E082
S1130210822F932F08958EE190E00E947A010E942C
S113022057000E947B0081E291E09F938F930E948C
S1130230FA010F900F900F2EF5E3CF2EF1E0DF2E91
S1130240F02D0F2EF8E4EF2EF1E0FF2EF02D0CE54B
S113025011E00E94EA00D62FC72F9F938F93DF925D
S1130260CF920E94FA0129EC8FE791E0215080405F
S11302709040E1F700C000008D2F0D2E000C990B6B
S11302809F93DF93FF92EF920E94FA0129EC8FE78C
S113029091E0215080409040E1F700C000008DB70C
S11302A09EB708960FB6F8949EBF0FBE8DBF8C2FD5
S11302B00C2E000C990B9F93CF931F930F930E94C6
S11302C0FA0199EC2FE781E0915020408040E1F75A
S11302D000C000000F900F900F900F90BACF5D9B5D
S11302E0FECF8CB980E090E008955F9BFECF8CB187
S11302F090E0089590BD89B988E18AB98EE880BDFF
S113030065E771E08FE691E00E94AF01089597FBE5
S1130310072E16F4009407D077FD09D00E949B01A4
S113032007FC05D03EF4909581959F4F08957095F4
S113033061957F4F0895AA1BBB1B51E107C0AA1FFB
S1130340BB1FA617B70710F0A61BB70B881F991F72
S11303505A95A9F780959095BC01CD0108950F9306
S11303601F93CF93DF93009731F46115710519F44E
S113037080E090E03AC08B01EC016EE070E081E037
S113038090E00E94E203FC01892B91F380E88383CF
S11303900115110571F01387028781E88383809129
S11303A0720190917301892B21F4F0937301E0930E
S11303B072012097C9F0D187C087838182608383CB
S11303C08091740190917501892B71F4F0937501FA
S11303D0E09374018091760190917701892B21F447
S11303E0F0937701E0937601CF01DF91CF911F91D4
S11303F00F910895A0E0B0E0E0E0F2E00C94EE0587
S1130400AE014B5F5F4FFA0161917191AF01809131
S11304107401909175010E941002E2E00C940A06A6
S1130420ACE0B0E0E6E1F2E00C94DE057C016B01A7
S11304308A01FC0117821682838181FFBDC1CE012E
S113044001964C01F7019381F60193FD859193FF89
S113045081916F01882309F4ABC1853239F493FD8E
S1130460859193FF81916F01853229F4B70190E062
S11304700E944805E7CF512C312C20E02032A0F413
S11304808B3269F030F4803259F0833269F42061A0
S11304902CC08D3239F0803339F4216026C02260BB
S11304A0246023C0286021C027FD27C030ED380F09
S11304B03A3078F426FF06C0FAE05F9E300D11242E
S11304C0532E13C08AE0389E300D1124332E20623F
S11304D00CC08E3221F426FD6BC1206406C08C361C
S11304E011F4206802C0883641F4F60193FD859129
S11304F093FF81916F018111C1CF982F9F7D9554F6
S1130500933028F40C5F1F4FFFE3F9830DC083364B
S113051031F0833771F0833509F05BC022C0F801F4
S1130520808189830E5F1F4F44244394512C5401CE
S113053015C03801F2E06F0E711CF801A080B18083
S113054026FF03C0652D70E002C06FEF7FEFC50189
S11305502C870E943D052C0183012C852F77222EA8
S113056017C03801F2E06F0E711CF801A080B18051
S113057026FF03C0652D70E002C06FEF7FEFC50159
S11305802C870E942B052C012C852068222E8301A8
S113059023FC1BC0832D90E048165906B0F4B70124
S11305A080E290E00E9448053A94F4CFF50127FCDC
S11305B0859127FE81915F01B70190E00E94480573
S11305C031103A94F1E04F1A51084114510471F773
S11305D0E5C0843611F0893639F5F80127FF07C0E4
S11305E060817181828193810C5F1F4F08C060819B
S11305F07181072E000C880B990B0E5F1F4F2F760D
S1130600722E97FF09C090958095709561957F4FE4
S11306108F4F9F4F2068722E2AE030E0A4010E9481
S11306208005A82EA81844C0853729F42F7EB22E41
S11306302AE030E025C0F22FF97FBF2E8F36C1F0BB
S113064018F4883579F0B4C0803719F0883721F070
S1130650AFC02F2F2061B22EB4FE0DC08B2D84604D
S1130660B82E09C024FF0AC09F2F9660B92E06C079
S113067028E030E005C020E130E002C020E132E0B3
S1130680F801B7FE07C060817181828193810C5F9C
S11306901F4F06C06081718180E090E00E5F1F4FA4
S11306A0A4010E948005A82EA818FB2DFF777F2E99
S11306B076FE0BC0372D3E7FA51450F474FE0AC09D
S11306C072FC08C0372D3E7E05C0BA2C372D03C0FE
S11306D0BA2C01C0B52C34FF0DC0FE01EA0DF11D8A
S11306E08081803311F4397E09C032FF06C0B3948F
S11306F0B39404C0832F867809F0B39433FD13C0F8
S113070030FF06C05A2CB31418F4530C5B18B32CE6
S1130710B31468F4B70180E290E03C870E94480576
S1130720B3943C85F5CFB31410F43B1801C0312CBD
S113073034FF12C0B70180E390E03C870E94480573
S11307403C8532FF17C031FD03C088E790E002C04A
S113075088E590E0B7010CC0832F867859F031FF0B
S113076002C08BE201C080E237FD8DE2B70190E068
S11307700E944805A51438F4B70180E390E00E9474
S113078048055A94F7CFAA94F401EA0DF11D80812B
S1130790B70190E00E944805A110F5CF332009F479
S11307A051CEB70180E290E00E9448053A94F6CF1A
S11307B0F7018681978102C08FEF9FEF2C96E2E1CB
S11307C00C94FA050F931F93CF93DF93869F8001B8
S11307D0879F100D969F100D1124C8010E94FE03DF
S11307E0EC01009729F0A80160E070E00E94360552
S11307F0CE01DF91CF911F910F910895CF93DF9395
S11308008230910510F482E090E0E0917A01F09159
S11308107B0120E030E0C0E0D0E0309711F140816E
S1130820518148175907C0F04817590761F482816C
S11308309381209719F09B838A832BC090937B012B
S113084080937A0126C02115310519F04217530708
S113085018F49A01BE01DF01EF010280F381E02D5B
S1130860DCCF2115310509F1281B390B2430310562
S113087090F412968D919C9113976115710521F056
S1130880FB019383828304C090937B0180937A015C
S1130890FD01329644C0FD01E20FF31F8193919351
S11308A0225031092D933C933AC020917801309124
S11308B07901232B41F420910201309103013093FB
S11308C079012093780120910001309101012115D3
S11308D0310541F42DB73EB7409104015091050113
S11308E0241B350BE0917801F0917901E217F307AD
S11308F0A0F42E1B3F0B2817390778F0AC014E5F8C
S11309005F4F2417350748F04E0F5F1F509379014E
S1130910409378018193919302C0E0E0F0E0CF012D
S1130920DF91CF9108950F931F93CF93DF93009797
S113093009F48CC0FC0132971382128200917A016F
S113094010917B010115110581F420813181820F01
S1130950931F20917801309179012817390779F58F
S1130960F0937901E093780171C0D80140E050E040
S1130970AE17BF0750F412962D913C911397AD0119
S11309802115310509F1D901F3CF9D01DA01338332
S1130990228360817181860F971F8217930769F400
S11309A0EC0128813981260F371F2E5F3F4F318399
S11309B020838A819B8193838283452B29F4F0933E
S11309C07B01E0937A0142C01396FC93EE93129755
S11309D0ED01499159919E01240F351FE217F30748
S11309E071F480819181840F951F029611969C93D6
S11309F08E938281938113969C938E931297E0E059
S1130A00F0E0D80112968D919C911397009719F0FC
S1130A10F8018C01F6CF8D919C9198012E5F3F4F88
S1130A20820F931F2091780130917901281739079B
S1130A3069F4309729F410927B0110927A0102C074
S1130A40138212821093790100937801DF91CF9180
S1130A501F910F910895FC010590615070400110A1
S1130A60D8F7809590958E0F9F1F0895DC0101C0E3
S1130A706D9341505040E0F70895FC01615070407F
S1130A8001900110D8F7809590958E0F9F1F0895BF
S1130A900F931F93CF93DF93FB01238121FD03C0A9
S1130AA08FEF9FEF28C022FF16C046815781248113
S1130AB035814217530744F4A081B1819D012F5F12
S1130AC03F4F318320838C93268137812F5F3F4FA3
S1130AD03783268310C0EB01092F182F0084F1857A
S1130AE0E02D0995892BE1F68E819F8101969F83E4
S1130AF08E83812F902FDF91CF911F910F910895B5
S1130B00FA01AA27283051F1203181F1E8946F933A
S1130B106E7F6E5F7F4F8F4F9F4FAF4FB1E03ED0E0
S1130B20B4E03CD0670F781F891F9A1FA11D680F7E
S1130B30791F8A1F911DA11D6A0F711D811D911DB1
S1130B40A11D20D009F468943F912AE0269F112426
S1130B503019305D3193DEF6CF010895462F47708A
S1130B60405D4193B3E00FD0C9F7F6CF462F4F70E5
S1130B70405D4A3318F0495D31FD4052419302D043
S1130B80A9F7EACFB4E0A6959795879577956795E9
S1130B90BA95C9F700976105710508959B01AC01E9
S1130BA00A2E06945795479537952795BA95C9F710
S1130BB0620F731F841F951FA01D08952F923F92EB
S1130BC04F925F926F927F928F929F92AF92BF9259
S1130BD0CF92DF92EF92FF920F931F93CF93DF9305
S1130BE0CDB7DEB7CA1BDB0B0FB6F894DEBF0FBE62
S1130BF0CDBF09942A88398848885F846E847D84AF
S1130C008C849B84AA84B984C884DF80EE80FD80B0
S1130C100C811B81AA81B981CE0FD11D0FB6F89426
S1110C20DEBF0FBECDBFED010895F894FFCFE7
S1130C2E00007C0120004C4546540052494748546C
S1130C3E00444F574E005550004E45555452414CAA
S1130C4E002D2D2D2D54494E472046554E4B2D2DFE
S1130C5E2D2D0A0D00706F737369736A6F6E2065A4
S1130C6E72202573200A0D00726574746E696E67A6
S1130C7E2078206572202564200A0D007265747434
S1130C8E6E696E672079206572202564200A0D0036
S9030000FC
