S00C0000556172742E737265637C
S11300000C94D1010C94F0020C94EE010C94EE01CA
S11300100C94EE010C94EE010C94EE010C94EE01A0
S11300200C94EE010C94EE010C94EE010C94EE0190
S11300300C94EE010C94EE010C94EE010C94EE0180
S11300400C94EE010C94EE010C94EE010C94EE0170
S11300500C94EE010C94EE010C94EE010C94EE0160
S11300600C94EE010C94EE010C94EE010C94EE0150
S11300702A052A0689060A076407B107FE075D08F0
S1130080BD0815097309C0091F0A760AD30A310B82
S11300907D0BD40B280C740CC80C140D680DB40D16
S11300A0690E1E0F630FDB0F8010000000000000BC
S11300B0000000065F5F0600000000070700070756
S11300C00000147F7F147F7F1400242E6B6B3A1280
S11300D00000466630180C666200307A4F5D377A4D
S11300E048000407030000000000001C3E634100B8
S11300F000000041633E1C000000082A3E1C1C3E18
S11301002A0808083E3E0808000000A0E06000003D
S113011000000808080808080000000060600000EB
S113012000006030180C060301003E7F594D7F3EED
S1130130000042427F7F40400000627359496F666D
S11301400000226349497F360000181C16137F7F84
S11301501000276745457D3900003C7E4B497930C6
S11301600000036371190F070000367F49497F3689
S11301700000064F49693F1E000000006C6C00003F
S1130180000000A0EC6C00000000081C3663410075
S113019000001414141414140000004163361C08E5
S11301A00000020351590F0600003E7F415D5D1FB0
S11301B01E007C7E13137E7C0000417F7F49497FB3
S11301C036001C3E634141632200417F7F41637FCF
S11301D01C00417F7F495D416300417F7F491D01D0
S11301E003001C3E6341517372007F7F08087F7FC8
S11301F0000000417F7F41000000307040417F3F9C
S11302000100417F7F081C776300417F7F4140608C
S113021070007F7F060C067F7F007F7F060C187FAF
S11302207F001C3E6341633E1C00417F7F49090FF0
S113023006001E3F21717F5E0000417F7F19396FE8
S1130240460026674D597B32000003417F7F4103FE
S113025000007F7F40407F7F00001F3F60603F1FA2
S113026000007F7F3018307F7F0063771C081C7785
S11302706300074F78784F0700006773594D476351
S11302807100007F7F41410000000000000006066D
S11302900202000000000E0606060002020202022C
S11302A0020006060606060606060606060E0000F8
S11302B00000207454543C784000413F7F44447C07
S11302C03800387C44446C280000307848493F7F2B
S11302D04000387C54545C180000487E7F49030277
S11302E0000098BCA4A4F87C0400417F7F08047C2F
S11302F0780000447D7D4000000040C484FD7D0002
S11303000000417F7F10386C440000417F7F400033
S113031000007C7C0C180C7C78007C7C04047C78C9
S11303200000387C44447C38000084FCF8A4243C5D
S11303301800183C24A4F8FC8400447C78441C185D
S11303400000485C54547424000000043E7F44249C
S113035000003C7C40403C7C40001C3C60603C1CF9
S113036000003C7C6030607C3C00446C3810386C8D
S113037044009CBCA0A0FC7C00004C64745C4C64F5
S1130380000008083E774141000000000077770034
S11303900000001E3FFCFC3F1E00387C7C7C7C3847
S11303A0000011241FBECFEFD4E0DEBFCDBF14E0A8
S11303B0A0E0B1E0E8E9F8E302C005900D92A430B2
S11303C0B107D9F724E0A4E0B4E001C01D92AF3432
S11303D0B207E1F70E94EC030C944A1C0C94000051
S11303E085B7806885BF80B7806280BFBA9880E097
S11303F090E00895843048F48460E0E0F4E1808380
S113040084EA8A95F1F78081089580E008950E9436
S1130410E0044FEF64E680E60E94A80440E060EE4A
S11304208FE00E94A80441E061E08BE20E94A804EE
S113043080E090E0089580E30E94CE0484FD05C02E
S113044085FD06C080E090E008958FEF9FEF08954A
S11304508EEF9FEF089580E30E94CE0486958695E3
S1130460869591E08927817090E008950F931F93FA
S1130470CF938C010E942B02892BC1F1F80160817A
S1130480718175956795759567957595679581E300
S11304900E948004F80160817181660F771F629564
S11304A07295707F7627607F762782E30E948004AE
S11304B0F80162816F7085E30E948004F8018281F3
S11304C0882371F0C0E0F801EC0FF11D638186E32D
S11304D08C0F0E948004CF5FF8018281C81798F3C3
S11304E081E00E94960480E090E007C00E941B0215
S11304F0990F990B892F990F990BCF911F910F91F8
S1130500089540E061E08CE20E94A80481E08093B9
S1130510040480E090E008959F92AF92BF92CF923E
S1130520DF92EF92FF920F931F93CF93DF93CDB798
S1130530DEB72B970FB6F894DEBF0FBECDBF5C01BC
S113054080910404813059F581E60E94CE04C82EBE
S113055082E60E94CE04D12CCC0CDD1CCC0CDD1C1C
S1130560CC0CDD1C829586958770C82A85E60E948E
S1130570CE048F70982E81F07E0184E0E80EF11C89
S113058006E6090D16E6812F0E94CE04F701819339
S11305907F011F5F1013F7CF1092040403C0CC2413
S11305A0CA94DC2CDA82C9829B828BE0FE013196EC
S11305B0D50101900D928A95E1F7C5012B960FB6EE
S11305C0F894DEBF0FBECDBFDF91CF911F910F9185
S11305D0FF90EF90DF90CF90BF90AF909F900895E1
S11305E01F920F920FB60F9211242F933F934F93A4
S11305F05F936F937F938F939F93AF93BF93EF9387
S1130600FF9389EF9FE20197F1F70E948102FF9126
S1130610EF91BF91AF919F918F917F916F915F9176
S11306204F913F912F910F900FBE0F901F901895EF
S113063080E00E94FA0180930F0481E00E94FA0195
S113064080930E0480E090E008950E94F00187B347
S1130650887F87BB88B3876088BB0E94180380E0CB
S113066090E008958130910559F08230910579F038
S1130670892BA9F496B381E08927817090E00895CD
S113068086B3869591E08927817090E0089586B3BA
S11306908695869591E08927817090E0089580E0A1
S11306A090E00895CF9381E00E94FA01C82F80E082
S11306B00E94FA01E82F40910F044C1798F450E07F
S11306C02C2F30E0241B350B64E6629FC001639F2E
S11306D0900D11246FEF70E0641B750B0E946F176F
S11306E0462F13C0C41780F4642F70E02C2F30E021
S11306F0261B370B44E6429FC001439F900D1124F3
S11307000E946F17462F01C040E020910E042E175F
S113071090F430E0F0E0E21BF30B54E65E9FC0017E
S11307205F9F900D11246FEF70E0621B730B0E94AA
S11307306F17762F13C0E21780F4622F70E02E2F0C
S113074030E0261B370B54E6529FC001539F900D97
S113075011240E946F17762F01C070E0642F80E08F
S113076090E0CF9108950E945203272F633D24F017
S11307706E321CF091E001C092E0233D24F02E3251
S11307801CF081E001C082E02CE2260F293530F410
S11307902CE2270F293510F490E080E00895CF93E0
S11307A082E00E94FA01C82F83E00E94FA01482FD8
S11307B024E62C9FC0011124EFEFF0E0BF010E945A
S11307C06F17362F249FC0011124BF010E946F1799
S11307D0962F832FCF910895F8948BB780648BBFA5
S11307E085B785BF8A988EE190E00E948D150E949E
S11307F0F0010E945F150E94E0040E9425030E94FC
S113080079150E94A9120E9418030E940702892BDD
S113081089F481E691E09F938F930E941818E0E198
S1130820F4E081E090E09183808388E082830F90FC
S11308300F9008C082E791E09F938F930E9418184D
S11308400F900F900E942503892B49F480E991E0D1
S11308509F938F930E9418180F900F9008C087EAF7
S113086091E09F938F930E9418180F900F907894A3
S1130870C0E1D4E0EC2EFD2EDD24D39401E010E0A1
S11308800E94B30360932D0470932E0480932F046D
S1130890909330040E94CF039093320480933104E8
S11308A08091060190910701019759F40E94020575
S11308B090930701809306011F828E2D9F2D0E9425
S11308C0360280910601909107010297C9F6809142
S11308D008018E83DF82CE010E9436028EED9FEEE8
S11308E00197F1F78091080190E00E94A41490937D
S11308F00604809305041093070100930601C0CFFA
S1130900CF93DF93D82FC62F0E94751582E00E94E3
S113091068158D2F0E9468158C2F0E9468150E94FF
S1130920771580E090E0DF91CF910895CF938830E0
S113093018F4C82FC06801C0C0E80E9475158C2F38
S11309400E9468150E94771580E090E0CF91089589
S11309501F93CF93DF93182FD62FC42F0E947515A2
S113096085E00E946815812F0E9468158D2F0E94D2
S113097068158C2F0E9468150E94771580E090E01E
S1130980DF91CF911F9108950E94751580EC0E940C
S113099068150E94771580E090E00895CF93C82FE2
S11309A00E94751583E00E9468158C2F0E946815BB
S11309B00E946E15C82F0E9477158C2FCF91089531
S11309C0CF93DF931F92CDB7DEB70E945F150E94CD
S11309D0C4048EE00E94CE0489838981807E80389D
S11309E059F08AEC91E09F938F930E9418180F900E
S11309F00F9081E090E002C080E090E00F90DF91E2
S1130A00CF9108952F923F924F925F926F927F926F
S1130A108F929F92AF92BF92CF92DF92EF92FF920A
S1130A200F931F93CF93DF93CDB7DEB72E970FB6F7
S1130A30F894DEBF0FBECDBFE0910D048E2F90E081
S1130A408D31910510F00C940112FC01E85CFF4F0C
S1130A500C9483170E949D121E821D820F2EC12C9E
S1130A60D12CF0E8EF2EFFE3FF2EF02D2601370105
S1130A704601570180E090E0A0E0B0E489839A83C6
S1130A80AB83BC830DE214E00F2EFCE12F2EF02D7E
S1130A90DAC00E949D1220E030E040E85FE3C70125
S1130AA0B6010E949A150E940C1687E00E947012EB
S1130AB08CEF91E00E946A1366E081E00E9470125C
S1130AC0ED81FE813A972CF480E092E00E946A1353
S1130AD009C02D813E812436310524F481E092E061
S1130AE00E946A134AE065E374E08D819E810E944E
S1130AF0A8170E946A13C701B6010E940C16362E6D
S1130B0069817A818B819C810E940C16862F632DCA
S1130B100E9470128CEA93E00E946A1361E088E0FC
S1130B200E94701283E092E00E946A13A50194016E
S1130B30C701B6010E949B156B017C0120E030E0E7
S1130B4040E05FE3C301B2010E94B5169B01AC0112
S1130B5069817A818B819C810E949B1569837A8348
S1130B608B839C8320E030E040EC50E40E94071625
S1130B7081110AC077FA709477F870948D819E8100
S1130B8001969E838D8310C020E030E040E050E465
S1130B9069817A818B819C810E940716811104C02E
S1130BA077FA709477F8709420E030E040E751E4ED
S1130BB0C701B6010E940716811105C0B7FAB094A7
S1130BC0B7F8B0940DC020E030E0A901C701B60128
S1130BD00E940716811104C0B7FAB094B7F8B09414
S1130BE00E94B30360932D0470932E0480932F040A
S1130BF0909330049CEBAFEDB1E09150A040B04035
S1130C00E1F70000F8018381813019F420920D048A
S1130C101AC0823019F420920D0415C082818130EB
S1130C2019F480930D040FC0823021F481E0809385
S1130C300D0409C081E090E00E943203892B19F46D
S1130C4081E080930D0480910D04882309F421CF61
S1130C500C9401120E949D1261E081E00E947012C6
S1130C6081E192E00E946A1361E083E00E947012C5
S1130C708EE192E00E946A1361E085E00E947012A6
S1130C808BE292E00E946A1361E087E00E94701296
S1130C9088E392E00E946A13B3E9EFEFF2E0B15007
S1130CA0E040F040E1F700C0000012E004E02BC097
S1130CB00E94B30360932D0470932E0480932F0439
S1130CC0909330048EED9FEE0197F1F780912F04FD
S1130CD0813019F400930D0416C0823019F4109376
S1130CE00D0411C081E090E00E943203892B59F475
S1130CF08BE180930D0482E090E090930701809350
S1130D0006010C94011280910D04813089F20C9437
S1130D1001120E949D1261E081E00E94701280E441
S1130D2092E00E946A1361E083E00E9470128DE4F5
S1130D3092E00E946A1361E085E00E9470128BE2E7
S1130D4092E00E946A1361E087E00E94701288E3D7
S1130D5092E00E946A1393E9AFEFB2E09150A04091
S1130D60B040E1F700C000000F2EFDE0DF2EF02DB3
S1130D700F2EF9E0EF2EF02D0F2EF5E0FF2EF02DC3
S1130D8011E003E040C00E94B30360932D0470930C
S1130D902E0480932F0490933004EEEDFFEE3197F0
S1130DA0F1F780912F04813019F400930D042BC0C6
S1130DB0823019F410930D0426C081E090E00E9463
S1130DC03203892B39F480912201813019F4F09295
S1130DD00D0419C081E090E00E943203892B39F49C
S1130DE080912201823019F4E0920D040CC081E05C
S1130DF090E00E943203892B31F4809122018330E8
S1130E0011F4D0920D0480910D04823009F4BBCF0B
S1130E100C9401120E949D1261E081E00E94701204
S1130E2080E492E00E946A1361E083E00E94701201
S1130E308EE192E00E946A1361E085E00E947012E4
S1130E408AE592E00E946A1361E087E00E947012D2
S1130E5088E392E00E946A13F3E92FEF32E0F15045
S1130E6020403040E1F700C000000F2EF9E0FF2ED3
S1130E70F02D12E004E022C00E94B30360932D041D
S1130E8070932E0480932F04909330048EED9FEE84
S1130E900197F1F780912F04813019F400930D0428
S1130EA00DC0823019F410930D0408C081E090E065
S1130EB00E943203892B11F4F0920D0480910D04E9
S1130EC08330D1F20C9401120E949D1261E081E002
S1130ED00E94701280E492E00E946A1361E083E051
S1130EE00E9470128EE192E00E946A1361E085E034
S1130EF00E9470128BE292E00E946A1361E087E024
S1130F000E94701287E692E00E946A1393E9AFEFA1
S1130F10B2E09150A040B040E1F700C0000003E00F
S1130F2011E019C00E94B30360932D0470932E0442
S1130F3080932F0490933004EEEDFFEE3197F1F798
S1130F4080912F04813019F410930D0404C0823071
S1130F5011F400930D0480910D04843019F30C9462
S1130F6001120E949D1261E081E00E9470128FE6DE
S1130F7092E00E946A1361E083E00E94701288E7A5
S1130F8092E00E946A1361E085E00E94701281E899
S1130F9092E00E946A1361E087E00E94701288E880
S1130FA092E00E946A13F3E92FEF32E0F1502040FF
S1130FB03040E1F700C0000008E016E019C00E94CC
S1130FC0B30360932D0470932E0480932F049093A5
S1130FD030048EED9FEE0197F1F780912F0481305C
S1130FE019F410930D0404C0823011F400930D041D
S1130FF080910D04853019F30C9401120E949D1206
S113100061E081E00E9470128FE892E00E946A130E
S113101061E083E00E94701288E992E00E946A1302
S113102061E085E00E94701281E892E00E946A13F8
S113103061E087E00E94701288E892E00E946A13DF
S113104093E9AFEFB2E09150A040B040E1F700C0A7
S113105000006894EE24E1F80F2EFAE0FF2EF02D44
S113106015E007E024C00E94B30360932D0470933D
S11310702E0480932F0490933004EEEDFFEE31970D
S1131080F1F780912F04813019F400930D040FC0FF
S1131090823019F410930D040AC081E090E00E949C
S11310A03203892B21F4E0922201F0920D04809105
S11310B00D048630C1F20C9401120E949D1261E06D
S11310C081E00E9470128FE892E00E946A1361E04E
S11310D083E00E94701288E792E00E946A1361E044
S11310E085E00E94701281EA92E00E946A1361E036
S11310F087E00E94701288E892E00E946A13F3E984
S11311002FEF32E0F15020403040E1F700C0000002
S11311100F2EF3E0EF2EF02D0F2EFFE0FF2EF02D1B
S113112016E008E024C00E94B30360932D0470937A
S11311302E0480932F04909330048EED9FEE01973C
S1131140F1F780912F04813019F400930D040FC03E
S1131150823019F410930D040AC081E090E00E94DB
S11311603203892B21F4E0922201F0920D04809144
S11311700D048730C1F20C9401120E949D1261E0AB
S113118081E00E9470128FE892E00E946A1361E08D
S113119083E00E94701288E792E00E946A1361E083
S11311A085E00E94701281E892E00E946A1361E077
S11311B087E00E94701288EA92E00E946A1393E921
S11311C0AFEFB2E09150A040B040E1F700C00000A2
S11311D0FF24F39417E005E022C00E94B303609358
S11311E02D0470932E0480932F0490933004EEED1D
S11311F0FFEE3197F1F780912F04813019F40093B9
S11312000D040DC0823019F410930D0408C081E060
S113121090E00E943203892B11F4F0920D04809126
S11312200D048830D1F20C9401120E949D1261E0E9
S113123081E00E9470128FEA92E00E946A1361E0DA
S113124083E00E94701288EC92E00E946A1361E0CD
S113125085E00E94701281E892E00E946A1361E0C6
S113126087E00E94701288E892E00E946A13F3E912
S11312702FEF32E0F15020403040E1F700C0000091
S11312800F2EF5E0EF2EF02DFF24F3941CE00AE07E
S113129024C00E94B30360932D0470932E048093A2
S11312A02F04909330048EED9FEE0197F1F7809117
S11312B02F04813019F400930D040FC0823019F407
S11312C010930D040AC081E090E00E943203892B40
S11312D021F4E0920D04F092220180910D048930F2
S11312E0C1F20C9401120E949D1261E081E00E94FF
S11312F070128FE892E00E946A1361E083E00E941A
S1131300701286EB92E00E946A1361E085E00E940D
S1131310701281E892E00E946A1361E087E00E9403
S1131320701288E892E00E946A1393E9AFEFB2E08A
S11313309150A040B040E1F700C0000009E01BE07C
S113134019C00E94B30360932D0470932E048093FC
S11313502F0490933004EEEDFFEE3197F1F7809176
S11313602F04813019F410930D0404C0823011F459
S113137000930D0480910D048A3019F30C9401122A
S11313800E949D1261E081E00E94701280EC92E064
S11313900E946A1361E083E00E94701287EC92E07D
S11313A00E946A1361E085E00E94701281EA92E073
S11313B00E946A1361E087E00E94701288E892E05C
S11313C00E946A13F3E92FEF32E0F15020403040DD
S11313D0E1F700C000000F2EFFE0EF2EF02D0F2EDE
S11313E0F3E0FF2EF02D1AE00CE024C00E94B303BA
S11313F060932D0470932E0480932F0490933004F3
S11314008EED9FEE0197F1F780912F04813019F44E
S113141000930D040FC0823019F410930D040AC018
S113142081E090E00E943203892B21F4E0920D04C4
S1131430F092220180910D048B30C1F2E2C70E9428
S11314409D1261E081E00E94701280EC92E00E94A3
S11314506A1361E083E00E94701288EC92E00E94BB
S11314606A1361E085E00E94701281E892E00E94B4
S11314706A1361E087E00E94701288EA92E00E9499
S11314806A1393E9AFEFB2E09150A040B040E1F7A6
S113149000C00000FF24F3941BE009E022C00E9476
S11314A0B30360932D0470932E0480932F049093C0
S11314B03004EEEDFFEE3197F1F780912F04813087
S11314C019F400930D040DC0823019F410930D0427
S11314D008C081E090E00E943203892B11F4F0925D
S11314E00D0480910D048C30D1F28BC70E949D12A3
S11314F061E081E00E9470128FEA92E00E946A1318
S113150061E083E00E94701288E792E00E946A130F
S113151061E085E00E9470128CED92E00E946A13F3
S113152061E087E00E94701288E892E00E946A13EA
S1131530F3E92FEF32E0F15020403040E1F700C0F2
S113154000000F2EF5E0EF2EF02DFF24F39410E1B0
S11315500EE024C00E94B30360932D0470932E0404
S113156080932F04909330048EED9FEE0197F1F752
S113157080912F04813019F400930D040FC0823040
S113158019F410930D040AC081E090E00E94320324
S1131590892B21F4E0920D04F092220180910D0434
S11315A08D30C1F22EC70E949D1261E081E00E943D
S11315B0701280EC92E00E946A1361E083E00E9462
S11315C0701288E992E00E946A1361E085E00E944B
S11315D0701282ED92E00E946A1361E087E00E943B
S11315E0701288E892E00E946A1393E9AFEFB2E0C8
S11315F09150A040B040E1F700C000000F2EFAE087
S1131600EF2EF02D6894FF24F1F81DE000E124C0D2
S11316100E94B30360932D0470932E0480932F04CF
S113162090933004EEEDFFEE3197F1F780912F04A3
S1131630813019F400930D040FC0823019F4109313
S11316400D040AC081E090E00E943203892B21F44A
S1131650E0920D04F092220180910D048E30C1F2CB
S1131660D0C60E949D1261E081E00E94701280EC5D
S113167092E00E946A1361E083E00E94701288E79E
S113168092E00E946A1361E085E00E9470128BED83
S113169092E00E946A1361E087E00E94701288E879
S11316A092E00E946A13F3E92FEF32E0F1502040F8
S11316B03040E1F700C000000EE010E119C00E94C4
S11316C0B30360932D0470932E0480932F0490939E
S11316D030048EED9FEE0197F1F780912F04813055
S11316E019F410930D0404C0823011F400930D0416
S11316F080910D048F3019F384C60E949D1261E01D
S113170081E00E94701280EC92E00E946A1361E012
S113171083E00E94701288E792E00E946A1361E0FD
S113172085E00E9470128CED92E00E946A1361E0E1
S113173087E00E94701288EA92E00E946A1393E99B
S1131740AFEFB2E09150A040B040E1F700C000001C
S1131750FF24F3941FE00DE022C00E94B3036093C2
S11317602D0470932E0480932F0490933004EEED97
S1131770FFEE3197F1F780912F04813019F4009333
S11317800D040DC0823019F410930D0408C081E0DB
S113179090E00E943203892B11F4F0920D048091A1
S11317A00D048031D1F22DC60E949D1261E082E0C9
S11317B00E94701284EE92E00E946A1361E087E056
S11317C00E94701288E892E00E946A13F3E92FEFF6
S11317D032E0F15020403040E1F700C0000033C057
S11317E00E94B30360932D0470932E0480932F04FE
S11317F0909330048EEA9FE3A2E081509040A04091
S1131800E1F700C0000080913004813021F483E1CD
S113181080930D04F6C5823021F485E180930D0494
S1131820F0C580912F04823021F482E180930D046D
S1131830E8C581E090E00E943203892B21F481E025
S113184080932101DEC580910D04813149F2D9C50F
S11318500E949D1261E082E00E94701283EF92E088
S11318600E946A1361E087E00E94701288EA92E0A5
S11318700E946A13B3E9EFEFF2E0B150E040F040A8
S1131880E1F700C000002BC00E94B30360932D0455
S113189070932E0480932F04909330042EEA3FE338
S11318A082E0215030408040E1F700C00000809188
S11318B02F04823021F481E180930D04A2C581308C
S11318C021F481E180930D049CC581E090E00E94A5
S11318D03203892B21F481E080930D0492C5809119
S11318E00D04823189F28DC50E949D1261E082E06F
S11318F00E94701280E093E00E946A1361E087E026
S11319000E94701288E892E00E946A1393E9AFEF94
S1131910B2E09150A040B040E1F700C0000033C0F5
S11319200E94B30360932D0470932E0480932F04BC
S113193090933004EEEAFFE322E0E150F0402040CF
S1131940E1F700C0000080913004813021F485E18A
S113195080930D0456C5823021F481E180930D04F7
S113196050C580912F04823021F484E180930D04CA
S113197048C581E090E00E943203892B21F482E083
S1131980809321013EC580910D04833149F239C50C
S11319900E949D1261E082E00E9470128FE093E049
S11319A00E946A1361E087E00E94701288EA92E064
S11319B00E946A1333E98FEF92E0315080409040E7
S11319C0E1F700C000002BC00E94B30360932D0414
S11319D070932E0480932F0490933004AEEABFE3F7
S11319E0E2E0A150B040E040E1F700C00000809187
S11319F02F04823021F483E180930D0402C58130E9
S1131A0021F483E180930D04FCC481E090E00E9402
S1131A103203892B21F481E080930D04F2C4809178
S1131A200D04843189F2EDC40E949D1261E082E0CC
S1131A300E9470128CE193E00E946A1361E087E0D7
S1131A400E94701288E892E00E946A13F3E92FEF73
S1131A5032E0F15020403040E1F700C0000033C0D4
S1131A600E94B30360932D0470932E0480932F047B
S1131A70909330048EEA9FE3A2E081509040A0400E
S1131A80E1F700C0000080913004813021F481E14D
S1131A9080930D04B6C4823021F483E180930D0455
S1131AA0B0C480912F04823021F486E180930D0428
S1131AB0A8C481E090E00E943203892B21F483E0E2
S1131AC0809321019EC480910D04853149F299C40B
S1131AD00E949D1261E082E00E9470128BE293E00A
S1131AE00E946A1361E087E00E94701288EA92E023
S1131AF00E946A13B3E9EFEFF2E0B150E040F04026
S1131B00E1F700C000002BC00E94B30360932D04D2
S1131B1070932E0480932F04909330042EEA3FE3B5
S1131B2082E0215030408040E1F700C00000809105
S1131B302F04823021F485E180930D0462C4813046
S1131B4021F485E180930D045CC481E090E00E945F
S1131B503203892B21F481E080930D0452C48091D7
S1131B600D04863189F24DC40E949D1263E082E027
S1131B700E947012A9E1B1E001E211E0BA83A983E5
S1131B80E981FA8181919191FA83E9830E946A1330
S1131B9029813A810217130799F769E082E00E94CC
S1131BA070124AE065E374E080910B0490910C0498
S1131BB00E94A8170E946A1363E083E00E947012D7
S1131BC081E191E009E111E09A838983A981BA81D5
S1131BD08D919D91BA83A9830E946A13E981FA8148
S1131BE0E017F10799F769E083E00E9470124AE078
S1131BF065E374E08091090490910A040E94A81797
S1131C000E946A1363E084E00E94701229E031E0CC
S1131C1001E111E03A832983A981BA818D919D91D3
S1131C20BA83A9830E946A13E981FA810E171F07F8
S1131C3099F769E084E00E9470124AE065E374E079
S1131C4080910704909108040E94A8170E946A13C7
S1131C5061E086E00E94701288E393E00E946A13B8
S1131C60F3E92FEF32E0F15020403040E1F700C0BB
S1131C70000011E029C00E94B30360932D04709307
S1131C802E0480932F04909330048EEA9FE3A2E005
S1131C9081509040A040E1F700C0000080913004E2
S1131CA0813021F488E180930D04ABC3823021F4A8
S1131CB088E180930D04A5C381E090E00E94320383
S1131CC0892B11F410930D0480910D04873199F23E
S1131CD098C30E949D1263E082E00E947012E9E1C1
S1131CE0F1E001E211E0FA83E983A981BA818D91DF
S1131CF09D91BA83A9830E946A13E981FA810E1720
S1131D001F0799F769E082E00E9470124AE065E3D8
S1131D1074E080910B0490910C040E94A8170E9417
S1131D206A1363E083E00E94701221E131E009E16B
S1131D3011E03A832983A981BA818D919D91BA8357
S1131D40A9830E946A13E981FA810E171F0799F784
S1131D5069E083E00E9470124AE065E374E08091D8
S1131D60090490910A040E94A8170E946A1363E070
S1131D7084E00E94701229E031E001E111E03A832D
S1131D802983A981BA818D919D91BA83A9830E94E7
S1131D906A13E981FA810E171F0799F769E084E055
S1131DA00E9470124AE065E374E080910704909108
S1131DB008040E94A8170E946A1361E086E00E944A
S1131DC0701287E493E00E946A13F3E92FEF32E084
S1131DD0F15020403040E1F700C0000019E129C073
S1131DE00E94B30360932D0470932E0480932F04F8
S1131DF0909330048EEA9FE3A2E081509040A0408B
S1131E00E1F700C0000080913004813021F487E1C3
S1131E1080930D04F6C2823021F487E180930D048F
S1131E20F0C281E090E00E943203892B11F41093F8
S1131E300D0480910D04883199F2E3C20E949D1231
S1131E4061E083E00E94701286E593E00E946A13C9
S1131E5061E085E00E94701284E693E00E946A13B8
S1131E60B3E9EFEFF2E0B150E040F040E1F700C039
S1131E70000007E11AE122C00E94B30360932D041D
S1131E8070932E0480932F04909330048EED9FEE74
S1131E900197F1F780913004813019F410930D0407
S1131EA00DC0823019F410930D0408C081E090E055
S1131EB00E943203892B11F400930D0480910D04C8
S1131EC08931D1F29EC20E949D1261E083E00E949A
S1131ED0701286E593E00E946A1361E085E00E9437
S1131EE0701280E793E00E946A1393E9AFEFB2E0C7
S1131EF09150A040B040E1F700C000000DE214E0B2
S1131F00CC24C3940F2EF1E2EF2EF1E0FF2EF02D3E
S1131F100F2EFCE7AF2EF3E0BF2EF02D0F2EF9E1CC
S1131F20DF2EF02D42C00E94B30360932D04709302
S1131F302E0480932F0490933004EEEDFFEE31973E
S1131F40F1F7D80113968C91813019F4D0920D04D5
S1131F502CC0823019F4D0920D0427C081E090E0A7
S1131F600E943203892B09F5C0920D04E9E1F1E0E6
S1131F7081E191E049E051E0A192B192DC01AD929E
S1131F80BD92CD01DA01AD92BD92AD01EE16FF0610
S1131F9099F710920C0410920B0410920A041092F8
S1131FA00904109208041092070480910D048A31E8
S1131FB009F4B9CF26C280910504909106042091BA
S1131FC00B0430910C0482179307DCF10E947B13FD
S1131FD009E011E0A1E1B1E0E9E1F1E041E151E022
S1131FE0BF012D913C911197F801219331938F01F9
S1131FF0FB01208131812D933D93FC01219131918D
S1132000CF01FB0121933193BF010417150749F751
S11320108091090490910A04909308048093070422
S113202080910B0490910C0490930A04809309040A
S1132030809105049091060490930C0480930B0402
S11320405BC02091090430910A048217930774F14C
S11320500E947B132BE031E03A832983DC01129642
S1132060E3E1F1E00896B901AF01FA012081318181
S1132070FB0121933193BF012D913D91FA012193ED
S11320803193AF01A817B90781F7809109049091A2
S11320900A049093080480930704809105049091A6
S11320A0060490930A048093090426C0209107042F
S11320B03091080482179307FCF00E947B13DC0123
S11320C012968D919C911397E9E0F1E093838283BA
S11320D014968D919C9115979583848316968D9172
S11320E09C911797978386838091050490910604A9
S11320F0909308048093070481E080930D0481C1C8
S11321000E949D1280E090E0A0E8BFE38D839E834F
S1132110AF83B8871A86198689839A83AB83BC8375
S11321204C015D012C013D01C12CD12C7601689438
S1132130F6F80DE214E033243394A0E0B0E0BE8757
S1132140AD875AC10E949D1220E030E040E050E487
S11321506D817E818F8198850E949A150E940C164C
S113216087E00E9470128CEF91E00E946A136981EB
S11321707A818B819C810E940C16262EC701B601A0
S11321800E940C16862F622D0E9470128CEA93E036
S11321900E946A1367E088E00E94701220E030E039
S11321A040EC50E4C701B6010E940716811141C0FA
S11321B069817A818B819C810E94221769877A8741
S11321C08B879C879B01AC016D817E818F81988573
S11321D00E940716882341F120E030E040E85FE3E5
S11321E06D817E818F8198850E949A159B01AC0137
S11321F069857A858B859C850E9407168823A1F0C2
S113220020E030E040E85FE36D817E818F81988536
S11322100E949B159B01AC0169857A858B859C8501
S11322200E94071681110BC0ED85FE853196FE874D
S1132230ED872D853E852A30310544F402C01E8683
S11322401D8680E092E00E946A1309C08D859E85F8
S11322508436910524F481E092E00E946A134AE0F6
S113226065E374E08D859E850E94A8170E946A1319
S113227020E030E040E85EE3C301B2010E94B516FD
S11322809B01AC0169817A818B819C810E949B15A1
S113229069837A838B839C8320E030E040E05FE3B2
S11322A0C501B4010E94B5169B01AC01C701B6017A
S11322B00E949B156B017C0120E030E040EC50E46F
S11322C00E940716811105C0B7FAB094B7F8B0940C
S11322D00EC020E030E040E050E4C701B6010E94A7
S11322E00716811104C0B7FAB094B7F8B09420E08F
S11322F030E040E751E469817A818B819C810E94BE
S11323000716811105C077FA709477F870940FC09E
S113231020E030E0A90169817A818B819C810E944F
S11323200716811104C077FA709477F870940E94AC
S1132330B30360932D0470932E0480932F04909321
S113234030049CEBAFEDB1E09150A040B040E1F718
S11323500000F80183818130F9F420E030E040E8A6
S11323605FE36D817E818F8198850E949B156D83CB
S11323707E838F83988720E030E040E751E40E9419
S1132380B0161816CCF580E090E0A0E7B1E48D8398
S11323909E83AF83B88730C08230F9F420E030E008
S11323A040E85FE36D817E818F8198850E949A1554
S11323B06D837E838F83988720E030E040E85FE37D
S11323C00E9407168823C4F480E090E0A0E8BFE3ED
S11323D08D839E83AF83B8870FC08281823024F0BF
S11323E081E080930D040DC081E090E00E943203EF
S11323F0892B11F430920D0480910D048C3109F471
S1132400A1CE80910601909107012E960FB6F89403
S1132410DEBF0FBECDBFDF91CF911F910F91FF9013
S1132420EF90DF90CF90BF90AF909F908F907F9070
S11324306F905F904F903F902F90089510922C04CE
S113244010922904E0912501F091260183ED808307
S1132450E0912501F091260188EC8083E09125012B
S1132460F091260181E28083E0912501F09126011B
S11324701082E0912501F09126018FE78083E0919D
S11324802501F091260182E28083E0912501F091FB
S113249026011082E0912501F091260187E08083D6
S11324A080E090E00895CF93C82F0E941E12C83098
S11324B098F4C0932C04E0912501F0912601108238
S11324C0E0912501F091260180E18083E0912501CE
S11324D0F0912601C06BC08380E090E0CF91089515
S11324E0CF93C62F0E945312C03198F48C2F880FBB
S11324F0880F880F80932904E0912501F09126012B
S11325008F708083E0912501F0912601C062C69509
S1132510C08380E090E0CF9108950E94531280E838
S113252090E0E0912301F091240110820197C9F712
S11325300E941E1280E090E00895CF93C0E08C2F9B
S11325400E948D12CF5FC830D1F780E090E0CF9128
S1132550089585B7806885BF80B7806280BFE091A9
S11325602501F09126018EEA8083E0912501F09106
S1132570260181EA8083E0912501F09126018AED0C
S11325808083E0912501F091260182E18083E0912E
S11325902501F091260188EC8083E0912501F091DA
S11325A0260188EA8083E0912501F09126018FE3DA
S11325B08083E0912501F091260185ED8083E091EF
S11325C02501F091260180E88083E0912501F091B6
S11325D0260181E88083E0912501F091260180E5C0
S11325E08083E0912501F091260189ED8083E091BB
S11325F02501F091260181E28083E0912501F0918B
S1132600260180E28083E0912501F091260182E099
S11326108083E0912501F09126018BED8083E09188
S11326202501F091260180E38083E0912501F0915A
S113263026018DEA8083E0912501F0912601108224
S1132640E0912501F091260184EA8083E09125013F
S1132650F091260186EA8083E0912501F09126011C
S11326608FEA8083E0912501F091260180EB80833D
S1132670E0912501F09126011082E0912501F0916D
S1132680260180E180830E949D120E941E1280E038
S113269090E00895282F30E0F901EE0FFF1FEE0FB0
S11326A0FF1FEE0FFF1FE655F040220F331F220FCE
S11326B0331F220F331F2E543040A0912301B091B9
S11326C0240194919C933196E217F307B1F780E0CB
S11326D090E00895CF93DF93EC018881882331F053
S11326E021960E944A1389918111FBCF80E090E0EA
S11326F0DF91CF9108956F927F928F929F92AF92C4
S1132700BF92CF92DF92EF92FF920F931F93CF93DA
S1132710DF93CDB7DEB7EA970FB6F894DEBF0FBEEE
S1132720CDBF0E949D1261E082E00E9470128EE78C
S113273093E00E946A1363E083E00E9470128DE8C4
S113274093E00E946A1366E086E00E94701288E9B2
S113275093E00E946A1382E3E7E2F1E0DE0111965E
S113276001900D928A95E1F788E0E9E5F1E0DE0158
S1132770D39601900D928A95E1F74E0123E3820EE0
S1132780911C64010F2EF6E06F2EF02DA12CB12CBC
S113279084C085E00E948D121A141B049CF48401E9
S11327A00F2EF6E07F2EF02D672D85E00E9470122B
S11327B0F801819191918F010E946A1373940C1511
S11327C01D0591F7662D85E00E947012F701EE0F4A
S11327D0FF1F21E030E02C0F3D1FE20FF31F80812B
S11327E091810E946A130E94B3033FE34DE0E3E04A
S11327F031504040E040E1F700C00000813021F456
S1132800FFEFEF1AFF0A05C0823019F421E0E21A43
S1132810F10839E1E316F1040CF065C0FF200CF473
S113282065C0913071F4EE0CFF1CE1E0F0E0EC0FB8
S1132830FD1FEE0DFF1D80819181F6019183808340
S113284022C081E090E00E943203892BB9F4AA0CE3
S1132850BB1CA1E0B0E0AC0FBD1FAA0DBB1DEE0C6C
S1132860FF1CE1E0F0E0EC0FFD1FEE0DFF1D808189
S11328709181D3969C938E93D29712C0FEE1EF166A
S1132880F1040CF486CF2FEFA21AB20A32E0C30E81
S1132890D11C63944AE0641619F0E12CF12C79CF31
S11328A00E949D1262E083E00E9470128DE993E021
S11328B00E946A1364E086E00E9470128CEA93E03E
S11328C00E946A1366E086E00E9470128E01055C25
S11328D01F4FF401819191914F010E946A130815D1
S11328E01905B9F709C0E12CF12C53CF0F2EF9E1EA
S11328F0EF2EF12CF02D4DCF6AE086E00E9470128D
S11329008AEA93E00E946A13FFE72FE432E1F15070
S113291020403040E1F700C00000CE01C396EA96A3
S11329200FB6F894DEBF0FBECDBFDF91CF911F91DC
S11329300F91FF90EF90DF90CF90BF90AF909F905A
S11329408F907F906F9008958F929F92AF92BF92D5
S1132950CF92DF92EF92FF920F931F93CF93DF9367
S1132960CDB7DEB72B970FB6F894DEBF0FBECDBF41
S11329700E94B3030E949D1262E084E00E947012E0
S113298080EE93E00E946A132FED83E994E02150D6
S113299080409040E1F700C0000081E090E00E9498
S11329A03203892B29F781E090E00E94320380935F
S11329B0150480E194E00E943602C12CD12C0F2E24
S11329C0F3E0AF2EB12CF02D00E114E068948824DC
S11329D081F8912C0E94CF03F82E0E94B303F801D2
S11329E06383F48281E090E00E943203F8018583DE
S11329F0C8010E943602CE0101960E948C028BE02F
S1132A00FE013196ADE1B4E001900D928A95E1F7B3
S1132A10EDE1F4E01382148287EA91E60197F1F77D
S1132A2000C00000E82CF92C9FEFC91AD90AE8E08D
S1132A30CE16D10439F50E949D1262E082E00E9414
S1132A40701280EF93E00E946A134AE050E065E35D
S1132A5074E0C5010E949D170E946A1362E084E03D
S1132A600E9470128CEF93E00E946A134AE050E0D7
S1132A7065E374E080E090E00E949D170E946A1371
S1132A80C12CD12CA114B10429F0F2E0EF16F10409
S1132A9009F4A0CF80E090E02B960FB6F894DEBF47
S1132AA00FBECDBFDF91CF911F910F91FF90EF909B
S1132AB0DF90CF90BF90AF909F908F90089587B391
S1132AC0806B87BBBE9881E58DB980E090E0089566
S1132AD08FB9779BFECF80E090E0089580E00E945C
S1132AE06815779BFECF8FB10895C4980895C49A52
S1132AF0089585B7806885BF80B7806280BF80E015
S1132B0090E008955D9BFECF8CB980E090E008953D
S1132B105F9BFECF8CB190E0089590BD89B988E1A8
S1132B208AB98EE880BD68E875E182E895E10E9483
S1132B30CD1708955058BB27AA270E94B2150C94AC
S1132B4076160E94681638F00E946F1620F039F449
S1132B509F3F19F426F40C9465160EF4E095E7FBF8
S1132B600C945F16E92F0E94871658F3BA17620770
S1132B7073078407950720F079F4A6F50C94A91639
S1132B800EF4E0950B2EBA2FA02D0B01B901900184
S1132B900C01CA01A0011124FF27591B99F0593FC8
S1132BA050F4503E68F11A16F040A22F232F342F10
S1132BB04427585FF3CF469537952795A795F0405E
S1132BC05395C9F77EF41F16BA0B620B730B840B73
S1132BD0BAF09150A1F0FF0FBB1F661F771F881F2B
S1132BE0C2F70EC0BA0F621F731F841F48F4879583
S1132BF077956795B795F7959E3F08F0B0CF939575
S1132C00880F08F09927EE0F9795879508950E94ED
S1132C103B1608F481E008950E948F1688F09F57B0
S1132C2098F0B92F9927B751B0F0E1F0660F771FEC
S1132C30881F991F1AF0BA95C9F714C0B13091F0E2
S1132C400E94A916B1E008950C94A916672F782F55
S1132C508827B85F39F0B93FCCF3869577956795A7
S1132C60B395D9F73EF490958095709561957F4F13
S1132C708F4F9F4F0895990F0008550FAA0BE0E856
S1132C80FEEF16161706E807F907C0F0121613062A
S1132C90E407F50798F0621B730B840B950B39F46A
S1132CA00A2661F0232B242B252B21F408950A26D0
S1132CB009F4A140A6958FEF811D811D089597F910
S1132CC09F6780E870E060E008959FEF80EC0895CE
S1132CD000240A94161617061806090608950024F7
S1132CE00A9412161306140605060895092E039471
S1132CF0000C11F4882352F0BB0F40F4BF2B11F4E5
S1132D0060FF04C06F5F7F4F8F4F9F4F089557FD43
S1132D109058440F551F59F05F3F71F04795880F45
S1132D2097FB991F61F09F3F79F0879508951216DC
S1132D3013061406551FF2CF4695F1DF08C0161688
S1132D4017061806991FF1CF869571056105089439
S1132D500895E894BB2766277727CB0197F9089550
S1132D600E943B1608F48FEF08950E94C8160C9435
S1132D7076160E94681638F00E946F1620F095238C
S1132D8011F00C945F160C94651611240C94AA1679
S1132D900E94871670F3959FC1F3950F50E0551F5D
S1132DA0629FF001729FBB27F00DB11D639FAA279C
S1132DB0F00DB11DAA1F649F6627B00DA11D661FEB
S1132DC0829F2227B00DA11D621F739FB00DA11D0C
S1132DD0621F839FA00D611D221F749F3327A00DC6
S1132DE0611D231F849F600D211D822F762F6A2F62
S1132DF011249F5750409AF0F1F088234AF0EE0FC7
S1132E00FF1FBB1F661F771F881F91505040A9F7F3
S1132E109E3F510580F00C945F160C94AA165F3FF8
S1132E20E4F3983ED4F3869577956795B795F7952F
S1132E30E7959F5FC1F7FE2B880F911D96958795A7
S1132E4097F908950E948F16E8F09E37E8F09639B6
S1132E50B8F49E3848F4672F782F8827985FF9CF05
S1132E6086957795679593959539D0F3B62FB1707C
S1132E706B0F711D811D20F4879577956795939548
S1132E800C9446170C9461170C94AA16882371F4B9
S1132E90772321F09850872B762F07C0662311F4EF
S1132EA099270DC09051862B70E060E02AF09A9526
S1132EB0660F771F881FDAF7880F9695879597F91D
S1132EC008959F3F31F0915020F487957795679549
S1132ED0B795880F911D9695879597F9089597FB57
S1132EE0072E16F4009407D077FD09D00E948917A5
S1132EF007FC05D03EF4909581959F4F08957095F9
S1132F0061957F4F0895EE0FFF1F0590F491E02D1A
S1132F100994AA1BBB1B51E107C0AA1FBB1FA6171C
S1132F20B70710F0A61BB70B881F991F5A95A9F76E
S1132F3080959095BC01CD0108954532510520F44A
S1132F40423010F00C94A817FB011082CB010895B5
S1132F50BB274A3031F4992322F4BDE29095819540
S1132F609F4F0C94B417BB27FB015527AA27880F42
S1132F70991FAA1FA41710F0A41B83955051B9F7E9
S1132F80A05DAA3308F0A95DA193009779F7B11168
S1132F90B1931192CB010C94691B0F931F93CF93A0
S1132FA0DF93009731F46115710519F480E090E026
S1132FB03AC08B01EC016EE070E081E090E00E9489
S1132FC00F1AFC01892B91F380E883830115110505
S1132FD071F01387028781E883838091450490917F
S1132FE04604892B21F4F0934604E093450420978A
S1132FF0C9F0D187C087838182608383809147042D
S113300090914804892B71F4F0934804E0934704A9
S11330108091490490914A04892B21F4F0934A0445
S1133020E0934904CF01DF91CF911F910F9108954F
S1133030A0E0B0E0EEE1F8E10C94231CAE014B5F9C
S11330405F4FFA0161917191AF01809147049091B2
S113305048040E942E18E2E00C943F1CABE0B0E060
S1133060E4E3F8E10C94131C6C017B018A01FC017C
S113307017821682838181FFCCC1CE0101963C0167
S1133080F6019381F70193FD859193FF81917F016F
S1133090882309F4BAC1853239F493FD859193FFED
S11330A081917F01853229F4B60190E00E94791B59
S11330B0E7CF912C212C312CFFE1F315D8F08B3282
S11330C079F038F4803279F08332A1F4232D206131
S11330D01DC08D3261F0803369F4232D216016C048
S11330E0832D8260382EE32DE4603E2E2AC0F32D1A
S11330F0F8601DC037FC2DC020ED280F2A3040F0A9
S11331008E32B9F436FC81C1232D2064322E19C0CD
S113311036FE06C08AE0989E200D1124922E11C01E
S1133120EAE02E9E200D1124222EF32DF0623F2E74
S113313008C08C3621F4832D8068382E02C088366E
S113314041F4F70193FD859193FF81917F018111F2
S1133150B3CF982F9F7D9554933028F40C5F1F4F65
S11331609FE399830DC0833631F0833771F0833543
S113317009F059C021C0F801808189830E5F1F4F77
S113318088248394912C530113C02801F2E04F0E3C
S1133190511CF801A080B18036FE03C0692D70E097
S11331A002C06FEF7FEFC5010E945E1B4C018201DC
S11331B0F32DFF773F2E16C0280122E0420E511C4A
S11331C0F801A080B18036FE03C0692D70E002C012
S11331D06FEF7FEFC5010E944C1B4C01F32DF0688B
S11331E03F2E820133FC1BC0822D90E08816990685
S11331F0B0F4B60180E290E00E94791B2A94F4CFE7
S1133200F50137FC859137FE81915F01B60190E0AD
S11332100E94791B21102A9421E0821A91088114BA
S1133220910471F7E8C0843611F0893641F5F8014C
S113323037FE07C060817181828193810C5F1F4FCB
S113324008C060817181072E000C880B990B0E5FFA
S11332501F4FF32DFF763F2E97FF09C09095809561
S1133260709561957F4F8F4F9F4FF0683F2E2AE0F6
S113327030E0A3010E94B51B882E861845C085370F
S113328031F4232D2F7EB22E2AE030E025C0932D79
S1133290997FB92E8F36C1F018F4883579F0B5C00E
S11332A0803719F0883721F0B0C0E92FE061BE2ED5
S11332B0B4FE0DC0FB2DF460BF2E09C034FE0AC05D
S11332C0292F2660B22E06C028E030E005C020E198
S11332D030E002C020E132E0F801B7FE07C06081AF
S11332E07181828193810C5F1F4F06C0608171815F
S11332F080E090E00E5F1F4FA3010E94B51B882E53
S11333008618FB2DFF773F2E36FE0DC0232D2E7F12
S1133310A22E891458F434FE0BC032FC09C0832D4C
S11333208E7EA82E05C0B82CA32C03C0B82C01C0D7
S1133330B92CA4FE0FC0FE01E80DF11D808180337D
S113334021F49A2D997EA92E09C0A2FE06C0B39439
S1133350B39404C08A2D867809F0B394A3FC11C0F9
S1133360A0FE06C0B21488F4280C922C9B180EC040
S1133370B21460F4B60180E290E00E94791BB39429
S1133380F7CFB21418F42B1802C0982C212CA4FEE9
S113339010C0B60180E390E00E94791BA2FE17C022
S11333A0A1FC03C088E790E002C088E590E0B60184
S11333B00CC08A2D867859F0A1FE02C08BE201C0B0
S11333C080E2A7FC8DE2B60190E00E94791B89148B
S11333D038F4B60180E390E00E94791B9A94F7CF09
S11333E08A94F301E80DF11D8081B60190E00E94FA
S11333F0791B8110F5CF222009F442CEB60180E278
S113340090E00E94791B2A94F6CFF6018681978179
S113341002C08FEF9FEF2B96E2E10C942F1C0F93C9
S11334201F93CF93DF93869F8001879F100D969FF4
S1133430100D1124C8010E942B1AEC01009729F0E9
S1133440A80160E070E00E94571BCE01DF91CF918C
S11334501F910F9108950F931F93CF93DF938230A1
S1133460910510F482E090E0E0914D04F0914E0457
S113347020E030E0A0E0B0E0309719F140815181C4
S11334800281138148175907C8F08417950769F416
S1133490109731F012960C93129713961C9327C031
S11334A000934D0410934E0422C02115310519F0E8
S11334B04217530718F49A01BD01EF01DF01F80127
S11334C0DBCF21153105F9F0281B390B24303105E8
S11334D080F48A819B816115710521F0FB0193833E
S11334E0828304C090934E0480934D04FE0132966F
S11334F044C0FE01E20FF31F8193919322503109DE
S1133500398328833AC020914B0430914C04232BF7
S113351041F4209102013091030130934C04209333
S11335204B0420910001309101012115310541F432
S11335302DB73EB74091040150910501241B350B72
S1133540E0914B04F0914C04E217F307A0F42E1B16
S11335503F0B2817390778F0AC014E5F5F4F2417F3
S1133560350748F04E0F5F1F50934C0440934B04B3
S11335708193919302C0E0E0F0E0CF01DF91CF911D
S11335801F910F910895CF93DF93009709F481C0A1
S1133590FC01329713821282A0914D04B0914E0423
S11335A0109781F420813181820F931F20914B0465
S11335B030914C042817390751F5F0934C04E093EB
S11335C04B0467C0ED0120E030E0CE17DF0740F484
S11335D04A815B819E0141155105F1F0EA01F5CF65
S11335E0D383C28340815181840F951FC817D907A3
S11335F059F488819981840F951F02969183808361
S11336008A819B81938382832115310529F4F09368
S11336104E04E0934D043DC0E901FB83EA834991E4
S11336205991C40FD51FEC17FD0761F48081918176
S1133630840F951F0296E90199838883828193817F
S11336409B838A83E0E0F0E012968D919C9113971E
S1133650009719F0FD01DC01F7CF8D919C91119732
S11336609D012E5F3F4F820F931F20914B04309199
S11336704C042817390769F4309729F410924E0442
S113368010924D0402C013821282B0934C04A09392
S11336904B04DF91CF910895FC0105906150704077
S11336A00110D8F7809590958E0F9F1F0895DC0127
S11336B001C06D9341505040E0F70895FC01615002
S11336C0704001900110D8F7809590958E0F9F1F40
S11336D00895DC01FC01672F71917723E1F732979C
S11336E004C07C916D9370836291AE17BF07C8F3D9
S11336F008950F931F93CF93DF93FB01238121FD43
S113370003C08FEF9FEF2CC022FF16C04681578164
S1133710248135814217530744F4A081B1819D016E
S11337202F5F3F4F318320838C93268137812F5F16
S11337303F4F3783268314C08B01EC01FB010084C7
S1133740F185E02D0995892BE1F6D80116968D9126
S11337509C911797019617969C938E931697CE017A
S1133760DF91CF911F910F910895FA01AA27283074
S113377051F1203181F1E8946F936E7F6E5F7F4F3A
S11337808F4F9F4FAF4FB1E03ED0B4E03CD0670FB6
S1133790781F891F9A1FA11D680F791F8A1F911D09
S11337A0A11D6A0F711D811D911DA11D20D009F459
S11337B068943F912AE0269F11243019305D31939B
S11337C0DEF6CF010895462F4770405D4193B3E084
S11337D00FD0C9F7F6CF462F4F70405D4A3318F02B
S11337E0495D31FD4052419302D0A9F7EACFB4E0DC
S11337F0A6959795879577956795BA95C9F7009794
S11338006105710508959B01AC010A2E0694579534
S1133810479537952795BA95C9F7620F731F841F8B
S1133820951FA01D08952F923F924F925F926F9221
S11338307F928F929F92AF92BF92CF92DF92EF923C
S1133840FF920F931F93CF93DF93CDB7DEB7CA1BBD
S1133850DB0B0FB6F894DEBF0FBECDBF09942A88E8
S1133860398848885F846E847D848C849B84AA8490
S1133870B984C884DF80EE80FD800C811B81AA811D
S1133880B981CE0FD11D0FB6F894DEBF0FBECDBFE8
S10B3890ED010895F894FFCF47
S113389800004F0420000100017C037C037C037CAE
S11338A8037C037C037C037C037C037C037C037C14
S11338B803010100120010AE03B003B203B403B64F
S11338C803B803BA03BC03BE03C003C203C403C6DC
S11338D803C803CA03CC03CE03D003D203D403D64C
S11338E803D803DA03DC03DE037C037C037C037C58
S11338F80343414E20696E69746961746564200AE2
S11339080D0043414E206E6F7420696E69746961BD
S11339187465642070726F7065726C79200A0D008A
S1133928204A6F79737469636B20696E697469617D
S1133938746564200A0D00204A6F79737469636B97
S1133948206E6F7420696E6974696174656420708F
S1133958726F7065726C790A0D004D4350323531BF
S113396835206973204E4F5420696E20636F6E664C
S1133978696775726174696F6E206D6F6465206123
S11339886674657220726573657421005D5F6000FA
S1133998303000507265737320616E79206B6579DD
S11339A8002A2053746172742067616D65002020B9
S11339B8446966666963756C747900202048696790
S11339C86873636F7265730020204D7573696300B3
S11339D8202053746172742067616D65002A204445
S11339E86966666963756C7479002A204869676832
S11339F873636F726573002A204D75736963002AB7
S1133A08203E456173793C0020204D656469756DDD
S1133A18002020486172640020204261636B00200A
S1133A28203E456173793C002A204D656469756DB3
S1133A38002A2048617264002A204261636B002ACC
S1133A482045617379002A3E4D656469756D3C00B3
S1133A582020456173790020203E4D656469756DA9
S1133A683C0020203E686172643C002A203E486184
S1133A7872643C00203E2053616E676E61766E313D
S1133A88203C0020202053616E676E61766E310001
S1133A98203E2053616E676E61766E32203C0020B2
S1133AA8202053616E676E61766E3200203E20538B
S1133AB8616E676E61766E33203C0020202053616E
S1133AC86E676E61766E33002A4261636B20202034
S1133AD820526573657400204261636B2020202A9C
S1133AE852657365740041726520796F752073752A
S1133AF872653F00202A4E6F2020202059657300EC
S1133B0820204E6F2020202A596573002E004E6510
S1133B1877204869676873636F7265210054797008
S1133B2865206E616D653A005E5E5E5E0057656C89
S1133B386C20706C617965642C0021207E00410042
S1133B48420043004400450046004700480049003D
S1133B584A004B004C004D004E004F0050005100ED
S1133B68520053005400550056005700580059009D
S1133B7853686F6F7420746F2073746172742100BA
S1133B884865616C74683A207D7D7D0053636F726B
S1073B98653A200066
S9030000FC
