S00C0000556172742E737265637C
S11300000C94B4010C9410030C94D1010C94D10100
S11300100C94D1010C94D1010C94D1010C94D10114
S11300200C94D1010C94D1010C94D1010C94D10104
S11300300C94D1010C94D1010C94D1010C94D101F4
S11300400C94D1010C94D1010C94D1010C94D101E4
S11300500C94D1010C94D1010C94D1010C94D101D4
S11300600C94D1010C94D1010C94D1010C94D101C4
S1130070000000000000000000065F5F06000000B2
S11300800007070007070000147F7F147F7F140018
S1130090242E6B6B3A120000466630180C66620020
S11300A0307A4F5D377A48000407030000000000EF
S11300B0001C3E63410000000041633E1C00000040
S11300C0082A3E1C1C3E2A0808083E3E0808000078
S11300D000A0E0600000000008080808080800000C
S11300E000006060000000006030180C060301008E
S11300F03E7F594D7F3E000042427F7F40400000DA
S1130100627359496F660000226349497F360000D3
S1130110181C16137F7F1000276745457D390000A2
S11301203C7E4B4979300000036371190F070000CE
S1130130367F49497F360000064F49693F1E00005B
S113014000006C6C0000000000A0EC6C00000000DB
S1130150081C366341000000141414141414000025
S1130160004163361C080000020351590F060000C9
S11301703E7F415D5D1F1E007C7E13137E7C00006C
S1130180417F7F49497F36001C3E63414163220021
S1130190417F7F41637F1C00417F7F495D41630054
S11301A0417F7F491D0103001C3E6341517372006E
S11301B07F7F08087F7F000000417F7F41000000AF
S11301C0307040417F3F0100417F7F081C7763000E
S11301D0417F7F41406070007F7F060C067F7F0077
S11301E07F7F060C187F7F001C3E6341633E1C002A
S11301F0417F7F49090F06001E3F21717F5E000089
S1130200417F7F19396F460026674D597B320000C4
S113021003417F7F410300007F7F40407F7F0000D8
S11302201F3F60603F1F00007F7F3018307F7F00DA
S113023063771C081C776300074F78784F0700002A
S11302406773594D47637100007F7F41410000008F
S11302500103060C183060000041417F7F0000005C
S1130260080C0603060C0800808080808080808053
S11302700000030704000000207454543C7840003C
S1130280413F7F44447C3800387C44446C2800005F
S1130290307848493F7F4000387C54545C18000053
S11302A0487E7F490302000098BCA4A4F87C0400A3
S11302B0417F7F08047C780000447D7D400000007D
S11302C040C484FD7D000000417F7F10386C4400F1
S11302D000417F7F400000007C7C0C180C7C78007F
S11302E07C7C04047C780000387C44447C38000026
S11302F084FCF8A4243C1800183C24A4F8FC8400D2
S1130300447C78441C180000485C54547424000055
S113031000043E7F442400003C7C40403C7C400080
S11303201C3C60603C1C00003C7C6030607C3C00F9
S1130330446C3810386C44009CBCA0A0FC7C0000C9
S11303404C64745C4C64000008083E774141000032
S113035000000077770000004141773E0808000064
S1130360020301030203010011241FBECFEFD4E0F6
S1130370DEBFCDBF12E0A0E0B1E0EAEBF5E102C0E0
S113038005900D92A832B107D9F722E0A8E2B2E0B5
S113039001C01D92AB33B207E1F70E941F040C9415
S11303A0DB0A0C94000085B7806885BF80B7806243
S11303B080BF80E090E00895843048F48460E0E0F9
S11303C0F4E1808384EA8A95F1F78081089580E0DE
S11303D008950E94F90448E660E680E60E94360526
S11303E041E063E08BE20E94360540E060EE8FE07E
S11303F00E9436058EE00E94E2041F928F938AE0E9
S113040091E09F938F930E94B9068EE00E94E204CC
S1130410807E0F900F900F900F9059F08FE191E034
S11304209F938F930E94B9060F900F9081E090E004
S1130430089580E090E0089580E30E94E20484FD42
S113044005C085FD06C080E090E008958FEF9FEF22
S113045008958EEF9FEF089580E30E94E20486954D
S11304608695869591E08927817090E008950F9391
S11304701F93CF938C010E942C02892B09F43FC057
S1130480F801608171817695679576956795769583
S1130490679581E30E940F05F80160817181660F01
S11304A0771F62957295707F7627607F762782E347
S11304B00E940F0560E083E40E940F0560E084E47D
S11304C00E940F05F801628185E30E940F05F8017F
S11304D08281882371F0C0E0F801EC0FF11D638183
S11304E086E38C0F0E940F05CF5FF8018281C81745
S11304F098F381E80E94270580E090E007C00E94FD
S11305001C02990F990B892F990F990BCF911F9169
S11305100F91089540E061E08CE20E94360581E08D
S11305208093280280E090E008959F92AF92BF925A
S1130530CF92DF92EF92FF920F931F93CF93DF93AB
S1130540CDB7DEB72B970FB6F894DEBF0FBECDBF85
S11305505C01FE0131968BE0DF011D928A95E9F77B
S1130560809128028130D9F581E60E94E204C82EE8
S113057082E60E94E204D12CCC0CDD1CCC0CDD1CE8
S1130580CC0CDD1C829586958770C82A85E60E946E
S1130590E204082F0F701F920F9383E491E09F935E
S11305A08F930E94B9060F900F900F900F90002325
S11305B099F07E01B4E0EB0EF11C0F2EF6E69F2EAF
S11305C0F02D900E16E6812F0E94E204F70181932C
S11305D07F011F5F1911F7CF1092280203C000E0BA
S11305E0C12CD12CDA82C9820B838BE0FE013196B7
S11305F0D50101900D928A95E1F7C5012B960FB6AE
S1130600F894DEBF0FBECDBFDF91CF911F910F9144
S1130610FF90EF90DF90CF90BF90AF909F900895A0
S11306201F920F920FB60F9211242F933F934F9363
S11306305F936F937F938F939F93AF93BF93EF9346
S1130640FF930E948A02FF91EF91BF91AF919F9116
S11306508F917F916F915F914F913F912F910F9067
S11306600FBE0F901F90189580E00E94DC018093CC
S11306702A0281E00E94DC018093290280E090E05C
S113068008950E94D30187B3887F87BB88B38760AE
S113069088BB0E94340380E090E008951F93CF93B9
S11306A0DF9300D000D01F92CDB7DEB781E00E9467
S11306B0DC01182F80E00E94DC01E82F40912A021F
S11306C0411798F450E0212F30E0241B350B64E6E9
S11306D0629FC001639F900D11246FEF70E0641B53
S11306E0750B0E944606262F13C0141780F4642F3E
S11306F070E0212F30E0261B370B44E6429FC001F7
S1130700439F900D11240E944606262F01C020E02D
S1130710409129024E1790F450E0F0E0E41BF50BF1
S113072034E63E9FC0013F9F900D11246FEF70E0AF
S1130730641B750B0E944606362F13C0E41780F421
S1130740642F70E04E2F50E0461B570B34E6349F65
S1130750C001359F900D11240E944606362F01C01A
S113076030E04B815C816D8170E080E090E00F901F
S11307700F900F900F900F90DF91CF911F910895DC
S1130780CF93DF93CDB7DEB72A970FB6F894DEBFC9
S11307900FBECDBF0E944E0359876A87532F8985A8
S11307A09A85233D34F02E323CF081E591E041E01E
S11307B003C08CE491E042E0533D34F05E323CF0FF
S11307C08CE591E043E003C087E591E044E05CE21E
S11307D0520F593538F45CE2530F593518F48FE54C
S11307E091E040E09D838C83582F6D8170E080E020
S11307F090E02A960FB6F894DEBF0FBECDBFDF910E
S1130800CF910895CF9382E00E94DC01C82F83E04A
S11308100E94DC01482F24E62C9FC0011124EFEF35
S1130820F0E0BF010E944606362F249FC001112428
S1130830BF010E944606962F832FCF910895CF9330
S1130840DF93CDB7DEB76B970FB6F894DEBF0FBE5C
S1130850CDBFF8948BB780648BBF85B785BF8A986A
S11308608EE190E00E9439060E94D3010E94100696
S11308700E94F9040E9441030E9425060E94340349
S11308800E94E901892B79F487E691E09F938F9385
S11308900E94B90681E090E09A83898388E08B8383
S11308A00F900F9008C088E791E09F938F930E9468
S11308B0B9060F900F900E944103892B49F48EE8EA
S11308C091E09F938F930E94B9060F900F9008C0F8
S11308D089EA91E09F938F930E94B9060F900F903D
S11308E00E94D30565E081E00E94A60584EC91E0B6
S11308F00E94FF0565E082E00E94A60584EC91E079
S11309000E94FF0564E083E00E94A6058EEC91E05E
S11309100E94FF0565E084E00E94A6058BED91E04E
S11309200E94FF0584EE91E09F938F930E94B90685
S113093078940F900F900F2EF8EFEF2EF1E0FF2E2A
S1130940F02D0E94C0032F8B0E940204182FCE01A9
S113095001960E9437021F921F93FF92EF920E940A
S1130960B9068F898C831D83CE0101960E943702BC
S1130970CE010C960E9495028F8590E090932C02F4
S113098080932B02888990E090932F0280932E020B
S1130990CE0101960E9437020F900F900F900F9096
S11309A0D0CF80E090E00E941C0680EC0E941706E5
S11309B085EF90E00197F1F700C081E090E00E949C
S11309C01C060895CF93C82F80E090E00E941C0677
S11309D083E00E9417068C2F0E94170680E00E9475
S11309E01706C82F81E090E00E941C068C2FCF913F
S11309F008950E9410060E94D1048EE00E94E20431
S1130A00807E803851F085E092E09F938F930E941E
S1130A10B9060F900F9081E0089580E00895CF9378
S1130A20DF93D82FC62F80E090E00E941C0682E05E
S1130A300E9417068D2F0E9417068C2F0E941706FE
S1130A4081E090E00E941C06DF91CF910895CF933E
S1130A50C82F80E090E00E941C068C2F0E9417068D
S1130A6081E090E00E941C06CF9108951F93CF93DC
S1130A70DF93182FD62FC42F80E090E00E941C062D
S1130A8085E00E941706812F0E9417068D2F0E9471
S1130A9017068C2F0E94170681E090E00E941C0626
S1130AA0DF91CF911F9108951092300210922D0280
S1130AB0E0910801F091090183ED8083E091080140
S1130AC0F091090188EC8083E0910801F09109011B
S1130AD081E28083E0910801F09109011082E091A4
S1130AE00801F09109018FE78083E0910801F091FA
S1130AF0090182E28083E0910801F09109011082EA
S1130B00E0910801F091090187E0808380E090E0A2
S1130B100895CF93C82F0E945405C83098F4C09309
S1130B203002E0910801F09109011082E09108017E
S1130B30F091090180E18083E0910801F0910901BD
S1130B40C06BC08380E090E0CF910895CF93C62F0F
S1130B500E948905C03198F48C2F880F880F880F64
S1130B6080932D02E0910801F09109018F70808338
S1130B70E0910801F0910901C062C695C08380E04C
S1130B8090E0CF9108950E94890580E890E0E0917B
S1130B900601F091070110820197C9F70E945405DC
S1130BA080E090E00895CF93C0E08C2F0E94C305AD
S1130BB0CF5FC830D1F780E090E0CF910895282F1F
S1130BC030E0F901EE0FFF1FEE0FFF1FEE0FFF1FC6
S1130BD0E059F040220F331F220F331F220F331F1F
S1130BE028583040A0910601B091070194919C933C
S1130BF03196E217F307B1F780E090E00895CF93C0
S1130C00DF93EC018881882331F021960E94DF056F
S1130C1089918111FBCF80E090E0DF91CF9108951D
S1130C2087B3806B87BBBE9881E58DB908958FB972
S1130C30779BFECF8FB108958130910511F4C49A4A
S1130C400895892B09F4C498089585B7806885BFF1
S1130C5080B7806280BF80E090E008955D9BFECF06
S1130C608CB980E090E008955F9BFECF8CB190E05A
S1130C70089590BD89B988E18AB98EE880BD64E39E
S1130C8076E08EE296E00E946E06089597FB072EAA
S1130C9016F4009407D077FD09D00E945A0607FC89
S1130CA005D03EF4909581959F4F08957095619578
S1130CB07F4F0895AA1BBB1B51E107C0AA1FBB1F8E
S1130CC0A617B70710F0A61BB70B881F991F5A95D4
S1130CD0A9F780959095BC01CD0108950F931F93BA
S1130CE0CF93DF93009731F46115710519F480E017
S1130CF090E03AC08B01EC016EE070E081E090E09E
S1130D000E94B008FC01892B91F380E883830115CC
S1130D10110571F01387028781E883838091310282
S1130D2090913202892B21F4F0933202E093310244
S1130D302097C9F0D187C0878381826083838091A3
S1130D40330290913402892B71F4F0933402E093CE
S1130D5033028091350290913602892B21F4F0936D
S1130D603602E0933502CF01DF91CF911F910F91AD
S1130D700895A0E0B0E0EFEBF6E00C94B40AAE0105
S1130D804B5F5F4FFA0161917191AF018091330222
S1130D90909134020E94CF06E2E00C94D00AABE0BA
S1130DA0B0E0E5EDF6E00C94A40A6C017B018A0145
S1130DB0FC0117821682838181FFCCC1CE0101968A
S1130DC03C01F6019381F70193FD859193FF819195
S1130DD07F01882309F4BAC1853239F493FD8591E2
S1130DE093FF81917F01853229F4B60190E00E943E
S1130DF00A0AE7CF912C212C312CFFE1F315D8F00E
S1130E008B3279F038F4803279F08332A1F4232DD7
S1130E1020611DC08D3261F0803369F4232D21607F
S1130E2016C0832D8260382EE32DE4603E2E2AC046
S1130E30F32DF8601DC037FC2DC020ED280F2A309B
S1130E4040F08E32B9F436FC81C1232D2064322E59
S1130E5019C036FE06C08AE0989E200D1124922EF9
S1130E6011C0EAE02E9E200D1124222EF32DF062F3
S1130E703F2E08C08C3621F4832D8068382E02C0A2
S1130E80883641F4F70193FD859193FF81917F01A9
S1130E908111B3CF982F9F7D9554933028F40C5F24
S1130EA01F4F9FE399830DC0833631F0833771F070
S1130EB0833509F059C021C0F801808189830E5F10
S1130EC01F4F88248394912C530113C02801F2E00E
S1130ED04F0E511CF801A080B18036FE03C0692D6D
S1130EE070E002C06FEF7FEFC5010E94FF094C0163
S1130EF08201F32DFF773F2E16C0280122E0420E17
S1130F00511CF801A080B18036FE03C0692D70E049
S1130F1002C06FEF7FEFC5010E94ED094C01F32D74
S1130F20F0683F2E820133FC1BC0822D90E08816AE
S1130F309906B0F4B60180E290E00E940A0A2A946D
S1130F40F4CFF50137FC859137FE81915F01B6013D
S1130F5090E00E940A0A21102A9421E0821A910842
S1130F608114910471F7E8C0843611F0893641F593
S1130F70F80137FE07C060817181828193810C5F23
S1130F801F4F08C060817181072E000C880B990BDC
S1130F900E5F1F4FF32DFF763F2E97FF09C09095EC
S1130FA08095709561957F4F8F4F9F4FF0683F2ECE
S1130FB02AE030E0A3010E94460A882E861845C024
S1130FC0853731F4232D2F7EB22E2AE030E025C060
S1130FD0932D997FB92E8F36C1F018F4883579F0A6
S1130FE0B5C0803719F0883721F0B0C0E92FE0612F
S1130FF0BE2EB4FE0DC0FB2DF460BF2E09C034FE1E
S11310000AC0292F2660B22E06C028E030E005C0B1
S113101020E130E002C020E132E0F801B7FE07C071
S113102060817181828193810C5F1F4F06C0608152
S1131030718180E090E00E5F1F4FA3010E94460A79
S1131040882E8618FB2DFF773F2E36FE0DC0232DEC
S11310502E7FA22E891458F434FE0BC032FC09C032
S1131060832D8E7EA82E05C0B82CA32C03C0B82CCB
S113107001C0B92CA4FE0FC0FE01E80DF11D808152
S1131080803321F49A2D997EA92E09C0A2FE06C0B0
S1131090B394B39404C08A2D867809F0B394A3FC66
S11310A011C0A0FE06C0B21488F4280C922C9B1820
S11310B00EC0B21460F4B60180E290E00E940A0A05
S11310C0B394F7CFB21418F42B1802C0982C212C27
S11310D0A4FE10C0B60180E390E00E940A0AA2FEBA
S11310E017C0A1FC03C088E790E002C088E590E047
S11310F0B6010CC08A2D867859F0A1FE02C08BE29D
S113110001C080E2A7FC8DE2B60190E00E940A0AC9
S1131110891438F4B60180E390E00E940A0A9A9494
S1131120F7CF8A94F301E80DF11D8081B60190E0B8
S11311300E940A0A8110F5CF222009F442CEB6019A
S113114080E290E00E940A0A2A94F6CFF601868192
S1131150978102C08FEF9FEF2B96E2E10C94C00AB7
S11311600F931F93CF93DF93869F8001879F100D6A
S1131170969F100D1124C8010E94CC08EC01009721
S113118029F0A80160E070E00E94F809CE01DF9127
S1131190CF911F910F9108950F931F93CF93DF93D6
S11311A08230910510F482E090E0E0913902F091F0
S11311B03A0220E030E0A0E0B0E0309719F140813D
S11311C051810281138148175907C8F08417950784
S11311D069F4109731F012960C93129713961C939E
S11311E027C00093390210933A0222C02115310519
S11311F019F04217530718F49A01BD01EF01DF01FA
S1131200F801DBCF21153105F9F0281B390B243007
S1131210310580F48A819B816115710521F0FB0100
S11312209383828304C090933A0280933902FE012F
S1131230329644C0FE01E20FF31F81939193225032
S11312403109398328833AC020913702309138021A
S1131250232B41F420910201309103013093380291
S113126020933702209100013091010121153105AD
S113127041F42DB73EB74091040150910501241B60
S1131280350BE0913702F0913802E217F307A0F42E
S11312902E1B3F0B2817390778F0AC014E5F5F4FC8
S11312A02417350748F04E0F5F1F509338024093C0
S11312B037028193919302C0E0E0F0E0CF01DF9127
S11312C0CF911F910F910895CF93DF93009709F465
S11312D081C0FC01329713821282A0913902B0912D
S11312E03A02109781F420813181820F931F20915B
S11312F03702309138022817390751F5F093380234
S1131300E093370267C0ED0120E030E0CE17DF073D
S113131040F44A815B819E0141155105F1F0EA01D7
S1131320F5CFD383C28340815181840F951FC817A1
S1131330D90759F488819981840F951F0296918366
S113134080838A819B81938382832115310529F4CB
S1131350F0933A02E09339023DC0E901FB83EA834A
S113136049915991C40FD51FEC17FD0761F4808191
S11313709181840F951F0296E90199838883828164
S113138093819B838A83E0E0F0E012968D919C9197
S11313901397009719F0FD01DC01F7CF8D919C9113
S11313A011979D012E5F3F4F820F931F20913702AB
S11313B0309138022817390769F4309729F41092CC
S11313C03A021092390202C013821282B093380298
S11313D0A0933702DF91CF910895FC0105906150ED
S11313E070400110D8F7809590958E0F9F1F089537
S11313F0DC0101C06D9341505040E0F70895FC01B9
S11314006150704001900110D8F7809590958E0F2F
S11314109F1F08950F931F93CF93DF93FB012381A5
S113142021FD03C08FEF9FEF2CC022FF16C0468121
S11314305781248135814217530744F4A081B18137
S11314409D012F5F3F4F318320838C932681378109
S11314502F5F3F4F3783268314C08B01EC01FB01C0
S11314600084F185E02D0995892BE1F6D8011696C3
S11314708D919C911797019617969C938E9316972E
S1131480CE01DF91CF911F910F910895FA01AA2700
S1131490283051F1203181F1E8946F936E7F6E5FB3
S11314A07F4F8F4F9F4FAF4FB1E03ED0B4E03CD061
S11314B0670F781F891F9A1FA11D680F791F8A1F44
S11314C0911DA11D6A0F711D811D911DA11D20D0AB
S11314D009F468943F912AE0269F11243019305D65
S11314E03193DEF6CF010895462F4770405D419356
S11314F0B3E00FD0C9F7F6CF462F4F70405D4A33A3
S113150018F0495D31FD4052419302D0A9F7EACF6A
S1131510B4E0A6959795879577956795BA95C9F799
S113152000976105710508959B01AC010A2E06948C
S11315305795479537952795BA95C9F7620F731F45
S1131540841F951FA01D08952F923F924F925F9282
S11315506F927F928F929F92AF92BF92CF92DF92BF
S1131560EF92FF920F931F93CF93DF93CDB7DEB724
S1131570CA1BDB0B0FB6F894DEBF0FBECDBF0994B8
S11315802A88398848885F846E847D848C849B840F
S1131590AA84B984C884DF80EE80FD800C811B811D
S11315A0AA81B981CE0FD11D0FB6F894DEBF0FBE4C
S10D15B0CDBFED010895F894FFCFBC
S11315BA00003B0220000012001063616E20657275
S11315CA20692025303278206D6F64650A0D004544
S11315DA52524F522E2E4552524F522E2E2E4C4FAD
S11315EA4F504241434B204E4F5420574F524B4980
S11315FA4E47006C656E2025640A0D004C4546541E
S113160A00524947485400444F574E005550004E23
S113161A45555452414C0043414E20424520574FB0
S113162A524B494E470A0D0043414E204E4F542017
S113163A424520574F524B494E47200A0D002D2D43
S113164A2D2D4A6F79737469636B20776F726B6996
S113165A6E672D2D2D2D0A0D002D2D2D2D4A6F79F6
S113166A737469636B206572726F7221212D2D2D3B
S113167A2D0A0D0050696E6720506F6E6700507214
S113168A65737320427574746F6E00746F2073747B
S113169A617274002D2D2D2D54494E472046554E06
S11316AA4B2D2D2D2D0A0D00536C696465723A2059
S11316BA25640A0D004552524F522E2E4552524F5E
S11316CA522E2E2E434F4E464947204E4F542057F2
S10B16DA4F524B494E4700003A
S9030000FC
