S00C0000556172742E737265637C
S11300000C94B4010C9418030C94D1010C94D101F8
S11300100C94D1010C94D1010C94D1010C94D10114
S11300200C94D1010C94D1010C94D1010C94D10104
S11300300C94D1010C94D1010C94D1010C94D101F4
S11300400C94D1010C94D1010C94D1010C94D101E4
S11300500C94D1010C94D1010C94D1010C94D101D4
S11300600C94D1010C94D1010C94D1010C94D101C4
S1130070000000000000000000065F5F06000000B2
S11300800007070007070000147F7F147F7F140018
S1130090242E6B6B3A120000466630180C66620020
S11300A0307A4F5D377A48000407030000000000EF
S11300B0001C3E63410000000041633E1C00000040
S11300C0082A3E1C1C3E2A0808083E3E0808000078
S11300D000A0E0600000000008080808080800000C
S11300E000006060000000006030180C060301008E
S11300F03E7F594D7F3E000042427F7F40400000DA
S1130100627359496F660000226349497F360000D3
S1130110181C16137F7F1000276745457D390000A2
S11301203C7E4B4979300000036371190F070000CE
S1130130367F49497F360000064F49693F1E00005B
S113014000006C6C0000000000A0EC6C00000000DB
S1130150081C366341000000141414141414000025
S1130160004163361C080000020351590F060000C9
S11301703E7F415D5D1F1E007C7E13137E7C00006C
S1130180417F7F49497F36001C3E63414163220021
S1130190417F7F41637F1C00417F7F495D41630054
S11301A0417F7F491D0103001C3E6341517372006E
S11301B07F7F08087F7F000000417F7F41000000AF
S11301C0307040417F3F0100417F7F081C7763000E
S11301D0417F7F41406070007F7F060C067F7F0077
S11301E07F7F060C187F7F001C3E6341633E1C002A
S11301F0417F7F49090F06001E3F21717F5E000089
S1130200417F7F19396F460026674D597B320000C4
S113021003417F7F410300007F7F40407F7F0000D8
S11302201F3F60603F1F00007F7F3018307F7F00DA
S113023063771C081C776300074F78784F0700002A
S11302406773594D47637100007F7F41410000008F
S11302500103060C183060000041417F7F0000005C
S1130260080C0603060C0800808080808080808053
S11302700000030704000000207454543C7840003C
S1130280413F7F44447C3800387C44446C2800005F
S1130290307848493F7F4000387C54545C18000053
S11302A0487E7F490302000098BCA4A4F87C0400A3
S11302B0417F7F08047C780000447D7D400000007D
S11302C040C484FD7D000000417F7F10386C4400F1
S11302D000417F7F400000007C7C0C180C7C78007F
S11302E07C7C04047C780000387C44447C38000026
S11302F084FCF8A4243C1800183C24A4F8FC8400D2
S1130300447C78441C180000485C54547424000055
S113031000043E7F442400003C7C40403C7C400080
S11303201C3C60603C1C00003C7C6030607C3C00F9
S1130330446C3810386C44009CBCA0A0FC7C0000C9
S11303404C64745C4C64000008083E774141000032
S113035000000077770000004141773E0808000064
S1130360020301030203010011241FBECFEFD4E0F6
S1130370DEBFCDBF12E0A0E0B1E0E6E6F6E102C0E8
S113038005900D92A238B107D9F722E0A2E8B2E0B5
S113039001C01D92A539B207E1F70E942A040C940A
S11303A0310B0C94000085B7806885BF80B78062EC
S11303B080BF80E090E00895843048F48460E0E0F9
S11303C0F4E1808384EA8A95F1F78081089580E0DE
S11303D008950E94570548E660E680E60E94940569
S11303E041E063E08BE20E94940540E060EE8FE020
S11303F00E9494058EE00E9440051F928F938AE02C
S113040091E09F938F930E9416078EE00E9440050F
S1130410807E0F900F900F900F9059F08FE191E034
S11304209F938F930E9416070F900F9081E090E0A6
S1130430089580E090E0089580E30E94400584FDE3
S113044005C085FD06C080E090E008958FEF9FEF22
S113045008958EEF9FEF089580E30E9440058695EE
S11304608695869591E08927817090E008950F9391
S11304701F93CF938C010E942C02892B09F43FC057
S1130480F801608171817695679576956795769583
S1130490679581E30E946D05F80160817181660FA3
S11304A0771F62957295707F7627607F762782E347
S11304B00E946D0560E083E40E946D0560E084E4C1
S11304C00E946D05F801628185E30E946D05F801C3
S11304D08281882371F0C0E0F801EC0FF11D638183
S11304E086E38C0F0E946D05CF5FF8018281C817E7
S11304F098F381E80E94850580E090E007C00E949F
S11305001C02990F990B892F990F990BCF911F9169
S11305100F91089540E061E08CE20E94940581E02F
S11305208093820280E090E008959F92AF92BF9200
S1130530CF92DF92EF92FF920F931F93CF93DF93AB
S1130540CDB7DEB72B970FB6F894DEBF0FBECDBF85
S11305505C0183E491E09F938F930E941607FE0150
S113056031968BE0DF011D928A95E9F70F900F9089
S1130570809182028130D9F581E60E944005C82E1F
S113058082E60E944005829586958770D12CCC0C1A
S1130590DD1CCC0CDD1CCC0CDD1CC82A85E60E94BD
S11305A04005082F0F701F920F938FE491E09F93E3
S11305B08F930E9416070F900F900F900F900023B7
S11305C099F07E01B4E0EB0EF11C0F2EF6E69F2E9F
S11305D0F02D900E16E6812F0E944005F7018193BD
S11305E07F011F5F1911F7CF1092820203C000E050
S11305F0C12CD12CDA82C9820B838BE0FE013196A7
S1130600D50101900D928A95E1F7C5012B960FB69D
S1130610F894DEBF0FBECDBFDF91CF911F910F9134
S1130620FF90EF90DF90CF90BF90AF909F90089590
S11306301F920F920FB60F9211242F933F934F9353
S11306405F936F937F938F939F93AF93BF93EF9336
S1130650FF930E948A02FF91EF91BF91AF919F9106
S11306608F917F916F915F914F913F912F910F9057
S11306700FBE0F901F90189580E00E94DC018093BC
S1130680840281E00E94DC018093830280E090E098
S113069008950E94D30187B3887F87BB88B387609E
S11306A088BB0E943C0380E090E00895813091056E
S11306B059F08230910579F0892BA9F496B381E041
S11306C08927817090E0089586B3869591E0892703
S11306D0817090E0089586B38695869591E0892788
S11306E0817090E0089580E090E008951F93CF9387
S11306F0DF9300D000D01F92CDB7DEB781E00E9417
S1130700DC01182F80E00E94DC01E82F4091840274
S1130710411798F450E0212F30E0241B350B64E698
S1130720629FC001639F900D11246FEF70E0641B02
S1130730750B0E94A306262F13C0141780F4642F90
S113074070E0212F30E0261B370B44E6429FC001A6
S1130750439F900D11240E94A306262F01C020E080
S1130760409183024E1790F450E0F0E0E41BF50B47
S113077034E63E9FC0013F9F900D11246FEF70E05F
S1130780641B750B0E94A306362F13C0E41780F474
S1130790642F70E04E2F50E0461B570B34E6349F15
S11307A0C001359F900D11240E94A306362F01C06D
S11307B030E04B815C816D8170E080E090E00F90CF
S11307C00F900F900F900F90DF91CF911F9108958C
S11307D0CF93DF93CDB7DEB72A970FB6F894DEBF79
S11307E00FBECDBF0E94760359876A87532F898530
S11307F09A85233D34F02E323CF08DE591E041E0C2
S113080003C088E591E042E0533D34F05E323CF0B1
S113081088E691E043E003C083E691E044E05CE2D3
S1130820520F593538F45CE2530F593518F48BE6FE
S113083091E040E09D838C83582F6D8170E080E0CF
S113084090E02A960FB6F894DEBF0FBECDBFDF91BD
S1130850CF910895CF93DF93CDB7DEB76B970FB6E3
S1130860F894DEBF0FBECDBFF8948BB780648BBF06
S113087085B785BF8A988EE190E00E9496060E9413
S1130880D3010E946D060E9457050E9449030E94ED
S113089082060E943C030E94E901892B79F483E7D4
S11308A091E09F938F930E94160781E090E09A83D2
S11308B0898388E08B830F900F9008C084E891E0CF
S11308C09F938F930E9416070F900F900E944903E5
S11308D0892B49F48AE991E09F938F930E9416072C
S11308E00F900F9008C085EB91E09F938F930E9427
S11308F016070F900F900E94310665E081E00E9478
S1130900040680ED91E00E945C0665E082E00E94AE
S1130910040680ED91E00E945C0664E083E00E949E
S113092004068AED91E00E945C0665E084E00E9482
S1130930040687EE91E00E945C0680EF91E09F93AD
S11309408F930E94160778940F900F900F2EF4E067
S11309508F2EF2E09F2EF02D0F2EF6E1AF2EF2E057
S1130960BF2EF02D0F2EFAE2CF2EF2E0DF2EF02D67
S11309700F2EF2E3EF2EF2E0FF2EF02D0AE312E049
S11309800F2EF8E46F2EF2E07F2EF02D0F2EF4E5FB
S11309904F2EF2E05F2EF02D0E94E803222E332E1C
S11309A05A8F6B8F80E090E00E9456039F938F9341
S11309B09F928F920E94160781E090E00E94560356
S11309C09F938F93BF92AF920E941607822D022CA1
S11309D0000C990B9F932F92DF92CF920E941607DF
S11309E0832D032C000C990B9F933F92FF92EF925F
S11309F00E9416078B8D8F938A8D8F931F930F936D
S1130A000E9416072C823D82CE0101960E94370275
S1130A10CE010C960E9495022F85822F90E0909330
S1130A20860280938502888990E09093890280935E
S1130A3088021F922F937F926F920E9416078091D3
S1130A4089028F93809188028F935F924F920E94C4
S1130A5016070FB6F894DEBF0FBECDBF9DCF80E062
S1130A6090E00E94790680EC0E94740685EF90E085
S1130A700197F1F700C081E090E00E9479060895A3
S1130A80CF93C82F80E090E00E94790683E00E9413
S1130A9074068C2F0E94740680E00E947406C82F8E
S1130AA081E090E00E9479068C2FCF9108950E94F6
S1130AB06D060E942F058EE00E944005807E8038DE
S1130AC051F080E692E09F938F930E9416070F9057
S1130AD00F9081E0089580E00895CF93DF93D82F9D
S1130AE0C62F80E090E00E94790682E00E9474069E
S1130AF08D2F0E9474068C2F0E94740681E090E072
S1130B000E947906DF91CF910895CF93C82F80E09A
S1130B1090E00E9479068C2F0E94740681E090E098
S1130B200E947906CF9108951F93CF93DF93182FD6
S1130B30D62FC42F80E090E00E94790685E00E94C1
S1130B407406812F0E9474068D2F0E9474068C2FC8
S1130B500E94740681E090E00E947906DF91CF91B3
S1130B601F91089510928A0210928702E091080161
S1130B70F091090183ED8083E0910801F09109016E
S1130B8088EC8083E0910801F091090181E280837F
S1130B90E0910801F09109011082E0910801F091BF
S1130BA009018FE78083E0910801F091090182E255
S1130BB08083E0910801F09109011082E09108011D
S1130BC0F091090187E0808380E090E00895CF935D
S1130BD0C82F0E94B205C83098F4C0938A02E091ED
S1130BE00801F09109011082E0910801F0910901D6
S1130BF080E18083E0910801F0910901C06BC0831A
S1130C0080E090E0CF910895CF93C62F0E94E7052E
S1130C10C03198F48C2F880F880F880F8093870237
S1130C20E0910801F09109018F708083E09108013F
S1130C30F0910901C062C695C08380E090E0CF9135
S1130C4008950E94E70580E890E0E0910601F091A4
S1130C50070110820197C9F70E94B20580E090E075
S1130C600895CF93C0E08C2F0E942106CF5FC83037
S1130C70D1F780E090E0CF91089590E0FC01EE0F71
S1130C80FF1FEE0FFF1FEE0FFF1FE059F040880F0C
S1130C90991F880F991F880F991F88589040A09119
S1130CA00601B091070124912C933196E817F907B6
S1130CB0B1F780E090E00895CF93DF93EC01888151
S1130CC0882331F021960E943D0689918111FBCF42
S1130CD080E090E0DF91CF91089587B3806B87BB6C
S1130CE0BE9881E58DB908958FB9779BFECF8FB1FA
S1130CF008958130910511F4C49A0895892B09F45B
S1130D00C498089585B7806885BF80B7806280BF26
S1130D1080E090E008955D9BFECF8CB980E090E088
S1130D2008955F9BFECF8CB190E0089590BD89B982
S1130D3088E18AB98EE880BD61E976E08BE896E0C7
S1130D400E94CB06089597FB072E16F4009407D053
S1130D5077FD09D00E94B70607FC05D03EF49095B4
S1130D6081959F4F0895709561957F4F0895AA1BB3
S1130D70BB1B51E107C0AA1FBB1FA617B70710F082
S1130D80A61BB70B881F991F5A95A9F780959095B4
S1130D90BC01CD0108950F931F93CF93DF93009768
S1130DA031F46115710519F480E090E03AC08B01CB
S1130DB0EC016EE070E081E090E00E94FE08FC012E
S1130DC0892B91F380E883830115110571F0138752
S1130DD0028781E8838380918B0290918C02892B16
S1130DE021F4F0938C02E0938B022097C9F0D18711
S1130DF0C08783818260838380918D0290918E026B
S1130E00892B71F4F0938E02E0938D0280918F020E
S1130E1090919002892B21F4F0939002E0938F0239
S1130E20CF01DF91CF911F910F910895A0E0B0E021
S1130E30ECE1F7E00C940A0BAE014B5F5F4FFA0153
S1130E4061917191AF0180918D0290918E020E9407
S1130E502C07E2E00C94260BACE0B0E0E2E3F7E010
S1130E600C94FA0A7C016B018A01FC011782168238
S1130E70838181FFBDC1CE0101964C01F7019381AD
S1130E80F60193FD859193FF81916F01882309F405
S1130E90ABC1853239F493FD859193FF81916F0144
S1130EA0853229F4B70190E00E94640AE7CF512CFF
S1130EB0312C20E02032A0F48B3269F030F48032FF
S1130EC059F0833269F420612CC08D3239F08033BB
S1130ED039F4216026C02260246023C0286021C028
S1130EE027FD27C030ED380F3A3078F426FF06C0CE
S1130EF0FAE05F9E300D1124532E13C08AE0389E11
S1130F00300D1124332E20620CC08E3221F426FDC4
S1130F106BC1206406C08C3611F4206802C0883688
S1130F2041F4F60193FD859193FF81916F01811145
S1130F30C1CF982F9F7D9554933028F40C5F1F4F99
S1130F40FFE3F9830DC0833631F0833771F08335C5
S1130F5009F05BC022C0F801808189830E5F1F4FB6
S1130F6044244394512C540115C03801F2E06F0E0F
S1130F70711CF801A080B18026FF03C0652D70E0CC
S1130F8002C06FEF7FEFC5012C870E94590A2C0124
S1130F9083012C852F77222E17C03801F2E06F0EC3
S1130FA0711CF801A080B18026FF03C0652D70E09C
S1130FB002C06FEF7FEFC5012C870E94470A2C0106
S1130FC02C852068222E830123FC1BC0832D90E0F6
S1130FD048165906B0F4B70180E290E00E94640A12
S1130FE03A94F4CFF50127FC859127FE81915F01A6
S1130FF0B70190E00E94640A31103A94F1E04F1A6C
S113100051084114510471F7E5C0843611F0893652
S113101039F5F80127FF07C06081718182819381CE
S11310200C5F1F4F08C060817181072E000C880B74
S1131030990B0E5F1F4F2F76722E97FF09C0909564
S11310408095709561957F4F8F4F9F4F2068722ECA
S11310502AE030E0A4010E949C0AA82EA81844C0EB
S1131060853729F42F7EB22E2AE030E025C0F22FF6
S1131070F97FBF2E8F36C1F018F4883579F0B4C0EB
S1131080803719F0883721F0AFC02F2F2061B22E9E
S1131090B4FE0DC08B2D8460B82E09C024FF0AC095
S11310A09F2F9660B92E06C028E030E005C020E1ED
S11310B030E002C020E132E0F801B7FE07C06081F1
S11310C07181828193810C5F1F4F06C060817181A1
S11310D080E090E00E5F1F4FA4010E949C0AA82E9E
S11310E0A818FB2DFF777F2E76FE0BC0372D3E7F91
S11310F0A51450F474FE0AC072FC08C0372D3E7E5D
S113110005C0BA2C372D03C0BA2C01C0B52C34FF4E
S11311100DC0FE01EA0DF11D8081803311F4397E8A
S113112009C032FF06C0B394B39404C0832F8678F9
S113113009F0B39433FD13C030FF06C05A2CB31426
S113114018F4530C5B18B32CB31468F4B70180E2A1
S113115090E03C870E94640AB3943C85F5CFB314B5
S113116010F43B1801C0312C34FF12C0B70180E3E6
S113117090E03C870E94640A3C8532FF17C031FD31
S113118003C088E790E002C088E590E0B7010CC096
S1131190832F867859F031FF02C08BE201C080E2D0
S11311A037FD8DE2B70190E00E94640AA51438F47B
S11311B0B70180E390E00E94640A5A94F7CFAA949E
S11311C0F401EA0DF11D8081B70190E00E94640AE8
S11311D0A110F5CF332009F451CEB70180E290E09D
S11311E00E94640A3A94F6CFF7018681978102C07F
S11311F08FEF9FEF2C96E2E10C94160B0F931F9345
S1131200CF93DF93869F8001879F100D969F100DCB
S11312101124C8010E941A09EC01009729F0A801C1
S113122060E070E00E94520ACE01DF91CF911F91DD
S11312300F910895CF93DF938230910510F482E0EB
S113124090E0E0919302F091940220E030E0C0E05D
S1131250D0E0309711F14081518148175907C0F00F
S11312604817590761F482819381209719F09B8371
S11312708A832BC0909394028093930226C02115F5
S1131280310519F04217530718F49A01BE01DF0122
S1131290EF010280F381E02DDCCF2115310509F146
S11312A0281B390B2430310590F412968D919C91B2
S11312B013976115710521F0FB019383828304C0A8
S11312C09093940280939302FD01329644C0FD01F1
S11312D0E20FF31F81939193225031092D933C9394
S11312E03AC02091910230919202232B41F4209133
S11312F002013091030130939202209391022091D4
S11313000001309101012115310541F42DB73EB79B
S11313104091040150910501241B350BE091910289
S1131320F0919202E217F307A0F42E1B3F0B28174B
S1131330390778F0AC014E5F5F4F2417350748F04A
S11313404E0F5F1F509392024093910281939193A9
S113135002C0E0E0F0E0CF01DF91CF9108950F9358
S11313601F93CF93DF93009709F48CC0FC0132974D
S113137013821282009193021091940201151105B7
S113138081F420813181820F931F20919102309149
S113139092022817390779F5F0939202E0939102AB
S11313A071C0D80140E050E0AE17BF0750F4129668
S11313B02D913C911397AD012115310509F1D90106
S11313C0F3CF9D01DA013383228360817181860F1B
S11313D0971F8217930769F4EC0128813981260F3E
S11313E0371F2E5F3F4F318320838A819B819383F4
S11313F08283452B29F4F0939402E093930242C034
S11314001396FC93EE931297ED01499159919E0125
S1131410240F351FE217F30771F480819181840F43
S1131420951F029611969C938E93828193811396B5
S11314309C938E931297E0E0F0E0D80112968D9180
S11314409C911397009719F0F8018C01F6CF8D91B8
S11314509C9198012E5F3F4F820F931F2091910220
S1131460309192022817390769F4309729F41092C1
S113147094021092930202C0138212821093920279
S113148000939102DF91CF911F910F910895FC0178
S11314900590615070400110D8F7809590958E0F9B
S11314A09F1F0895DC0101C06D9341505040E0F747
S11314B00895FC016150704001900110D8F78095A7
S11314C090958E0F9F1F08950F931F93CF93DF93D3
S11314D0FB01238121FD03C08FEF9FEF28C022FF72
S11314E016C046815781248135814217530744F43D
S11314F0A081B1819D012F5F3F4F318320838C9365
S1131500268137812F5F3F4F3783268310C0EB013D
S1131510092F182F0084F185E02D0995892BE1F618
S11315208E819F8101969F838E83812F902FDF91DF
S1131530CF911F910F910895FA01AA27283051F1F4
S1131540203181F1E8946F936E7F6E5F7F4F8F4FF0
S11315509F4FAF4FB1E03ED0B4E03CD0670F781F4F
S1131560891F9A1FA11D680F791F8A1F911DA11D34
S11315706A0F711D811D911DA11D20D009F468946D
S11315803F912AE0269F11243019305D3193DEF615
S1131590CF010895462F4770405D4193B3E00FD0CB
S11315A0C9F7F6CF462F4F70405D4A3318F0495DB6
S11315B031FD4052419302D0A9F7EACFB4E0A69599
S11315C09795879577956795BA95C9F700976105BB
S11315D0710508959B01AC010A2E06945795479511
S11315E037952795BA95C9F7620F731F841F951F06
S11315F0A01D08952F923F924F925F926F927F9217
S11316008F929F92AF92BF92CF92DF92EF92FF920E
S11316100F931F93CF93DF93CDB7DEB7CA1BDB0BBA
S11316200FB6F894DEBF0FBECDBF09942A8839885F
S113163048885F846E847D848C849B84AA84B98466
S1131640C884DF80EE80FD800C811B81AA81B98172
S1131650CE0FD11D0FB6F894DEBF0FBECDBFED0186
S10916600895F894FFCF89
S11316660000950220000012001063616E2065726E
S113167620692025303278206D6F64650A0D004597
S113168652524F522E2E4552524F522E2E2E4C4F00
S11316964F504241434B204E4F5420574F524B49D3
S11316A64E47006173646661737364660A0D006C69
S11316B6656E2025640A0D004C4546540052494780
S11316C6485400444F574E005550004E4555545209
S11316D6414C0043414E20424520574F524B494E00
S11316E6470A0D0043414E204E4F54204245205791
S11316F64F524B494E47200A0D002D2D2D2D4A6F72
S113170679737469636B20776F726B696E672D2DBD
S11317162D2D0A0D002D2D2D2D4A6F7973746963B5
S11317266B206572726F7221212D2D2D2D0A0D00ED
S113173650696E6720506F6E670050726573732030
S1131746427574746F6E00746F20737461727400E2
S11317562D2D2D2D54494E472046554E4B2D2D2DBE
S11317662D0A0D00486F797265206B6E6170703AB0
S11317762025642C200056656E73747265206B6E8A
S11317866170703A2025642C2000783A2025642064
S11317962C00793A202564202C005265746E696EFB
S11317A6673A2025730A0D00793120657220256475
S11317B6200A0D007932206572202564200A0D0066
S11317C64552524F522E2E4552524F522E2E2E43D2
S11317D64F4E464947204E4F5420574F524B494E81
S10517E64700B6
S9030000FC
